{
  "_format": "hh-sol-artifact-1",
  "contractName": "ChessControl",
  "sourceName": "contracts/ChessControl.sol",
  "abi": [
    {
      "inputs": [],
      "stateMutability": "nonpayable",
      "type": "constructor"
    },
    {
      "inputs": [
        {
          "internalType": "uint8",
          "name": "fromType",
          "type": "uint8"
        },
        {
          "internalType": "string",
          "name": "message",
          "type": "string"
        }
      ],
      "name": "UnsupportedPieceType",
      "type": "error"
    },
    {
      "inputs": [
        {
          "internalType": "uint256",
          "name": "gameState",
          "type": "uint256"
        },
        {
          "internalType": "uint8",
          "name": "fromPos",
          "type": "uint8"
        },
        {
          "internalType": "uint32",
          "name": "playerState",
          "type": "uint32"
        },
        {
          "internalType": "bool",
          "name": "currentTurnBlack",
          "type": "bool"
        }
      ],
      "name": "checkBishopValidMoves",
      "outputs": [
        {
          "internalType": "bool",
          "name": "",
          "type": "bool"
        }
      ],
      "stateMutability": "pure",
      "type": "function"
    },
    {
      "inputs": [
        {
          "internalType": "uint256",
          "name": "gameState",
          "type": "uint256"
        },
        {
          "internalType": "uint8",
          "name": "fromPos",
          "type": "uint8"
        },
        {
          "internalType": "int8",
          "name": "step",
          "type": "int8"
        },
        {
          "internalType": "uint8",
          "name": "limitCheck",
          "type": "uint8"
        },
        {
          "internalType": "uint8",
          "name": "kingPos",
          "type": "uint8"
        },
        {
          "internalType": "bool",
          "name": "currentTurnBlack",
          "type": "bool"
        }
      ],
      "name": "checkDirectionBishop",
      "outputs": [
        {
          "internalType": "bool",
          "name": "",
          "type": "bool"
        }
      ],
      "stateMutability": "pure",
      "type": "function"
    },
    {
      "inputs": [
        {
          "internalType": "uint256",
          "name": "gameState",
          "type": "uint256"
        },
        {
          "internalType": "uint8",
          "name": "fromPos",
          "type": "uint8"
        },
        {
          "internalType": "int8",
          "name": "step",
          "type": "int8"
        },
        {
          "internalType": "uint8",
          "name": "limitCheck",
          "type": "uint8"
        },
        {
          "internalType": "uint8",
          "name": "kingPos",
          "type": "uint8"
        },
        {
          "internalType": "bool",
          "name": "currentTurnBlack",
          "type": "bool"
        }
      ],
      "name": "checkDirectionQueen",
      "outputs": [
        {
          "internalType": "bool",
          "name": "",
          "type": "bool"
        }
      ],
      "stateMutability": "pure",
      "type": "function"
    },
    {
      "inputs": [
        {
          "internalType": "uint256",
          "name": "gameState",
          "type": "uint256"
        },
        {
          "internalType": "uint8",
          "name": "fromPos",
          "type": "uint8"
        },
        {
          "internalType": "int8",
          "name": "step",
          "type": "int8"
        },
        {
          "internalType": "uint8",
          "name": "limitCheck",
          "type": "uint8"
        },
        {
          "internalType": "uint8",
          "name": "kingPos",
          "type": "uint8"
        },
        {
          "internalType": "bool",
          "name": "currentTurnBlack",
          "type": "bool"
        }
      ],
      "name": "checkDirectionRook",
      "outputs": [
        {
          "internalType": "bool",
          "name": "",
          "type": "bool"
        }
      ],
      "stateMutability": "pure",
      "type": "function"
    },
    {
      "inputs": [
        {
          "internalType": "uint256",
          "name": "gameState",
          "type": "uint256"
        },
        {
          "internalType": "uint32",
          "name": "playerState",
          "type": "uint32"
        },
        {
          "internalType": "uint32",
          "name": "opponentState",
          "type": "uint32"
        }
      ],
      "name": "checkEndgame",
      "outputs": [
        {
          "internalType": "uint8",
          "name": "",
          "type": "uint8"
        }
      ],
      "stateMutability": "pure",
      "type": "function"
    },
    {
      "inputs": [
        {
          "internalType": "uint256",
          "name": "gameState",
          "type": "uint256"
        },
        {
          "internalType": "uint32",
          "name": "playerState",
          "type": "uint32"
        }
      ],
      "name": "checkForCheck",
      "outputs": [
        {
          "internalType": "bool",
          "name": "",
          "type": "bool"
        }
      ],
      "stateMutability": "pure",
      "type": "function"
    },
    {
      "inputs": [
        {
          "internalType": "uint256",
          "name": "startingGameState",
          "type": "uint256"
        },
        {
          "internalType": "uint32",
          "name": "startingPlayerState",
          "type": "uint32"
        },
        {
          "internalType": "uint32",
          "name": "startingOpponentState",
          "type": "uint32"
        },
        {
          "internalType": "bool",
          "name": "startingTurnBlack",
          "type": "bool"
        },
        {
          "internalType": "uint16[]",
          "name": "moves",
          "type": "uint16[]"
        }
      ],
      "name": "checkGame",
      "outputs": [
        {
          "internalType": "uint8",
          "name": "outcome",
          "type": "uint8"
        },
        {
          "internalType": "uint256",
          "name": "gameState",
          "type": "uint256"
        },
        {
          "internalType": "uint32",
          "name": "playerState",
          "type": "uint32"
        },
        {
          "internalType": "uint32",
          "name": "opponentState",
          "type": "uint32"
        }
      ],
      "stateMutability": "pure",
      "type": "function"
    },
    {
      "inputs": [
        {
          "internalType": "uint16[]",
          "name": "moves",
          "type": "uint16[]"
        }
      ],
      "name": "checkGameFromStart",
      "outputs": [
        {
          "internalType": "uint8",
          "name": "",
          "type": "uint8"
        },
        {
          "internalType": "uint256",
          "name": "",
          "type": "uint256"
        },
        {
          "internalType": "uint32",
          "name": "",
          "type": "uint32"
        },
        {
          "internalType": "uint32",
          "name": "",
          "type": "uint32"
        }
      ],
      "stateMutability": "pure",
      "type": "function"
    },
    {
      "inputs": [
        {
          "internalType": "uint256",
          "name": "gameState",
          "type": "uint256"
        },
        {
          "internalType": "uint8",
          "name": "fromPos",
          "type": "uint8"
        },
        {
          "internalType": "uint32",
          "name": "playerState",
          "type": "uint32"
        },
        {
          "internalType": "bool",
          "name": "currentTurnBlack",
          "type": "bool"
        }
      ],
      "name": "checkKingValidMoves",
      "outputs": [
        {
          "internalType": "bool",
          "name": "",
          "type": "bool"
        }
      ],
      "stateMutability": "pure",
      "type": "function"
    },
    {
      "inputs": [
        {
          "internalType": "uint256",
          "name": "gameState",
          "type": "uint256"
        },
        {
          "internalType": "uint8",
          "name": "fromPos",
          "type": "uint8"
        },
        {
          "internalType": "uint32",
          "name": "playerState",
          "type": "uint32"
        },
        {
          "internalType": "bool",
          "name": "currentTurnBlack",
          "type": "bool"
        }
      ],
      "name": "checkKnightValidMoves",
      "outputs": [
        {
          "internalType": "bool",
          "name": "",
          "type": "bool"
        }
      ],
      "stateMutability": "pure",
      "type": "function"
    },
    {
      "inputs": [
        {
          "internalType": "uint256",
          "name": "gameState",
          "type": "uint256"
        },
        {
          "internalType": "uint8",
          "name": "fromPos",
          "type": "uint8"
        },
        {
          "internalType": "uint32",
          "name": "playerState",
          "type": "uint32"
        },
        {
          "internalType": "uint32",
          "name": "opponentState",
          "type": "uint32"
        },
        {
          "internalType": "bool",
          "name": "currentTurnBlack",
          "type": "bool"
        }
      ],
      "name": "checkPawnValidMoves",
      "outputs": [
        {
          "internalType": "bool",
          "name": "",
          "type": "bool"
        }
      ],
      "stateMutability": "pure",
      "type": "function"
    },
    {
      "inputs": [
        {
          "internalType": "uint256",
          "name": "gameState",
          "type": "uint256"
        },
        {
          "internalType": "uint8",
          "name": "fromPos",
          "type": "uint8"
        },
        {
          "internalType": "uint32",
          "name": "playerState",
          "type": "uint32"
        },
        {
          "internalType": "bool",
          "name": "currentTurnBlack",
          "type": "bool"
        }
      ],
      "name": "checkQueenValidMoves",
      "outputs": [
        {
          "internalType": "bool",
          "name": "",
          "type": "bool"
        }
      ],
      "stateMutability": "pure",
      "type": "function"
    },
    {
      "inputs": [
        {
          "internalType": "uint256",
          "name": "gameState",
          "type": "uint256"
        },
        {
          "internalType": "uint8",
          "name": "fromPos",
          "type": "uint8"
        },
        {
          "internalType": "uint32",
          "name": "playerState",
          "type": "uint32"
        },
        {
          "internalType": "bool",
          "name": "currentTurnBlack",
          "type": "bool"
        }
      ],
      "name": "checkRookValidMoves",
      "outputs": [
        {
          "internalType": "bool",
          "name": "",
          "type": "bool"
        }
      ],
      "stateMutability": "pure",
      "type": "function"
    },
    {
      "inputs": [
        {
          "internalType": "uint256",
          "name": "gameState",
          "type": "uint256"
        },
        {
          "internalType": "uint8",
          "name": "fromPos",
          "type": "uint8"
        },
        {
          "internalType": "uint8",
          "name": "toPos",
          "type": "uint8"
        }
      ],
      "name": "commitMove",
      "outputs": [
        {
          "internalType": "uint256",
          "name": "newGameState",
          "type": "uint256"
        }
      ],
      "stateMutability": "pure",
      "type": "function"
    },
    {
      "inputs": [
        {
          "internalType": "uint8",
          "name": "fromPos",
          "type": "uint8"
        },
        {
          "internalType": "uint8",
          "name": "toPos",
          "type": "uint8"
        }
      ],
      "name": "getHorizontalMovement",
      "outputs": [
        {
          "internalType": "uint8",
          "name": "",
          "type": "uint8"
        }
      ],
      "stateMutability": "pure",
      "type": "function"
    },
    {
      "inputs": [
        {
          "internalType": "uint8",
          "name": "fromPos",
          "type": "uint8"
        },
        {
          "internalType": "uint8",
          "name": "toPos",
          "type": "uint8"
        }
      ],
      "name": "getInBetweenMask",
      "outputs": [
        {
          "internalType": "uint256",
          "name": "",
          "type": "uint256"
        }
      ],
      "stateMutability": "pure",
      "type": "function"
    },
    {
      "inputs": [
        {
          "internalType": "uint8",
          "name": "pos",
          "type": "uint8"
        }
      ],
      "name": "getPositionMask",
      "outputs": [
        {
          "internalType": "uint256",
          "name": "",
          "type": "uint256"
        }
      ],
      "stateMutability": "pure",
      "type": "function"
    },
    {
      "inputs": [
        {
          "internalType": "uint8",
          "name": "fromPos",
          "type": "uint8"
        },
        {
          "internalType": "uint8",
          "name": "toPos",
          "type": "uint8"
        }
      ],
      "name": "getVerticalMovement",
      "outputs": [
        {
          "internalType": "uint8",
          "name": "",
          "type": "uint8"
        }
      ],
      "stateMutability": "pure",
      "type": "function"
    },
    {
      "inputs": [
        {
          "internalType": "uint256",
          "name": "gameState",
          "type": "uint256"
        },
        {
          "internalType": "uint8",
          "name": "pos",
          "type": "uint8"
        }
      ],
      "name": "pieceAtPosition",
      "outputs": [
        {
          "internalType": "uint8",
          "name": "",
          "type": "uint8"
        }
      ],
      "stateMutability": "pure",
      "type": "function"
    },
    {
      "inputs": [
        {
          "internalType": "uint256",
          "name": "gameState",
          "type": "uint256"
        },
        {
          "internalType": "uint8",
          "name": "pos",
          "type": "uint8"
        }
      ],
      "name": "pieceUnderAttack",
      "outputs": [
        {
          "internalType": "bool",
          "name": "",
          "type": "bool"
        }
      ],
      "stateMutability": "pure",
      "type": "function"
    },
    {
      "inputs": [
        {
          "internalType": "uint256",
          "name": "gameState",
          "type": "uint256"
        },
        {
          "internalType": "uint32",
          "name": "playerState",
          "type": "uint32"
        },
        {
          "internalType": "uint32",
          "name": "opponentState",
          "type": "uint32"
        },
        {
          "internalType": "uint8",
          "name": "color",
          "type": "uint8"
        },
        {
          "internalType": "uint16",
          "name": "pBitOffset",
          "type": "uint16"
        },
        {
          "internalType": "uint16",
          "name": "bitSize",
          "type": "uint16"
        }
      ],
      "name": "searchPiece",
      "outputs": [
        {
          "internalType": "bool",
          "name": "",
          "type": "bool"
        }
      ],
      "stateMutability": "pure",
      "type": "function"
    },
    {
      "inputs": [
        {
          "internalType": "uint256",
          "name": "gameState",
          "type": "uint256"
        },
        {
          "internalType": "uint8",
          "name": "pos",
          "type": "uint8"
        },
        {
          "internalType": "uint8",
          "name": "piece",
          "type": "uint8"
        }
      ],
      "name": "setPosition",
      "outputs": [
        {
          "internalType": "uint256",
          "name": "",
          "type": "uint256"
        }
      ],
      "stateMutability": "pure",
      "type": "function"
    },
    {
      "inputs": [
        {
          "internalType": "uint256",
          "name": "gameState",
          "type": "uint256"
        },
        {
          "internalType": "uint8",
          "name": "fromPos",
          "type": "uint8"
        },
        {
          "internalType": "uint8",
          "name": "toPos",
          "type": "uint8"
        },
        {
          "internalType": "bool",
          "name": "currentTurnBlack",
          "type": "bool"
        }
      ],
      "name": "verifyExecuteBishopMove",
      "outputs": [
        {
          "internalType": "uint256",
          "name": "",
          "type": "uint256"
        }
      ],
      "stateMutability": "pure",
      "type": "function"
    },
    {
      "inputs": [
        {
          "internalType": "uint256",
          "name": "gameState",
          "type": "uint256"
        },
        {
          "internalType": "uint8",
          "name": "fromPos",
          "type": "uint8"
        },
        {
          "internalType": "uint8",
          "name": "toPos",
          "type": "uint8"
        },
        {
          "internalType": "bool",
          "name": "currentTurnBlack",
          "type": "bool"
        },
        {
          "internalType": "uint32",
          "name": "playerState",
          "type": "uint32"
        }
      ],
      "name": "verifyExecuteKingMove",
      "outputs": [
        {
          "internalType": "uint256",
          "name": "newGameState",
          "type": "uint256"
        },
        {
          "internalType": "uint32",
          "name": "newPlayerState",
          "type": "uint32"
        }
      ],
      "stateMutability": "pure",
      "type": "function"
    },
    {
      "inputs": [
        {
          "internalType": "uint256",
          "name": "gameState",
          "type": "uint256"
        },
        {
          "internalType": "uint8",
          "name": "fromPos",
          "type": "uint8"
        },
        {
          "internalType": "uint8",
          "name": "toPos",
          "type": "uint8"
        },
        {
          "internalType": "bool",
          "name": "currentTurnBlack",
          "type": "bool"
        }
      ],
      "name": "verifyExecuteKnightMove",
      "outputs": [
        {
          "internalType": "uint256",
          "name": "",
          "type": "uint256"
        }
      ],
      "stateMutability": "pure",
      "type": "function"
    },
    {
      "inputs": [
        {
          "internalType": "uint256",
          "name": "gameState",
          "type": "uint256"
        },
        {
          "internalType": "uint16",
          "name": "move",
          "type": "uint16"
        },
        {
          "internalType": "uint32",
          "name": "playerState",
          "type": "uint32"
        },
        {
          "internalType": "uint32",
          "name": "opponentState",
          "type": "uint32"
        },
        {
          "internalType": "bool",
          "name": "currentTurnBlack",
          "type": "bool"
        }
      ],
      "name": "verifyExecuteMove",
      "outputs": [
        {
          "internalType": "uint256",
          "name": "newGameState",
          "type": "uint256"
        },
        {
          "internalType": "uint32",
          "name": "newPlayerState",
          "type": "uint32"
        },
        {
          "internalType": "uint32",
          "name": "newOpponentState",
          "type": "uint32"
        }
      ],
      "stateMutability": "pure",
      "type": "function"
    },
    {
      "inputs": [
        {
          "internalType": "uint256",
          "name": "gameState",
          "type": "uint256"
        },
        {
          "internalType": "uint8",
          "name": "fromPos",
          "type": "uint8"
        },
        {
          "internalType": "uint8",
          "name": "toPos",
          "type": "uint8"
        },
        {
          "internalType": "uint8",
          "name": "moveExtra",
          "type": "uint8"
        },
        {
          "internalType": "bool",
          "name": "currentTurnBlack",
          "type": "bool"
        },
        {
          "internalType": "uint32",
          "name": "playerState",
          "type": "uint32"
        },
        {
          "internalType": "uint32",
          "name": "opponentState",
          "type": "uint32"
        }
      ],
      "name": "verifyExecutePawnMove",
      "outputs": [
        {
          "internalType": "uint256",
          "name": "newGameState",
          "type": "uint256"
        },
        {
          "internalType": "uint32",
          "name": "newPlayerState",
          "type": "uint32"
        }
      ],
      "stateMutability": "pure",
      "type": "function"
    },
    {
      "inputs": [
        {
          "internalType": "uint256",
          "name": "gameState",
          "type": "uint256"
        },
        {
          "internalType": "uint8",
          "name": "fromPos",
          "type": "uint8"
        },
        {
          "internalType": "uint8",
          "name": "toPos",
          "type": "uint8"
        },
        {
          "internalType": "bool",
          "name": "currentTurnBlack",
          "type": "bool"
        }
      ],
      "name": "verifyExecuteQueenMove",
      "outputs": [
        {
          "internalType": "uint256",
          "name": "",
          "type": "uint256"
        }
      ],
      "stateMutability": "pure",
      "type": "function"
    },
    {
      "inputs": [
        {
          "internalType": "uint256",
          "name": "gameState",
          "type": "uint256"
        },
        {
          "internalType": "uint8",
          "name": "fromPos",
          "type": "uint8"
        },
        {
          "internalType": "uint8",
          "name": "toPos",
          "type": "uint8"
        },
        {
          "internalType": "bool",
          "name": "currentTurnBlack",
          "type": "bool"
        }
      ],
      "name": "verifyExecuteRookMove",
      "outputs": [
        {
          "internalType": "uint256",
          "name": "",
          "type": "uint256"
        }
      ],
      "stateMutability": "pure",
      "type": "function"
    },
    {
      "inputs": [
        {
          "internalType": "uint256",
          "name": "gameState",
          "type": "uint256"
        },
        {
          "internalType": "uint8",
          "name": "pos",
          "type": "uint8"
        }
      ],
      "name": "zeroPosition",
      "outputs": [
        {
          "internalType": "uint256",
          "name": "",
          "type": "uint256"
        }
      ],
      "stateMutability": "pure",
      "type": "function"
    }
  ],
  "bytecode": "0x6080604052348015600f57600080fd5b50612b308061001f6000396000f3fe608060405234801561001057600080fd5b50600436106101da5760003560e01c8063a4a10e0b11610104578063d35f8953116100a2578063ebbb04aa11610071578063ebbb04aa1461044c578063ed977f7b1461045f578063fd997c7214610472578063ff7e513f146104a757600080fd5b8063d35f895314610400578063dc416a2a14610413578063e7f9b59314610426578063eb4850421461043957600080fd5b8063b5511f9c116100de578063b5511f9c14610384578063c5f22a5a14610397578063c668ddb4146103aa578063cf1e5b80146103ed57600080fd5b8063a4a10e0b1461034b578063a72d6d1d1461035e578063ae9be37a1461037157600080fd5b80633d92e6471161017c5780637dfd04e41161014b5780637dfd04e4146102ff5780638a0cb8eb146103125780638ad3b18814610325578063a14e3e861461033857600080fd5b80633d92e647146102b35780634750a939146102c65780635966567f146102d95780636ace1036146102ec57600080fd5b80632ba5c65d116101b85780632ba5c65d1461023b5780632e6daa401461026857806330d6d5491461027b578063385a621c1461028e57600080fd5b806303134e26146101df5780632098b5c0146102055780632b0d8b1f14610218575b600080fd5b6101f26101ed36600461238f565b6104ba565b6040519081526020015b60405180910390f35b6101f26102133660046123c2565b610672565b61022b610226366004612403565b6106ac565b60405190151581526020016101fc565b61024e610249366004612480565b61086d565b6040805192835263ffffffff9091166020830152016101fc565b6101f26102763660046124ff565b610b16565b61022b61028936600461253b565b610b66565b6102a161029c36600461255e565b610c93565b60405160ff90911681526020016101fc565b61022b6102c1366004612591565b610d1b565b6102a16102d436600461238f565b610e21565b61022b6102e73660046125de565b610e6a565b6101f26102fa366004612647565b610f0f565b61022b61030d366004612591565b610fa7565b61022b6103203660046125de565b61103c565b61022b610333366004612591565b6110d2565b6101f2610346366004612647565b6111ca565b6102a161035936600461253b565b611231565b6101f261036c366004612647565b611272565b61022b61037f366004612591565b611302565b6101f2610392366004612647565b61137d565b6101f26103a53660046124ff565b611400565b6103bd6103b8366004612737565b61142f565b6040805160ff9095168552602085019390935263ffffffff918216928401929092521660608201526080016101fc565b61024e6103fb36600461276c565b6114ca565b6102a161040e36600461238f565b6116c9565b6103bd6104213660046127ca565b6116f8565b61022b610434366004612591565b61198a565b6101f261044736600461253b565b611a83565b61022b61045a366004612843565b611ac5565b61022b61046d3660046125de565b611afd565b610485610480366004612866565b611b93565b6040805193845263ffffffff92831660208501529116908201526060016101fc565b61022b6104b53660046128b8565b611e12565b6000806104c784846116c9565b905060006104d58585610e21565b90508060ff168260ff1614806104ec575060ff8216155b806104f8575060ff8116155b61051d5760405162461bcd60e51b8152600401610514906128e0565b60405180910390fd5b600061052886610672565b9050600061053586610672565b905060006105496007808a16908916612922565b90506000610564601f60038b811c821691908b901c16612922565b90506000808360000b13801561057d575060008260000b135b80610599575060008360000b128015610599575060008260000b125b156105a657506024610629565b8260000b60001480156105bd57508160000b600014155b156105ca57506020610629565b60008360000b1380156105e0575060008260000b125b806105fc575060008360000b1280156105fc575060008260000b135b156106095750601c610629565b8260000b60001415801561062057508160000b6000145b15610629575060045b60005b8585146106625784861015610649578160ff1686901b9550610653565b8160ff1686901c95505b85851461065d5785175b61062c565b9750505050505050505b92915050565b6000610682600783166004612943565b610694601f600385901c166020612943565b61069e9190612966565b60ff16600f901b9050919050565b6000600461ffff831611156107525760006106c8600284612995565b905060001961ffff82161b196000816106e184886129b9565b61ffff168b901c1690508015610719576107088a8a8a8a610702888c6129b9565b886106ac565b156107195760019350505050610863565b61ffff86168a901c82168015610749576107378b8b8b8b8b896106ac565b15610749576001945050505050610863565b5050505061085f565b600f61ffff841688901c16801580159061077157506008811660ff8616145b1561085d576000610783600486612995565b905060ff86161515600783166006811480156107a657506107a68b848c8561198a565b806107c7575060ff811660011480156107c757506107c78b848c8c86611e12565b806107e7575060ff811660031480156107e757506107e78b848c85610d1b565b80610807575060ff8116600414801561080757506108078b848c85610fa7565b80610827575060ff8116600214801561082757506108278b848c85611302565b80610847575060ff8116600514801561084757506108478b848c856110d2565b15610859576001945050505050610863565b5050505b505b5060005b9695505050505050565b60008284151560ff808a16908916101461088e575060001990506000610b0a565b60008760ff168960ff16116108ac576108a789896129d3565b6108b6565b6108b6888a6129d3565b905060006108c48b8a611231565b90508160ff16600814806108db57508160ff166010145b156109ac5760ff8116156108f9576000196000935093505050610b0a565b8160ff166010036109a75786801561091957506006601f60038c901c1614155b8061093557508615801561093557506001601f60038c901c1614155b1561094a576000196000935093505050610b0a565b60008a60ff168a60ff1611610969576109648a6008612966565b610974565b6109748b6008612966565b90506109808c82611231565b60ff161561099957600019600094509450505050610b0a565b8060ff1660ff198516179350505b610a32565b8160ff16600714806109c157508160ff166009145b15610a22576109d08a8a610e21565b60ff166001146109ea576000196000935093505050610b0a565b60ff858116908a16146109a75760ff81161580610a0d5750861515600882811614145b156109a7576000196000935093505050610b0a565b6000196000935093505050610b0a565b610a3d8b8b8b611400565b9350868015610a515750601f60038a901c16155b80610a6c575086158015610a6c57506007601f60038b901c16145b15610b075760ff881660021480610a86575060ff88166003145b80610a94575060ff88166004145b80610aa2575060ff88166005145b610ae25760405162461bcd60e51b815260206004820152601160248201527024b73b30b634b210383937b6b7ba34b7b760791b6044820152606401610514565b610b04610aef858b611a83565b8a89610afb578a610b16565b60088b17610b16565b93505b50505b97509795505050505050565b600060408360ff1610610b3b5760405162461bcd60e51b8152600401610514906129ec565b6000610b48600485612943565b600f60ff91821690811b198716918516901b179150505b9392505050565b600080610b74600484612943565b60ff1684901c600f1690506000806008831660ff1611610b95576008610b98565b60005b6001179050600060088316610bae576008610bb1565b60005b6002179050600060088416610bc7576008610bca565b60005b6003179050600060088516610be0576008610be3565b60005b6004179050600060088616610bf9576008610bfc565b60005b6005179050600060088716610c12576008610c15565b60005b60061790506000610c298b8b868686611f35565b80610c3d5750610c3d8b8b8886868c61209f565b80610c4e5750610c4e8b8b876121c1565b905080610662576000610c678c8c60088c16151561229c565b90508015610c81576001995050505050505050505061066c565b6000995050505050505050505061066c565b6000600883901c62ffffff16600684811c60fc1686901c600f811691600790911614610cc157610cc1612a32565b6000610cd78787876008861660006101006106ac565b9050610ce38787611ac5565b15610d015780610cf4576002610cf7565b60005b9350505050610b5f565b80610d0d576001610d10565b60005b979650505050505050565b6040805161010081018252600681526005196020820152600a9181019190915260091960608201526011608082015260101960a0820152600f60c0820152600e1960e0820152600090819062ffffff600886901c1690825b60088160ff161015610e10576000828260ff1660088110610d9657610d96612a48565b6020020151610da5908a612a5e565b905060008160000b12158015610dbe575060408160000b125b15610dfd57610dcf8a8a838a611272565b94506000198514158015610dea5750610de88585610b66565b155b15610dfd57600195505050505050610e19565b5080610e0881612a7f565b915050610d73565b50600093505050505b949350505050565b6000600382811c601f9081169185901c1611610e5357610e4e601f600385811c8216919085901c166129d3565b610b5f565b610b5f601f600384811c8216919086901c166129d3565b60008080610e788789612a5e565b90505b6007811660ff871614801590610e94575060408160ff16105b8015610e9e575060015b15610f0057610eaf89898387610f0f565b91506000198214158015610eca5750610ec88286610b66565b155b15610eda57600192505050610863565b600f60fc600283901b168a901c16600003610f0057610ef98782612a5e565b9050610e7b565b50600098975050505050505050565b600080610f1c8685611231565b905060ff811615610f405782151560088281161403610f4057600019915050610e19565b6000610f4c86866116c9565b90506000610f5a8787610e21565b905060ff828116151590821615151480610f7e5750610f7987876104ba565b881615155b15610f90576000199350505050610e19565b610f9b888888611400565b98975050505050505050565b600062ffffff600884901c16610fc38686600019858588610e6a565b15610fd2576001915050610e19565b610fe28686600160078588610e6a565b15610ff1576001915050610e19565b6110018686600860408588610e6a565b15611010576001915050610e19565b611021868660071960408588610e6a565b15611030576001915050610e19565b50600095945050505050565b6000808061104a8789612a5e565b90505b6007811660ff871614801590611066575060408160ff16105b8015611070575060015b15610f00576110818989838761137d565b9150600019821415801561109c575061109a8286610b66565b155b156110ac57600192505050610863565b600f60fc600283901b168a901c16600003610f00576110cb8782612a5e565b905061104d565b600062ffffff600884901c166110ee868660001985858861103c565b156110fd576001915050610e19565b61110d868660016007858861103c565b1561111c576001915050610e19565b61112c868660086040858861103c565b1561113b576001915050610e19565b61114c86866007196040858861103c565b1561115b576001915050610e19565b61116b868660096007858861103c565b1561117a576001915050610e19565b61118a868660076000858861103c565b15611199576001915050610e19565b6111aa86866006196007858861103c565b156111b9576001915050610e19565b61102186866008196000858861103c565b6000806111d78685611231565b905060ff8116156111fb57821515600882811614036111fb57600019915050610e19565b600061120786866116c9565b905060006112158787610e21565b90508060ff168260ff16141580610f7e5750610f7987876104ba565b600060408260ff16106112565760405162461bcd60e51b8152600401610514906129ec565b611261600483612943565b60ff1683901c600f16905092915050565b60008061127f8685611231565b905060ff8116156112a357821515600882811614036112a357600019915050610e19565b60006112af86866116c9565b905060006112bd8787610e21565b90508160ff1660021480156112d557508060ff166001145b806112f157508160ff1660011480156112f157508060ff166002145b610f90576000199350505050610e19565b600062ffffff600884901c1661131e8686600960078588611afd565b1561132d576001915050610e19565b61133d8686600760008588611afd565b1561134c576001915050610e19565b61135d868660061960078588611afd565b1561136c576001915050610e19565b611021868660081960008588611afd565b60008061138a8685611231565b905060ff8116156113ae57821515600882811614036113ae57600019915050610e19565b60006113ba86866116c9565b905060006113c88787610e21565b90508060ff168260ff16141580156113e2575060ff821615155b80156113f0575060ff811615155b80610f7e5750610f7987876104ba565b60008061140e600485612943565b600f60ff821681811b19881694509192509086901c16610863838583610b16565b60008060008060008551116114865760405162461bcd60e51b815260206004820152601b60248201527f4d6f7665732061727261792063616e6e6f7420626520656d70747900000000006044820152606401610514565b6114bb7fcbaedabc99999999000000000000000000000000000000001111111143265234620704ff63383f3cff6000896116f8565b93509350935093509193509193565b60006380800000821763ffff00ff1661ff00600886901b1617816114ee8887611231565b905060ff8116156115125784151560088281161403611512576000199250506116bf565b60408660ff16101580611529575060408760ff1610155b15611539576000199250506116bf565b600061154588886116c9565b905060006115538989610e21565b905060018260ff161115801561156d575060018160ff1611155b156115875761157d8a8a8a611400565b94505050506116bf565b8160ff16600214801561159b575060ff8116155b156116b2576115aa8a8a610b66565b6116b25760ff601887901c81169089166115c5826002612966565b60ff1603611639578a6115d8828c6104ba565b16600003611634576115f08b8b6103a56001826129d3565b95506116018661028960018d6129d3565b6116345761162961161d8761161760018e6129d3565b8c611400565b826103a560018e6129d3565b9550505050506116bf565b6116b0565b50601086901c61ffff1660ff89166116526001836129d3565b60ff16036116b0578a611665828c6104ba565b166000036116b05761167d8b8b6103a5816001612966565b955061168e866102898c6001612966565b6116b0576116296116a4876116178d6001612966565b826103a58d6001612966565b505b6000196000945094505050505b9550959350505050565b60006007808316908416116116e857610e4e60078085169084166129d3565b610b5f60078084169085166129d3565b805160009086908690869086906117475760405162461bcd60e51b8152602060048201526013602482015272496e76616c6964206d6f76657320617272617960681b6044820152606401610514565b61200061ffff16866001885161175d9190612a9e565b8151811061176d5761176d612a48565b602002602001015161ffff1603611847576002865110156117c85760405162461bcd60e51b8152602060048201526015602482015274496e76616c696420647261772073657175656e636560581b6044820152606401610514565b61100061ffff1686600288516117de9190612a9e565b815181106117ee576117ee612a48565b602002602001015161ffff161461183e5760405162461bcd60e51b8152602060048201526014602482015273125b9d985b1a5908191c985dc81c995c5d595cdd60621b6044820152606401610514565b6001945061197d565b61300061ffff16866001885161185d9190612a9e565b8151811061186d5761186d612a48565b602002602001015161ffff16036118a8578015156002875161188f9190612ab1565b6001140361189e5760026118a1565b60035b945061197d565b60005b865181101561193a576118da858883815181106118ca576118ca612a48565b6020026020010151868686611b93565b91965090945092506118ec8584611ac5565b1561192f5760405162461bcd60e51b8152602060048201526013602482015272496e76616c696420636865636b20737461746560681b6044820152606401610514565b9015906001016118ab565b506000611948858585610c93565b90508060ff1660020361196b5781611961576003611964565b60025b955061197b565b8060ff1660010361197b57600195505b505b5095509550955095915050565b60408051610100810182526008198152600719602082015260061991810191909152600019606082015260016080820152600760a0820152600860c0820152600960e08201526000908190815b60088160ff161015611a75576000828260ff16600881106119fa576119fa612a48565b6020020151611a099089612a5e565b905060008160000b12158015611a22575060408160000b125b15611a6257611a34898983898b6114ca565b5093506000198414801590611a505750611a4e8482610b66565b155b15611a62576001945050505050610e19565b5080611a6d81612a7f565b9150506119d7565b506000979650505050505050565b600060408260ff1610611aa85760405162461bcd60e51b8152600401610514906129ec565b611ab3600483612943565b60ff16600f901b198316905092915050565b600062ffffff600883901c166007611add8583611231565b1660ff16600660ff1614611af357611af3612a32565b610e198482610b66565b60008080611b0b8789612a5e565b90505b6007811660ff871614801590611b27575060408160ff16105b8015611b31575060015b15610f0057611b42898983876111ca565b91506000198214158015611b5d5750611b5b8286610b66565b155b15611b6d57600192505050610863565b600f60fc600283901b168a901c16600003610f0057611b8c8782612a5e565b9050611b0e565b60008080603f600688901c8116908816808203611bf25760405162461bcd60e51b815260206004820152601c60248201527f496e76616c6964206d6f76653a207374616c6520706f736974696f6e000000006044820152606401610514565b6000611bfe8b84611231565b905060088116151587151514611c625760405162461bcd60e51b815260206004820152602360248201527f496e76616c6964206d6f76653a20696e636f727265637420706965636520636f6044820152623637b960e91b6064820152608401610514565b889450879350600781166000198101611c9657611c8c8c8585600c8f61ffff16901c8c8f8f61086d565b9097509550611d71565b60021960ff821601611cb557611cae8c85858b611272565b9650611d71565b60011960ff821601611ccd57611cae8c85858b6111ca565b60031960ff821601611d2557611ce58c85858b610f0f565b965060ff60108b901c811690851603611d0557628000008a179550611d71565b60ff60188b901c811690851603611d205763800000008a1795505b611d71565b60041960ff821601611d3d57611cae8c85858b61137d565b60051960ff821601611d5657611c8c8c85858b8e6114ca565b80604051630d94b47960e21b81526004016105149190612ac5565b6000198703611dc25760405162461bcd60e51b815260206004820152601860248201527f496e76616c6964206d6f76653a2067616d6520737461746500000000000000006044820152606401610514565b60ff89811690841603611dfd578715611deb57611de487610447856008612966565b9650611dfd565b611dfa876104476008866129d3565b96505b60ff8917945050505050955095509592505050565b600080600562ffffff600887901c168285611e515760408051608081018252600781526008602082015260099181019190915260106060820152611e7b565b604080516080810182526006198152600719602082015260081991810191909152600f1960608201525b905060005b60048160ff161015611f22576000828260ff1660048110611ea357611ea3612a48565b6020020151611eb2908c612a5e565b905060008160000b12158015611ecb575060408160000b125b15611f0f57611edf8c8c83888c8f8f61086d565b5095506000198614801590611efb5750611ef98685610b66565b155b15611f0f5760019650505050505050611f2c565b5080611f1a81612a7f565b915050611e80565b5060009450505050505b95945050505050565b604080516080810182526008815260071960208201526001918101919091526000196060820152600090815b60048160ff161015611a75576001875b838360ff1660048110611f8657611f86612a48565b6020020151611f959082612a5e565b905060008160000b1280611fad575060408160000b12155b806120145750838360ff1660048110611fc857611fc8612a48565b602002015160000b60011480611ffb5750838360ff1660048110611fee57611fee612a48565b602002015160000b600019145b80156120145750600381811c601f908116918b901c1614155b61208a576000612025600483612943565b60ff168b901c600f1690508015612080578860ff168160ff16148061204f57508760ff168160ff16145b80612067575082801561206757508660ff168160ff16145b1561207a57600195505050505050611f2c565b5061208a565b6000925050611f71565b5050808061209790612a7f565b915050611f61565b604080516080810182526009815260076020820152600619918101919091526008196060820152600090815b60048160ff161015610f00576001885b838360ff16600481106120f0576120f0612a48565b60200201516120ff9082612a5e565b905060008160000b1280612117575060408160000b12155b6121ac576000612128600483612943565b60ff168c901c600f16905080156121a2578960ff168160ff16148061215257508860ff168160ff16145b80612189575082801561218957508760ff168160ff16148061218957508660ff168160ff1614801561218957506008878116908216145b1561219c57600195505050505050610863565b506121ac565b60009250506120db565b505080806121b990612a7f565b9150506120cb565b604080516101008101825260118152600f6020820152600a9181019190915260066060820152600519608082015260091960a0820152600e1960c082015260101960e0820152600090815b60088160ff161015611030576000828260ff166008811061222f5761222f612a48565b602002015161223e9087612a5e565b905060008160000b12158015612257575060408160000b125b8015612278575060ff851661226d600483612943565b60ff1688901c600f16145b156122895760019350505050610b5f565b508061229481612a7f565b91505061220c565b600080826122ab57600e6122ae565b60065b9050601f600385901c166007851660005b60408160ff161015611a755760006122d8600483612943565b600f60ff9182168b901c1691508516810361237057601f600383901c1660078316600160ff871683116123145761230f83886129d3565b61231e565b61231e87846129d3565b60ff1611158015612358575060018560ff168260ff16116123485761234382876129d3565b612352565b61235286836129d3565b60ff1611155b1561236d576001975050505050505050610b5f565b50505b506001016122bf565b803560ff8116811461238a57600080fd5b919050565b600080604083850312156123a257600080fd5b6123ab83612379565b91506123b960208401612379565b90509250929050565b6000602082840312156123d457600080fd5b610b5f82612379565b803563ffffffff8116811461238a57600080fd5b803561ffff8116811461238a57600080fd5b60008060008060008060c0878903121561241c57600080fd5b8635955061242c602088016123dd565b945061243a604088016123dd565b935061244860608801612379565b9250612456608088016123f1565b915061246460a088016123f1565b90509295509295509295565b8035801515811461238a57600080fd5b600080600080600080600060e0888a03121561249b57600080fd5b873596506124ab60208901612379565b95506124b960408901612379565b94506124c760608901612379565b93506124d560808901612470565b92506124e360a089016123dd565b91506124f160c089016123dd565b905092959891949750929550565b60008060006060848603121561251457600080fd5b8335925061252460208501612379565b915061253260408501612379565b90509250925092565b6000806040838503121561254e57600080fd5b823591506123b960208401612379565b60008060006060848603121561257357600080fd5b83359250612583602085016123dd565b9150612532604085016123dd565b600080600080608085870312156125a757600080fd5b843593506125b760208601612379565b92506125c5604086016123dd565b91506125d360608601612470565b905092959194509250565b60008060008060008060c087890312156125f757600080fd5b8635955061260760208801612379565b945060408701358060000b811461261d57600080fd5b935061262b60608801612379565b925061263960808801612379565b915061246460a08801612470565b6000806000806080858703121561265d57600080fd5b8435935061266d60208601612379565b92506125c560408601612379565b634e487b7160e01b600052604160045260246000fd5b600082601f8301126126a257600080fd5b813567ffffffffffffffff8111156126bc576126bc61267b565b8060051b604051601f19603f830116810181811067ffffffffffffffff821117156126e9576126e961267b565b60405291825260208185018101929081018684111561270757600080fd5b6020860192505b8383101561272d5761271f836123f1565b81526020928301920161270e565b5095945050505050565b60006020828403121561274957600080fd5b813567ffffffffffffffff81111561276057600080fd5b610e1984828501612691565b600080600080600060a0868803121561278457600080fd5b8535945061279460208701612379565b93506127a260408701612379565b92506127b060608701612470565b91506127be608087016123dd565b90509295509295909350565b600080600080600060a086880312156127e257600080fd5b853594506127f2602087016123dd565b9350612800604087016123dd565b925061280e60608701612470565b9150608086013567ffffffffffffffff81111561282a57600080fd5b61283688828901612691565b9150509295509295909350565b6000806040838503121561285657600080fd5b823591506123b9602084016123dd565b600080600080600060a0868803121561287e57600080fd5b8535945061288e602087016123f1565b935061289c604087016123dd565b92506128aa606087016123dd565b91506127be60808701612470565b600080600080600060a086880312156128d057600080fd5b8535945061288e60208701612379565b60208152600061066c60208301600c81526b496e76616c6964206d6f766560a01b602082015260400190565b634e487b7160e01b600052601160045260246000fd5b600082810b9082900b03607f198112607f8213171561066c5761066c61290c565b60ff818116838216029081169081811461295f5761295f61290c565b5092915050565b60ff818116838216019081111561066c5761066c61290c565b634e487b7160e01b600052601260045260246000fd5b600061ffff8316806129a9576129a961297f565b8061ffff84160491505092915050565b61ffff818116838216019081111561066c5761066c61290c565b60ff828116828216039081111561066c5761066c61290c565b60208082526026908201527f496e76616c696420706f736974696f6e3a206578636565647320626f617264206040820152656c696d69747360d01b606082015260800190565b634e487b7160e01b600052600160045260246000fd5b634e487b7160e01b600052603260045260246000fd5b600081810b9083900b01607f8113607f198212171561066c5761066c61290c565b600060ff821660ff8103612a9557612a9561290c565b60010192915050565b8181038181111561066c5761066c61290c565b600082612ac057612ac061297f565b500690565b60ff82168152604060208201526000610b5f60408301600c81526b496e76616c6964206d6f766560a01b60208201526040019056fea26469706673582212205af45379f0ed80f88a503623b476a6982d44a983a0fa87123dc425c60aab00a464736f6c634300081b0033",
  "linkReferences": {},
  "deployedLinkReferences": {}
}