{
  "_format": "hh-sol-artifact-1",
  "contractName": "ChessTemplate",
  "sourceName": "contracts/ChessTemplate.sol",
  "abi": [
    {
      "inputs": [],
      "stateMutability": "nonpayable",
      "type": "constructor"
    },
    {
      "inputs": [],
      "name": "AlreadyInitialized",
      "type": "error"
    },
    {
      "inputs": [],
      "name": "DrawAlreadyProposed",
      "type": "error"
    },
    {
      "inputs": [],
      "name": "EmptyMovesArray",
      "type": "error"
    },
    {
      "inputs": [],
      "name": "GameAlreadyActive",
      "type": "error"
    },
    {
      "inputs": [],
      "name": "GameNotActive",
      "type": "error"
    },
    {
      "inputs": [],
      "name": "InvalidChessFactory",
      "type": "error"
    },
    {
      "inputs": [],
      "name": "InvalidPlayers",
      "type": "error"
    },
    {
      "inputs": [],
      "name": "NotParticipant",
      "type": "error"
    },
    {
      "inputs": [],
      "name": "NotYourTurn",
      "type": "error"
    },
    {
      "inputs": [],
      "name": "OnlyChessFactory",
      "type": "error"
    },
    {
      "inputs": [
        {
          "internalType": "address",
          "name": "owner",
          "type": "address"
        }
      ],
      "name": "OwnableInvalidOwner",
      "type": "error"
    },
    {
      "inputs": [
        {
          "internalType": "address",
          "name": "account",
          "type": "address"
        }
      ],
      "name": "OwnableUnauthorizedAccount",
      "type": "error"
    },
    {
      "inputs": [],
      "name": "PlayersNotRegistered",
      "type": "error"
    },
    {
      "inputs": [],
      "name": "ProposerCannotAccept",
      "type": "error"
    },
    {
      "inputs": [],
      "name": "ReentrancyGuardReentrantCall",
      "type": "error"
    },
    {
      "inputs": [],
      "name": "TimeoutNotPassed",
      "type": "error"
    },
    {
      "inputs": [
        {
          "internalType": "uint8",
          "name": "fromType",
          "type": "uint8"
        },
        {
          "internalType": "string",
          "name": "message",
          "type": "string"
        }
      ],
      "name": "UnsupportedPieceType",
      "type": "error"
    },
    {
      "anonymous": false,
      "inputs": [
        {
          "indexed": true,
          "internalType": "address",
          "name": "proposer",
          "type": "address"
        },
        {
          "indexed": true,
          "internalType": "address",
          "name": "accepter",
          "type": "address"
        }
      ],
      "name": "DrawAccepted",
      "type": "event"
    },
    {
      "anonymous": false,
      "inputs": [
        {
          "indexed": true,
          "internalType": "address",
          "name": "proposer",
          "type": "address"
        }
      ],
      "name": "DrawProposed",
      "type": "event"
    },
    {
      "anonymous": false,
      "inputs": [
        {
          "indexed": true,
          "internalType": "address",
          "name": "loser",
          "type": "address"
        },
        {
          "indexed": true,
          "internalType": "address",
          "name": "winner",
          "type": "address"
        }
      ],
      "name": "GameAbandoned",
      "type": "event"
    },
    {
      "anonymous": false,
      "inputs": [
        {
          "indexed": false,
          "internalType": "uint16",
          "name": "outcome",
          "type": "uint16"
        },
        {
          "indexed": true,
          "internalType": "address",
          "name": "winner",
          "type": "address"
        }
      ],
      "name": "GameEnded",
      "type": "event"
    },
    {
      "anonymous": false,
      "inputs": [
        {
          "indexed": true,
          "internalType": "address",
          "name": "winner",
          "type": "address"
        },
        {
          "indexed": true,
          "internalType": "address",
          "name": "loser",
          "type": "address"
        }
      ],
      "name": "GameEndedForTimeout",
      "type": "event"
    },
    {
      "anonymous": false,
      "inputs": [
        {
          "indexed": true,
          "internalType": "address",
          "name": "player1",
          "type": "address"
        },
        {
          "indexed": true,
          "internalType": "address",
          "name": "player2",
          "type": "address"
        }
      ],
      "name": "GameForcedDraw",
      "type": "event"
    },
    {
      "anonymous": false,
      "inputs": [
        {
          "indexed": false,
          "internalType": "uint256",
          "name": "betAmount",
          "type": "uint256"
        }
      ],
      "name": "GameStarted",
      "type": "event"
    },
    {
      "anonymous": false,
      "inputs": [
        {
          "indexed": true,
          "internalType": "address",
          "name": "player",
          "type": "address"
        },
        {
          "indexed": false,
          "internalType": "uint16[]",
          "name": "moves",
          "type": "uint16[]"
        }
      ],
      "name": "MovePlayed",
      "type": "event"
    },
    {
      "anonymous": false,
      "inputs": [
        {
          "indexed": true,
          "internalType": "address",
          "name": "previousOwner",
          "type": "address"
        },
        {
          "indexed": true,
          "internalType": "address",
          "name": "newOwner",
          "type": "address"
        }
      ],
      "name": "OwnershipTransferred",
      "type": "event"
    },
    {
      "anonymous": false,
      "inputs": [
        {
          "indexed": true,
          "internalType": "address",
          "name": "previousPlayer1",
          "type": "address"
        },
        {
          "indexed": true,
          "internalType": "address",
          "name": "newPlayer1",
          "type": "address"
        }
      ],
      "name": "Player1Set",
      "type": "event"
    },
    {
      "anonymous": false,
      "inputs": [
        {
          "indexed": true,
          "internalType": "address",
          "name": "previousPlayer2",
          "type": "address"
        },
        {
          "indexed": true,
          "internalType": "address",
          "name": "newPlayer2",
          "type": "address"
        }
      ],
      "name": "Player2Set",
      "type": "event"
    },
    {
      "inputs": [],
      "name": "BET_AMOUNT",
      "outputs": [
        {
          "internalType": "uint256",
          "name": "",
          "type": "uint256"
        }
      ],
      "stateMutability": "view",
      "type": "function"
    },
    {
      "inputs": [],
      "name": "DRAW_REWARD",
      "outputs": [
        {
          "internalType": "uint256",
          "name": "",
          "type": "uint256"
        }
      ],
      "stateMutability": "view",
      "type": "function"
    },
    {
      "inputs": [],
      "name": "MOVE_TIMEOUT",
      "outputs": [
        {
          "internalType": "uint256",
          "name": "",
          "type": "uint256"
        }
      ],
      "stateMutability": "view",
      "type": "function"
    },
    {
      "inputs": [],
      "name": "PLATFORM_FEE",
      "outputs": [
        {
          "internalType": "uint256",
          "name": "",
          "type": "uint256"
        }
      ],
      "stateMutability": "view",
      "type": "function"
    },
    {
      "inputs": [],
      "name": "WINNER_REWARD",
      "outputs": [
        {
          "internalType": "uint256",
          "name": "",
          "type": "uint256"
        }
      ],
      "stateMutability": "view",
      "type": "function"
    },
    {
      "inputs": [],
      "name": "abandon",
      "outputs": [],
      "stateMutability": "nonpayable",
      "type": "function"
    },
    {
      "inputs": [],
      "name": "abandoner",
      "outputs": [
        {
          "internalType": "address",
          "name": "",
          "type": "address"
        }
      ],
      "stateMutability": "view",
      "type": "function"
    },
    {
      "inputs": [],
      "name": "acceptDraw",
      "outputs": [],
      "stateMutability": "nonpayable",
      "type": "function"
    },
    {
      "inputs": [
        {
          "internalType": "uint256",
          "name": "gameState",
          "type": "uint256"
        },
        {
          "internalType": "uint8",
          "name": "fromPos",
          "type": "uint8"
        },
        {
          "internalType": "uint32",
          "name": "playerState",
          "type": "uint32"
        },
        {
          "internalType": "bool",
          "name": "currentTurnBlack",
          "type": "bool"
        }
      ],
      "name": "checkBishopValidMoves",
      "outputs": [
        {
          "internalType": "bool",
          "name": "",
          "type": "bool"
        }
      ],
      "stateMutability": "pure",
      "type": "function"
    },
    {
      "inputs": [
        {
          "internalType": "uint256",
          "name": "gameState",
          "type": "uint256"
        },
        {
          "internalType": "uint8",
          "name": "fromPos",
          "type": "uint8"
        },
        {
          "internalType": "int8",
          "name": "step",
          "type": "int8"
        },
        {
          "internalType": "uint8",
          "name": "limitCheck",
          "type": "uint8"
        },
        {
          "internalType": "uint8",
          "name": "kingPos",
          "type": "uint8"
        },
        {
          "internalType": "bool",
          "name": "currentTurnBlack",
          "type": "bool"
        }
      ],
      "name": "checkDirectionBishop",
      "outputs": [
        {
          "internalType": "bool",
          "name": "",
          "type": "bool"
        }
      ],
      "stateMutability": "pure",
      "type": "function"
    },
    {
      "inputs": [
        {
          "internalType": "uint256",
          "name": "gameState",
          "type": "uint256"
        },
        {
          "internalType": "uint8",
          "name": "fromPos",
          "type": "uint8"
        },
        {
          "internalType": "int8",
          "name": "step",
          "type": "int8"
        },
        {
          "internalType": "uint8",
          "name": "limitCheck",
          "type": "uint8"
        },
        {
          "internalType": "uint8",
          "name": "kingPos",
          "type": "uint8"
        },
        {
          "internalType": "bool",
          "name": "currentTurnBlack",
          "type": "bool"
        }
      ],
      "name": "checkDirectionQueen",
      "outputs": [
        {
          "internalType": "bool",
          "name": "",
          "type": "bool"
        }
      ],
      "stateMutability": "pure",
      "type": "function"
    },
    {
      "inputs": [
        {
          "internalType": "uint256",
          "name": "gameState",
          "type": "uint256"
        },
        {
          "internalType": "uint8",
          "name": "fromPos",
          "type": "uint8"
        },
        {
          "internalType": "int8",
          "name": "step",
          "type": "int8"
        },
        {
          "internalType": "uint8",
          "name": "limitCheck",
          "type": "uint8"
        },
        {
          "internalType": "uint8",
          "name": "kingPos",
          "type": "uint8"
        },
        {
          "internalType": "bool",
          "name": "currentTurnBlack",
          "type": "bool"
        }
      ],
      "name": "checkDirectionRook",
      "outputs": [
        {
          "internalType": "bool",
          "name": "",
          "type": "bool"
        }
      ],
      "stateMutability": "pure",
      "type": "function"
    },
    {
      "inputs": [
        {
          "internalType": "uint256",
          "name": "gameState",
          "type": "uint256"
        },
        {
          "internalType": "uint32",
          "name": "playerState",
          "type": "uint32"
        },
        {
          "internalType": "uint32",
          "name": "opponentState",
          "type": "uint32"
        }
      ],
      "name": "checkEndgame",
      "outputs": [
        {
          "internalType": "uint8",
          "name": "",
          "type": "uint8"
        }
      ],
      "stateMutability": "pure",
      "type": "function"
    },
    {
      "inputs": [
        {
          "internalType": "uint256",
          "name": "gameState",
          "type": "uint256"
        },
        {
          "internalType": "uint32",
          "name": "playerState",
          "type": "uint32"
        }
      ],
      "name": "checkForCheck",
      "outputs": [
        {
          "internalType": "bool",
          "name": "",
          "type": "bool"
        }
      ],
      "stateMutability": "pure",
      "type": "function"
    },
    {
      "inputs": [
        {
          "internalType": "uint256",
          "name": "startingGameState",
          "type": "uint256"
        },
        {
          "internalType": "uint32",
          "name": "startingPlayerState",
          "type": "uint32"
        },
        {
          "internalType": "uint32",
          "name": "startingOpponentState",
          "type": "uint32"
        },
        {
          "internalType": "bool",
          "name": "startingTurnBlack",
          "type": "bool"
        },
        {
          "internalType": "uint16[]",
          "name": "moves",
          "type": "uint16[]"
        }
      ],
      "name": "checkGame",
      "outputs": [
        {
          "internalType": "uint8",
          "name": "outcome",
          "type": "uint8"
        },
        {
          "internalType": "uint256",
          "name": "gameState",
          "type": "uint256"
        },
        {
          "internalType": "uint32",
          "name": "playerState",
          "type": "uint32"
        },
        {
          "internalType": "uint32",
          "name": "opponentState",
          "type": "uint32"
        }
      ],
      "stateMutability": "pure",
      "type": "function"
    },
    {
      "inputs": [
        {
          "internalType": "uint16[]",
          "name": "moves",
          "type": "uint16[]"
        }
      ],
      "name": "checkGameFromStart",
      "outputs": [
        {
          "internalType": "uint8",
          "name": "",
          "type": "uint8"
        },
        {
          "internalType": "uint256",
          "name": "",
          "type": "uint256"
        },
        {
          "internalType": "uint32",
          "name": "",
          "type": "uint32"
        },
        {
          "internalType": "uint32",
          "name": "",
          "type": "uint32"
        }
      ],
      "stateMutability": "pure",
      "type": "function"
    },
    {
      "inputs": [
        {
          "internalType": "uint256",
          "name": "gameState",
          "type": "uint256"
        },
        {
          "internalType": "uint8",
          "name": "fromPos",
          "type": "uint8"
        },
        {
          "internalType": "uint32",
          "name": "playerState",
          "type": "uint32"
        },
        {
          "internalType": "bool",
          "name": "currentTurnBlack",
          "type": "bool"
        }
      ],
      "name": "checkKingValidMoves",
      "outputs": [
        {
          "internalType": "bool",
          "name": "",
          "type": "bool"
        }
      ],
      "stateMutability": "pure",
      "type": "function"
    },
    {
      "inputs": [
        {
          "internalType": "uint256",
          "name": "gameState",
          "type": "uint256"
        },
        {
          "internalType": "uint8",
          "name": "fromPos",
          "type": "uint8"
        },
        {
          "internalType": "uint32",
          "name": "playerState",
          "type": "uint32"
        },
        {
          "internalType": "bool",
          "name": "currentTurnBlack",
          "type": "bool"
        }
      ],
      "name": "checkKnightValidMoves",
      "outputs": [
        {
          "internalType": "bool",
          "name": "",
          "type": "bool"
        }
      ],
      "stateMutability": "pure",
      "type": "function"
    },
    {
      "inputs": [
        {
          "internalType": "uint256",
          "name": "gameState",
          "type": "uint256"
        },
        {
          "internalType": "uint8",
          "name": "fromPos",
          "type": "uint8"
        },
        {
          "internalType": "uint32",
          "name": "playerState",
          "type": "uint32"
        },
        {
          "internalType": "uint32",
          "name": "opponentState",
          "type": "uint32"
        },
        {
          "internalType": "bool",
          "name": "currentTurnBlack",
          "type": "bool"
        }
      ],
      "name": "checkPawnValidMoves",
      "outputs": [
        {
          "internalType": "bool",
          "name": "",
          "type": "bool"
        }
      ],
      "stateMutability": "pure",
      "type": "function"
    },
    {
      "inputs": [
        {
          "internalType": "uint256",
          "name": "gameState",
          "type": "uint256"
        },
        {
          "internalType": "uint8",
          "name": "fromPos",
          "type": "uint8"
        },
        {
          "internalType": "uint32",
          "name": "playerState",
          "type": "uint32"
        },
        {
          "internalType": "bool",
          "name": "currentTurnBlack",
          "type": "bool"
        }
      ],
      "name": "checkQueenValidMoves",
      "outputs": [
        {
          "internalType": "bool",
          "name": "",
          "type": "bool"
        }
      ],
      "stateMutability": "pure",
      "type": "function"
    },
    {
      "inputs": [
        {
          "internalType": "uint256",
          "name": "gameState",
          "type": "uint256"
        },
        {
          "internalType": "uint8",
          "name": "fromPos",
          "type": "uint8"
        },
        {
          "internalType": "uint32",
          "name": "playerState",
          "type": "uint32"
        },
        {
          "internalType": "bool",
          "name": "currentTurnBlack",
          "type": "bool"
        }
      ],
      "name": "checkRookValidMoves",
      "outputs": [
        {
          "internalType": "bool",
          "name": "",
          "type": "bool"
        }
      ],
      "stateMutability": "pure",
      "type": "function"
    },
    {
      "inputs": [],
      "name": "chessFactory",
      "outputs": [
        {
          "internalType": "contract IChessFactory",
          "name": "",
          "type": "address"
        }
      ],
      "stateMutability": "view",
      "type": "function"
    },
    {
      "inputs": [
        {
          "internalType": "uint256",
          "name": "gameState",
          "type": "uint256"
        },
        {
          "internalType": "uint8",
          "name": "fromPos",
          "type": "uint8"
        },
        {
          "internalType": "uint8",
          "name": "toPos",
          "type": "uint8"
        }
      ],
      "name": "commitMove",
      "outputs": [
        {
          "internalType": "uint256",
          "name": "newGameState",
          "type": "uint256"
        }
      ],
      "stateMutability": "pure",
      "type": "function"
    },
    {
      "inputs": [],
      "name": "drawProposed",
      "outputs": [
        {
          "internalType": "bool",
          "name": "",
          "type": "bool"
        }
      ],
      "stateMutability": "view",
      "type": "function"
    },
    {
      "inputs": [],
      "name": "forceDrawDueToTimeout",
      "outputs": [],
      "stateMutability": "nonpayable",
      "type": "function"
    },
    {
      "inputs": [],
      "name": "forceWinDueToTimeout",
      "outputs": [],
      "stateMutability": "nonpayable",
      "type": "function"
    },
    {
      "inputs": [],
      "name": "gameActive",
      "outputs": [
        {
          "internalType": "bool",
          "name": "",
          "type": "bool"
        }
      ],
      "stateMutability": "view",
      "type": "function"
    },
    {
      "inputs": [],
      "name": "getGameState",
      "outputs": [
        {
          "internalType": "uint16[]",
          "name": "moves",
          "type": "uint16[]"
        },
        {
          "internalType": "uint8",
          "name": "outcome",
          "type": "uint8"
        },
        {
          "internalType": "enum ChessTemplate.GameStatus",
          "name": "currentStatus",
          "type": "uint8"
        },
        {
          "internalType": "address",
          "name": "winner",
          "type": "address"
        },
        {
          "internalType": "address",
          "name": "loser",
          "type": "address"
        }
      ],
      "stateMutability": "view",
      "type": "function"
    },
    {
      "inputs": [
        {
          "internalType": "uint8",
          "name": "fromPos",
          "type": "uint8"
        },
        {
          "internalType": "uint8",
          "name": "toPos",
          "type": "uint8"
        }
      ],
      "name": "getHorizontalMovement",
      "outputs": [
        {
          "internalType": "uint8",
          "name": "",
          "type": "uint8"
        }
      ],
      "stateMutability": "pure",
      "type": "function"
    },
    {
      "inputs": [
        {
          "internalType": "uint8",
          "name": "fromPos",
          "type": "uint8"
        },
        {
          "internalType": "uint8",
          "name": "toPos",
          "type": "uint8"
        }
      ],
      "name": "getInBetweenMask",
      "outputs": [
        {
          "internalType": "uint256",
          "name": "",
          "type": "uint256"
        }
      ],
      "stateMutability": "pure",
      "type": "function"
    },
    {
      "inputs": [
        {
          "internalType": "uint8",
          "name": "pos",
          "type": "uint8"
        }
      ],
      "name": "getPositionMask",
      "outputs": [
        {
          "internalType": "uint256",
          "name": "",
          "type": "uint256"
        }
      ],
      "stateMutability": "pure",
      "type": "function"
    },
    {
      "inputs": [
        {
          "internalType": "uint8",
          "name": "fromPos",
          "type": "uint8"
        },
        {
          "internalType": "uint8",
          "name": "toPos",
          "type": "uint8"
        }
      ],
      "name": "getVerticalMovement",
      "outputs": [
        {
          "internalType": "uint8",
          "name": "",
          "type": "uint8"
        }
      ],
      "stateMutability": "pure",
      "type": "function"
    },
    {
      "inputs": [
        {
          "internalType": "address",
          "name": "_chessFactory",
          "type": "address"
        }
      ],
      "name": "initialize",
      "outputs": [],
      "stateMutability": "nonpayable",
      "type": "function"
    },
    {
      "inputs": [],
      "name": "isGameActive",
      "outputs": [
        {
          "internalType": "bool",
          "name": "",
          "type": "bool"
        }
      ],
      "stateMutability": "view",
      "type": "function"
    },
    {
      "inputs": [],
      "name": "lastMoveTime",
      "outputs": [
        {
          "internalType": "uint256",
          "name": "",
          "type": "uint256"
        }
      ],
      "stateMutability": "view",
      "type": "function"
    },
    {
      "inputs": [],
      "name": "moveCount",
      "outputs": [
        {
          "internalType": "uint256",
          "name": "",
          "type": "uint256"
        }
      ],
      "stateMutability": "view",
      "type": "function"
    },
    {
      "inputs": [],
      "name": "owner",
      "outputs": [
        {
          "internalType": "address",
          "name": "",
          "type": "address"
        }
      ],
      "stateMutability": "view",
      "type": "function"
    },
    {
      "inputs": [
        {
          "internalType": "uint256",
          "name": "gameState",
          "type": "uint256"
        },
        {
          "internalType": "uint8",
          "name": "pos",
          "type": "uint8"
        }
      ],
      "name": "pieceAtPosition",
      "outputs": [
        {
          "internalType": "uint8",
          "name": "",
          "type": "uint8"
        }
      ],
      "stateMutability": "pure",
      "type": "function"
    },
    {
      "inputs": [
        {
          "internalType": "uint256",
          "name": "gameState",
          "type": "uint256"
        },
        {
          "internalType": "uint8",
          "name": "pos",
          "type": "uint8"
        }
      ],
      "name": "pieceUnderAttack",
      "outputs": [
        {
          "internalType": "bool",
          "name": "",
          "type": "bool"
        }
      ],
      "stateMutability": "pure",
      "type": "function"
    },
    {
      "inputs": [
        {
          "internalType": "uint16[]",
          "name": "moves",
          "type": "uint16[]"
        }
      ],
      "name": "playMove",
      "outputs": [],
      "stateMutability": "nonpayable",
      "type": "function"
    },
    {
      "inputs": [],
      "name": "player1",
      "outputs": [
        {
          "internalType": "address",
          "name": "",
          "type": "address"
        }
      ],
      "stateMutability": "view",
      "type": "function"
    },
    {
      "inputs": [],
      "name": "player2",
      "outputs": [
        {
          "internalType": "address",
          "name": "",
          "type": "address"
        }
      ],
      "stateMutability": "view",
      "type": "function"
    },
    {
      "inputs": [],
      "name": "proposeDraw",
      "outputs": [],
      "stateMutability": "nonpayable",
      "type": "function"
    },
    {
      "inputs": [],
      "name": "proposer",
      "outputs": [
        {
          "internalType": "address",
          "name": "",
          "type": "address"
        }
      ],
      "stateMutability": "view",
      "type": "function"
    },
    {
      "inputs": [],
      "name": "renounceOwnership",
      "outputs": [],
      "stateMutability": "nonpayable",
      "type": "function"
    },
    {
      "inputs": [
        {
          "internalType": "uint256",
          "name": "gameState",
          "type": "uint256"
        },
        {
          "internalType": "uint32",
          "name": "playerState",
          "type": "uint32"
        },
        {
          "internalType": "uint32",
          "name": "opponentState",
          "type": "uint32"
        },
        {
          "internalType": "uint8",
          "name": "color",
          "type": "uint8"
        },
        {
          "internalType": "uint16",
          "name": "pBitOffset",
          "type": "uint16"
        },
        {
          "internalType": "uint16",
          "name": "bitSize",
          "type": "uint16"
        }
      ],
      "name": "searchPiece",
      "outputs": [
        {
          "internalType": "bool",
          "name": "",
          "type": "bool"
        }
      ],
      "stateMutability": "pure",
      "type": "function"
    },
    {
      "inputs": [],
      "name": "setGameActive",
      "outputs": [],
      "stateMutability": "nonpayable",
      "type": "function"
    },
    {
      "inputs": [
        {
          "internalType": "address",
          "name": "_player1",
          "type": "address"
        }
      ],
      "name": "setPlayer1",
      "outputs": [],
      "stateMutability": "nonpayable",
      "type": "function"
    },
    {
      "inputs": [
        {
          "internalType": "address",
          "name": "_player2",
          "type": "address"
        }
      ],
      "name": "setPlayer2",
      "outputs": [],
      "stateMutability": "nonpayable",
      "type": "function"
    },
    {
      "inputs": [
        {
          "internalType": "uint256",
          "name": "gameState",
          "type": "uint256"
        },
        {
          "internalType": "uint8",
          "name": "pos",
          "type": "uint8"
        },
        {
          "internalType": "uint8",
          "name": "piece",
          "type": "uint8"
        }
      ],
      "name": "setPosition",
      "outputs": [
        {
          "internalType": "uint256",
          "name": "",
          "type": "uint256"
        }
      ],
      "stateMutability": "pure",
      "type": "function"
    },
    {
      "inputs": [],
      "name": "status",
      "outputs": [
        {
          "internalType": "enum ChessTemplate.GameStatus",
          "name": "",
          "type": "uint8"
        }
      ],
      "stateMutability": "view",
      "type": "function"
    },
    {
      "inputs": [
        {
          "internalType": "address",
          "name": "newOwner",
          "type": "address"
        }
      ],
      "name": "transferOwnership",
      "outputs": [],
      "stateMutability": "nonpayable",
      "type": "function"
    },
    {
      "inputs": [
        {
          "internalType": "uint256",
          "name": "gameState",
          "type": "uint256"
        },
        {
          "internalType": "uint8",
          "name": "fromPos",
          "type": "uint8"
        },
        {
          "internalType": "uint8",
          "name": "toPos",
          "type": "uint8"
        },
        {
          "internalType": "bool",
          "name": "currentTurnBlack",
          "type": "bool"
        }
      ],
      "name": "verifyExecuteBishopMove",
      "outputs": [
        {
          "internalType": "uint256",
          "name": "",
          "type": "uint256"
        }
      ],
      "stateMutability": "pure",
      "type": "function"
    },
    {
      "inputs": [
        {
          "internalType": "uint256",
          "name": "gameState",
          "type": "uint256"
        },
        {
          "internalType": "uint8",
          "name": "fromPos",
          "type": "uint8"
        },
        {
          "internalType": "uint8",
          "name": "toPos",
          "type": "uint8"
        },
        {
          "internalType": "bool",
          "name": "currentTurnBlack",
          "type": "bool"
        },
        {
          "internalType": "uint32",
          "name": "playerState",
          "type": "uint32"
        }
      ],
      "name": "verifyExecuteKingMove",
      "outputs": [
        {
          "internalType": "uint256",
          "name": "newGameState",
          "type": "uint256"
        },
        {
          "internalType": "uint32",
          "name": "newPlayerState",
          "type": "uint32"
        }
      ],
      "stateMutability": "pure",
      "type": "function"
    },
    {
      "inputs": [
        {
          "internalType": "uint256",
          "name": "gameState",
          "type": "uint256"
        },
        {
          "internalType": "uint8",
          "name": "fromPos",
          "type": "uint8"
        },
        {
          "internalType": "uint8",
          "name": "toPos",
          "type": "uint8"
        },
        {
          "internalType": "bool",
          "name": "currentTurnBlack",
          "type": "bool"
        }
      ],
      "name": "verifyExecuteKnightMove",
      "outputs": [
        {
          "internalType": "uint256",
          "name": "",
          "type": "uint256"
        }
      ],
      "stateMutability": "pure",
      "type": "function"
    },
    {
      "inputs": [
        {
          "internalType": "uint256",
          "name": "gameState",
          "type": "uint256"
        },
        {
          "internalType": "uint16",
          "name": "move",
          "type": "uint16"
        },
        {
          "internalType": "uint32",
          "name": "playerState",
          "type": "uint32"
        },
        {
          "internalType": "uint32",
          "name": "opponentState",
          "type": "uint32"
        },
        {
          "internalType": "bool",
          "name": "currentTurnBlack",
          "type": "bool"
        }
      ],
      "name": "verifyExecuteMove",
      "outputs": [
        {
          "internalType": "uint256",
          "name": "newGameState",
          "type": "uint256"
        },
        {
          "internalType": "uint32",
          "name": "newPlayerState",
          "type": "uint32"
        },
        {
          "internalType": "uint32",
          "name": "newOpponentState",
          "type": "uint32"
        }
      ],
      "stateMutability": "pure",
      "type": "function"
    },
    {
      "inputs": [
        {
          "internalType": "uint256",
          "name": "gameState",
          "type": "uint256"
        },
        {
          "internalType": "uint8",
          "name": "fromPos",
          "type": "uint8"
        },
        {
          "internalType": "uint8",
          "name": "toPos",
          "type": "uint8"
        },
        {
          "internalType": "uint8",
          "name": "moveExtra",
          "type": "uint8"
        },
        {
          "internalType": "bool",
          "name": "currentTurnBlack",
          "type": "bool"
        },
        {
          "internalType": "uint32",
          "name": "playerState",
          "type": "uint32"
        },
        {
          "internalType": "uint32",
          "name": "opponentState",
          "type": "uint32"
        }
      ],
      "name": "verifyExecutePawnMove",
      "outputs": [
        {
          "internalType": "uint256",
          "name": "newGameState",
          "type": "uint256"
        },
        {
          "internalType": "uint32",
          "name": "newPlayerState",
          "type": "uint32"
        }
      ],
      "stateMutability": "pure",
      "type": "function"
    },
    {
      "inputs": [
        {
          "internalType": "uint256",
          "name": "gameState",
          "type": "uint256"
        },
        {
          "internalType": "uint8",
          "name": "fromPos",
          "type": "uint8"
        },
        {
          "internalType": "uint8",
          "name": "toPos",
          "type": "uint8"
        },
        {
          "internalType": "bool",
          "name": "currentTurnBlack",
          "type": "bool"
        }
      ],
      "name": "verifyExecuteQueenMove",
      "outputs": [
        {
          "internalType": "uint256",
          "name": "",
          "type": "uint256"
        }
      ],
      "stateMutability": "pure",
      "type": "function"
    },
    {
      "inputs": [
        {
          "internalType": "uint256",
          "name": "gameState",
          "type": "uint256"
        },
        {
          "internalType": "uint8",
          "name": "fromPos",
          "type": "uint8"
        },
        {
          "internalType": "uint8",
          "name": "toPos",
          "type": "uint8"
        },
        {
          "internalType": "bool",
          "name": "currentTurnBlack",
          "type": "bool"
        }
      ],
      "name": "verifyExecuteRookMove",
      "outputs": [
        {
          "internalType": "uint256",
          "name": "",
          "type": "uint256"
        }
      ],
      "stateMutability": "pure",
      "type": "function"
    },
    {
      "inputs": [
        {
          "internalType": "uint256",
          "name": "gameState",
          "type": "uint256"
        },
        {
          "internalType": "uint8",
          "name": "pos",
          "type": "uint8"
        }
      ],
      "name": "zeroPosition",
      "outputs": [
        {
          "internalType": "uint256",
          "name": "",
          "type": "uint256"
        }
      ],
      "stateMutability": "pure",
      "type": "function"
    }
  ],
  "bytecode": "0x6080604052348015600f57600080fd5b5060016000553380603a57604051631e4fbdf760e01b81526000600482015260240160405180910390fd5b6041816046565b506098565b600180546001600160a01b038381166001600160a01b0319831681179093556040519116919082907f8be0079c531659141344cd1fd0a4f28419497f9722a3daafe3b4186f6b6457e090600090a35050565b61453e806100a76000396000f3fe608060405234801561001057600080fd5b50600436106103a45760003560e01c8063a14e3e86116101e9578063cf1e5b801161010f578063ebbb04aa116100ad578063f88ac7241161007c578063f88ac724146107fb578063fd997c721461080e578063fde2720614610843578063ff7e513f1461085657600080fd5b8063ebbb04aa146107ae578063ed977f7b146107c1578063f020044f146107d4578063f2fde38b146107e857600080fd5b8063d36cbcd7116100e9578063d36cbcd714610762578063dc416a2a14610775578063e7f9b59314610788578063eb4850421461079b57600080fd5b8063cf1e5b8014610729578063d30895e41461073c578063d35f89531461074f57600080fd5b8063ae9be37a11610187578063c37fa40d11610156578063c37fa40d146106b0578063c4d66de8146106c0578063c5f22a5a146106d3578063c668ddb4146106e657600080fd5b8063ae9be37a14610668578063b5511f9c1461067b578063b7d0628b1461068e578063ba8f73e2146106a757600080fd5b8063a72d6d1d116101c3578063a72d6d1d14610627578063a87783ba1461063a578063a8e4fb9014610642578063a91fa2811461065557600080fd5b8063a14e3e86146105f9578063a384d2851461060c578063a4a10e0b1461061457600080fd5b80635511a0df116102ce5780637dfd04e41161026c5780638ad3b1881161023b5780638ad3b188146105c45780638d85c945146105d75780638da5cb5b146105df57806392e81554146105f057600080fd5b80637dfd04e4146105865780637eb941d31461059957806388318834146105a95780638a0cb8eb146105b157600080fd5b80636a07dc12116102a85780636a07dc121461054f5780636ace103614610558578063715018a61461056b57806373da64a01461057357600080fd5b80635511a0df146104fd5780635966567f1461051157806359a5f12d1461052457600080fd5b806330d6d549116103465780633d92e647116103155780633d92e647146104bf5780633f9326af146104d25780634750a939146104e25780634ccf6210146104f557600080fd5b806330d6d5491461046d57806334fbc9a114610480578063370b6ce714610490578063385a621c1461049a57600080fd5b80632098b5c0116103825780632098b5c0146104075780632b0d8b1f1461041a5780632ba5c65d1461042d5780632e6daa401461045a57600080fd5b806303134e26146103a95780630c0ef2b0146103cf578063200d2ed2146103ed575b600080fd5b6103bc6103b73660046138fa565b610869565b6040519081526020015b60405180910390f35b600654600160a01b900460ff165b60405190151581526020016103c6565b600a546103fa9060ff1681565b6040516103c69190613965565b6103bc610415366004613973565b610a21565b6103dd6104283660046139b4565b610a5b565b61044061043b366004613a31565b610c1c565b6040805192835263ffffffff9091166020830152016103c6565b6103bc610468366004613ab0565b610ec5565b6103dd61047b366004613aec565b610f15565b6103bc681b1ae4d6e2ef50000081565b610498611042565b005b6104ad6104a8366004613b0f565b611108565b60405160ff90911681526020016103c6565b6103dd6104cd366004613b42565b611190565b6103bc683635c9adc5dea0000081565b6104ad6104f03660046138fa565b611296565b6104986112df565b6006546103dd90600160a81b900460ff1681565b6103dd61051f366004613b8f565b6113fd565b600454610537906001600160a01b031681565b6040516001600160a01b0390911681526020016103c6565b6103bc61038481565b6103bc610566366004613bf8565b611498565b610498611530565b610498610581366004613c2c565b611542565b6103dd610594366004613b42565b611625565b6103bc6828a857425466f8000081565b6104986116ba565b6103dd6105bf366004613b8f565b61189d565b6103dd6105d2366004613b42565b611929565b610498611a21565b6001546001600160a01b0316610537565b6103bc60075481565b6103bc610607366004613bf8565b611c64565b610498611ccb565b6104ad610622366004613aec565b611e0e565b6103bc610635366004613bf8565b611e4f565b610498611edf565b600654610537906001600160a01b031681565b600254610537906001600160a01b031681565b6103dd610676366004613b42565b611fa8565b6103bc610689366004613bf8565b612023565b6106966120a6565b6040516103c6959493929190613c55565b6103bc60085481565b6103bc685150ae84a8cdf0000081565b6104986106ce366004613c2c565b6121d5565b6103bc6106e1366004613ab0565b612281565b6106f96106f4366004613d87565b6122b0565b6040805160ff9095168552602085019390935263ffffffff918216928401929092521660608201526080016103c6565b610440610737366004613dbc565b61234b565b600354610537906001600160a01b031681565b6104ad61075d3660046138fa565b61254a565b600554610537906001600160a01b031681565b6106f9610783366004613e1a565b612579565b6103dd610796366004613b42565b61280b565b6103bc6107a9366004613aec565b612904565b6103dd6107bc366004613e93565b612946565b6103dd6107cf366004613b8f565b61297e565b6006546103dd90600160a01b900460ff1681565b6104986107f6366004613c2c565b612a0a565b610498610809366004613c2c565b612a45565b61082161081c366004613eb6565b612b25565b6040805193845263ffffffff92831660208501529116908201526060016103c6565b610498610851366004613f08565b612da4565b6103dd610864366004613f7f565b612f69565b600080610876848461254a565b905060006108848585611296565b90508060ff168260ff16148061089b575060ff8216155b806108a7575060ff8116155b6108cc5760405162461bcd60e51b81526004016108c390613fa7565b60405180910390fd5b60006108d786610a21565b905060006108e486610a21565b905060006108f86007808a16908916613fe9565b90506000610913601f60038b811c821691908b901c16613fe9565b90506000808360000b13801561092c575060008260000b135b80610948575060008360000b128015610948575060008260000b125b15610955575060246109d8565b8260000b600014801561096c57508160000b600014155b15610979575060206109d8565b60008360000b13801561098f575060008260000b125b806109ab575060008360000b1280156109ab575060008260000b135b156109b85750601c6109d8565b8260000b6000141580156109cf57508160000b6000145b156109d8575060045b60005b858514610a1157848610156109f8578160ff1686901b9550610a02565b8160ff1686901c95505b858514610a0c5785175b6109db565b9750505050505050505b92915050565b6000610a3160078316600461400a565b610a43601f600385901c16602061400a565b610a4d919061402d565b60ff16600f901b9050919050565b6000600461ffff83161115610b01576000610a7760028461405c565b905060001961ffff82161b19600081610a908488614080565b61ffff168b901c1690508015610ac857610ab78a8a8a8a610ab1888c614080565b88610a5b565b15610ac85760019350505050610c12565b61ffff86168a901c82168015610af857610ae68b8b8b8b8b89610a5b565b15610af8576001945050505050610c12565b50505050610c0e565b600f61ffff841688901c168015801590610b2057506008811660ff8616145b15610c0c576000610b3260048661405c565b905060ff8616151560078316600681148015610b555750610b558b848c8561280b565b80610b76575060ff81166001148015610b765750610b768b848c8c86612f69565b80610b96575060ff81166003148015610b965750610b968b848c85611190565b80610bb6575060ff81166004148015610bb65750610bb68b848c85611625565b80610bd6575060ff81166002148015610bd65750610bd68b848c85611fa8565b80610bf6575060ff81166005148015610bf65750610bf68b848c85611929565b15610c08576001945050505050610c12565b5050505b505b5060005b9695505050505050565b60008284151560ff808a169089161014610c3d575060001990506000610eb9565b60008760ff168960ff1611610c5b57610c56898961409a565b610c65565b610c65888a61409a565b90506000610c738b8a611e0e565b90508160ff1660081480610c8a57508160ff166010145b15610d5b5760ff811615610ca8576000196000935093505050610eb9565b8160ff16601003610d5657868015610cc857506006601f60038c901c1614155b80610ce4575086158015610ce457506001601f60038c901c1614155b15610cf9576000196000935093505050610eb9565b60008a60ff168a60ff1611610d1857610d138a600861402d565b610d23565b610d238b600861402d565b9050610d2f8c82611e0e565b60ff1615610d4857600019600094509450505050610eb9565b8060ff1660ff198516179350505b610de1565b8160ff1660071480610d7057508160ff166009145b15610dd157610d7f8a8a611296565b60ff16600114610d99576000196000935093505050610eb9565b60ff858116908a1614610d565760ff81161580610dbc5750861515600882811614145b15610d56576000196000935093505050610eb9565b6000196000935093505050610eb9565b610dec8b8b8b612281565b9350868015610e005750601f60038a901c16155b80610e1b575086158015610e1b57506007601f60038b901c16145b15610eb65760ff881660021480610e35575060ff88166003145b80610e43575060ff88166004145b80610e51575060ff88166005145b610e915760405162461bcd60e51b815260206004820152601160248201527024b73b30b634b210383937b6b7ba34b7b760791b60448201526064016108c3565b610eb3610e9e858b612904565b8a89610eaa578a610ec5565b60088b17610ec5565b93505b50505b97509795505050505050565b600060408360ff1610610eea5760405162461bcd60e51b81526004016108c3906140b3565b6000610ef760048561400a565b600f60ff91821690811b198716918516901b179150505b9392505050565b600080610f2360048461400a565b60ff1684901c600f1690506000806008831660ff1611610f44576008610f47565b60005b6001179050600060088316610f5d576008610f60565b60005b6002179050600060088416610f76576008610f79565b60005b6003179050600060088516610f8f576008610f92565b60005b6004179050600060088616610fa8576008610fab565b60005b6005179050600060088716610fc1576008610fc4565b60005b60061790506000610fd88b8b86868661308c565b80610fec5750610fec8b8b8886868c6131f6565b80610ffd5750610ffd8b8b87613318565b905080610a115760006110168c8c60088c1615156133f3565b905080156110305760019950505050505050505050610a1b565b60009950505050505050505050610a1b565b61104a6134d0565b6110526134fd565b600654600160a01b900460ff1661107b5760405162a3097160e01b815260040160405180910390fd5b61038460075461108b91906140f9565b4210156110ab57604051634799187b60e01b815260040160405180910390fd5b60006110b5613527565b6003549091506000906001600160a01b038084169116146110e1576003546001600160a01b03166110ee565b6004546001600160a01b03165b90506110fa818361355f565b50506111066001600055565b565b6000600883901c62ffffff16600684811c60fc1686901c600f8116916007909116146111365761113661410c565b600061114c878787600886166000610100610a5b565b90506111588787612946565b15611176578061116957600261116c565b60005b9350505050610f0e565b80611182576001611185565b60005b979650505050505050565b6040805161010081018252600681526005196020820152600a9181019190915260091960608201526011608082015260101960a0820152600f60c0820152600e1960e0820152600090819062ffffff600886901c1690825b60088160ff161015611285576000828260ff166008811061120b5761120b614122565b602002015161121a908a614138565b905060008160000b12158015611233575060408160000b125b15611272576112448a8a838a611e4f565b9450600019851415801561125f575061125d8585610f15565b155b156112725760019550505050505061128e565b508061127d81614159565b9150506111e8565b50600093505050505b949350505050565b6000600382811c601f9081169185901c16116112c8576112c3601f600385811c8216919085901c1661409a565b610f0e565b610f0e601f600384811c8216919086901c1661409a565b6003546001600160a01b0316158061130057506004546001600160a01b0316155b1561131e5760405163dc97039760e01b815260040160405180910390fd5b6003546001600160a01b0316331480159061134457506004546001600160a01b03163314155b156113625760405163721c7c6760e11b815260040160405180910390fd5b600654600160a01b900460ff1661138b5760405162a3097160e01b815260040160405180910390fd5b600654600160a81b900460ff16156113b6576040516327da22c760e11b815260040160405180910390fd5b60068054600161ff0160a01b03191633908117600160a81b179091556040517fdcd86eebb30cc9dce2fa84cfb93a54b972d07d13ab0c842e64fe92350d21370b90600090a2565b6000808061140b8789614138565b90505b6007811660ff871614801590611427575060408160ff16105b156114895761143889898387611498565b9150600019821415801561145357506114518286610f15565b155b1561146357600192505050610c12565b600f60fc600283901b168a901c16600003611489576114828782614138565b905061140e565b50600098975050505050505050565b6000806114a58685611e0e565b905060ff8116156114c957821515600882811614036114c95760001991505061128e565b60006114d5868661254a565b905060006114e38787611296565b905060ff82811615159082161515148061150757506115028787610869565b881615155b1561151957600019935050505061128e565b611524888888612281565b98975050505050505050565b6115386134d0565b611106600061363b565b6002546001600160a01b0316331461156d5760405163ca4c3b8560e01b815260040160405180910390fd5b6115756134fd565b6004546001600160a01b03161561159e5760405162dc149f60e41b815260040160405180910390fd5b6001600160a01b0381166115c5576040516340920c1160e11b815260040160405180910390fd5b6004546040516001600160a01b038084169216907fa6c6d24d574c8f028f625e76a138c6376b2b48c8dcf6233572abbaeb04dff9aa90600090a3600480546001600160a01b0319166001600160a01b038316179055600160005550565b50565b600062ffffff600884901c1661164186866000198585886113fd565b1561165057600191505061128e565b61166086866001600785886113fd565b1561166f57600191505061128e565b61167f86866008604085886113fd565b1561168e57600191505061128e565b61169f8686600719604085886113fd565b156116ae57600191505061128e565b50600095945050505050565b6003546001600160a01b031615806116db57506004546001600160a01b0316155b156116f95760405163dc97039760e01b815260040160405180910390fd5b6003546001600160a01b0316331480159061171f57506004546001600160a01b03163314155b1561173d5760405163721c7c6760e11b815260040160405180910390fd5b6117456134fd565b600654600160a01b900460ff1661176e5760405162a3097160e01b815260040160405180910390fd5b6006805460ff60a01b19169055600a805460ff1916600390811790915560058054336001600160a01b0319909116811790915590546000916001600160a01b03909116146117c7576003546001600160a01b03166117d4565b6004546001600160a01b03165b6040519091506001600160a01b0382169033907f94e656da155d11b178ccd6db5d30fa99aabddc12314a786db3a3035f7e572dc290600090a360025460035460048054604051637d6967e960e01b81526001600160a01b0394851694637d6967e9946118609490821693909116918791681b1ae4d6e2ef50000091685150ae84a8cdf000009101614178565b600060405180830381600087803b15801561187a57600080fd5b505af115801561188e573d6000803e3d6000fd5b50505050506111066001600055565b600080806118ab8789614138565b90505b6007811660ff8716148015906118c7575060408160ff16105b15611489576118d889898387612023565b915060001982141580156118f357506118f18286610f15565b155b1561190357600192505050610c12565b600f60fc600283901b168a901c16600003611489576119228782614138565b90506118ae565b600062ffffff600884901c16611945868660001985858861189d565b1561195457600191505061128e565b611964868660016007858861189d565b1561197357600191505061128e565b611983868660086040858861189d565b1561199257600191505061128e565b6119a386866007196040858861189d565b156119b257600191505061128e565b6119c2868660096007858861189d565b156119d157600191505061128e565b6119e1868660076000858861189d565b156119f057600191505061128e565b611a0186866006196007858861189d565b15611a1057600191505061128e565b61169f86866008196000858861189d565b6003546001600160a01b03161580611a4257506004546001600160a01b0316155b15611a605760405163dc97039760e01b815260040160405180910390fd5b6003546001600160a01b03163314801590611a8657506004546001600160a01b03163314155b15611aa45760405163721c7c6760e11b815260040160405180910390fd5b611aac6134fd565b600654600160a01b900460ff16611ad55760405162a3097160e01b815260040160405180910390fd5b6006546001600160a01b03163303611b0057604051636c038def60e01b815260040160405180910390fd5b6003546001600160a01b03161580611b2157506004546001600160a01b0316155b15611b3f576040516340920c1160e11b815260040160405180910390fd5b6003546001600160a01b03163314801590611b6557506004546001600160a01b03163314155b15611b835760405163721c7c6760e11b815260040160405180910390fd5b6006805460ff60a01b198116909155600a805460ff1916600217905560405133916001600160a01b0316907f7311e2178a48b073bfe7be1eb8ea3337b266ef766dea41cb06d6cb5122fe416390600090a360025460035460048054604051637d6967e960e01b81526001600160a01b0394851694637d6967e994611c28949082169390911691600091681b1ae4d6e2ef500000916828a857425466f800009101614178565b600060405180830381600087803b158015611c4257600080fd5b505af1158015611c56573d6000803e3d6000fd5b505050506111066001600055565b600080611c718685611e0e565b905060ff811615611c955782151560088281161403611c955760001991505061128e565b6000611ca1868661254a565b90506000611caf8787611296565b90508060ff168260ff1614158061150757506115028787610869565b611cd36134d0565b611cdb6134fd565b600654600160a01b900460ff16611d045760405162a3097160e01b815260040160405180910390fd5b610384600754611d1491906140f9565b421015611d3457604051634799187b60e01b815260040160405180910390fd5b6006805460ff60a01b19169055600a805460ff191660021790556004546003546040516001600160a01b0392831692909116907fa8c92f3b1b9b1550f9e51f50d257975468975b5e06f61df3587f005f227240ea90600090a360405160009081907f94e95ba69fbbaaff86f692c21c60d763dde378dd2836a059102002260a5cd961908290a360025460035460048054604051637d6967e960e01b81526001600160a01b0394851694637d6967e994611c28949082169390911691600091681b1ae4d6e2ef500000916828a857425466f800009101614178565b600060408260ff1610611e335760405162461bcd60e51b81526004016108c3906140b3565b611e3e60048361400a565b60ff1683901c600f16905092915050565b600080611e5c8685611e0e565b905060ff811615611e805782151560088281161403611e805760001991505061128e565b6000611e8c868661254a565b90506000611e9a8787611296565b90508160ff166002148015611eb257508060ff166001145b80611ece57508160ff166001148015611ece57508060ff166002145b61151957600019935050505061128e565b6002546001600160a01b03163314611f0a5760405163ca4c3b8560e01b815260040160405180910390fd5b611f126134fd565b6003546001600160a01b03161580611f3357506004546001600160a01b0316155b15611f515760405163dc97039760e01b815260040160405180910390fd5b600654600160a01b900460ff1615611f7c576040516391c183df60e01b815260040160405180910390fd5b6006805460ff60a01b1916600160a01b179055600a805460ff1916600190811790915542600755600055565b600062ffffff600884901c16611fc4868660096007858861297e565b15611fd357600191505061128e565b611fe3868660076000858861297e565b15611ff257600191505061128e565b61200386866006196007858861297e565b1561201257600191505061128e565b61169f86866008196000858861297e565b6000806120308685611e0e565b905060ff81161561205457821515600882811614036120545760001991505061128e565b6000612060868661254a565b9050600061206e8787611296565b90508060ff168260ff1614158015612088575060ff821615155b8015612096575060ff811615155b8061150757506115028787610869565b6060600080600080600980548060200260200160405190810160405280929190818152602001828054801561212257602002820191906000526020600020906000905b82829054906101000a900461ffff1661ffff16815260200190600201906020826001010492830192600103820291508084116120e95790505b5050600654600a54949950600160b01b900460ff908116985090931695506004925061214c915050565b600a5460ff1660048111156121635761216361392d565b148061218557506003600a5460ff1660048111156121835761218361392d565b145b612190576000612198565b61219861368d565b91506003600a5460ff1660048111156121b3576121b361392d565b146121bf5760006121cc565b6005546001600160a01b03165b90509091929394565b6121dd6134fd565b6001600160a01b0381166122045760405163761ce8bd60e01b815260040160405180910390fd5b600280546001600160a01b0319166001600160a01b0383161790556006805460ff60a01b19169055600a805460ff19169055600060085560408051683635c9adc5dea00000815290517f50ad08f58a27f2851d7e3a1b3a6a46b290f2ce677e99642d30ff639721e777909181900360200190a16116226001600055565b60008061228f60048561400a565b600f60ff821681811b19881694509192509086901c16610c12838583610ec5565b60008060008060008551116123075760405162461bcd60e51b815260206004820152601b60248201527f4d6f7665732061727261792063616e6e6f7420626520656d707479000000000060448201526064016108c3565b61233c7fcbaedabc99999999000000000000000000000000000000001111111143265234620704ff63383f3cff600089612579565b93509350935093509193509193565b60006380800000821763ffff00ff1661ff00600886901b16178161236f8887611e0e565b905060ff811615612393578415156008828116140361239357600019925050612540565b60408660ff161015806123aa575060408760ff1610155b156123ba57600019925050612540565b60006123c6888861254a565b905060006123d48989611296565b905060018260ff16111580156123ee575060018160ff1611155b15612408576123fe8a8a8a612281565b9450505050612540565b8160ff16600214801561241c575060ff8116155b156125335761242b8a8a610f15565b6125335760ff601887901c811690891661244682600261402d565b60ff16036124ba578a612459828c610869565b166000036124b5576124718b8b6106e160018261409a565b95506124828661047b60018d61409a565b6124b5576124aa61249e8761249860018e61409a565b8c612281565b826106e160018e61409a565b955050505050612540565b612531565b50601086901c61ffff1660ff89166124d360018361409a565b60ff1603612531578a6124e6828c610869565b16600003612531576124fe8b8b6106e181600161402d565b955061250f8661047b8c600161402d565b612531576124aa612525876124988d600161402d565b826106e18d600161402d565b505b6000196000945094505050505b9550959350505050565b6000600780831690841611612569576112c3600780851690841661409a565b610f0e600780841690851661409a565b805160009086908690869086906125c85760405162461bcd60e51b8152602060048201526013602482015272496e76616c6964206d6f76657320617272617960681b60448201526064016108c3565b61200061ffff1686600188516125de91906141ac565b815181106125ee576125ee614122565b602002602001015161ffff16036126c8576002865110156126495760405162461bcd60e51b8152602060048201526015602482015274496e76616c696420647261772073657175656e636560581b60448201526064016108c3565b61100061ffff16866002885161265f91906141ac565b8151811061266f5761266f614122565b602002602001015161ffff16146126bf5760405162461bcd60e51b8152602060048201526014602482015273125b9d985b1a5908191c985dc81c995c5d595cdd60621b60448201526064016108c3565b600194506127fe565b61300061ffff1686600188516126de91906141ac565b815181106126ee576126ee614122565b602002602001015161ffff1603612729578015156002875161271091906141bf565b6001140361271f576002612722565b60035b94506127fe565b60005b86518110156127bb5761275b8588838151811061274b5761274b614122565b6020026020010151868686612b25565b919650909450925061276d8584612946565b156127b05760405162461bcd60e51b8152602060048201526013602482015272496e76616c696420636865636b20737461746560681b60448201526064016108c3565b90159060010161272c565b5060006127c9858585611108565b90508060ff166002036127ec57816127e25760036127e5565b60025b95506127fc565b8060ff166001036127fc57600195505b505b5095509550955095915050565b60408051610100810182526008198152600719602082015260061991810191909152600019606082015260016080820152600760a0820152600860c0820152600960e08201526000908190815b60088160ff1610156128f6576000828260ff166008811061287b5761287b614122565b602002015161288a9089614138565b905060008160000b121580156128a3575060408160000b125b156128e3576128b5898983898b61234b565b50935060001984148015906128d157506128cf8482610f15565b155b156128e357600194505050505061128e565b50806128ee81614159565b915050612858565b506000979650505050505050565b600060408260ff16106129295760405162461bcd60e51b81526004016108c3906140b3565b61293460048361400a565b60ff16600f901b198316905092915050565b600062ffffff600883901c16600761295e8583611e0e565b1660ff16600660ff16146129745761297461410c565b61128e8482610f15565b6000808061298c8789614138565b90505b6007811660ff8716148015906129a8575060408160ff16105b15611489576129b989898387611c64565b915060001982141580156129d457506129d28286610f15565b155b156129e457600192505050610c12565b600f60fc600283901b168a901c1660000361148957612a038782614138565b905061298f565b612a126134d0565b6001600160a01b038116612a3c57604051631e4fbdf760e01b8152600060048201526024016108c3565b6116228161363b565b6002546001600160a01b03163314612a705760405163ca4c3b8560e01b815260040160405180910390fd5b612a786134fd565b6003546001600160a01b031615612aa15760405162dc149f60e41b815260040160405180910390fd5b6001600160a01b038116612ac8576040516340920c1160e11b815260040160405180910390fd5b6003546040516001600160a01b038084169216907fe521317e543c49d19b2049dd27150781ad6a8382302e5b70e9f49761343975a490600090a3600380546001600160a01b0319166001600160a01b038316179055600160005550565b60008080603f600688901c8116908816808203612b845760405162461bcd60e51b815260206004820152601c60248201527f496e76616c6964206d6f76653a207374616c6520706f736974696f6e0000000060448201526064016108c3565b6000612b908b84611e0e565b905060088116151587151514612bf45760405162461bcd60e51b815260206004820152602360248201527f496e76616c6964206d6f76653a20696e636f727265637420706965636520636f6044820152623637b960e91b60648201526084016108c3565b889450879350600781166000198101612c2857612c1e8c8585600c8f61ffff16901c8c8f8f610c1c565b9097509550612d03565b60021960ff821601612c4757612c408c85858b611e4f565b9650612d03565b60011960ff821601612c5f57612c408c85858b611c64565b60031960ff821601612cb757612c778c85858b611498565b965060ff60108b901c811690851603612c9757628000008a179550612d03565b60ff60188b901c811690851603612cb25763800000008a1795505b612d03565b60041960ff821601612ccf57612c408c85858b612023565b60051960ff821601612ce857612c1e8c85858b8e61234b565b80604051630d94b47960e21b81526004016108c391906141d3565b6000198703612d545760405162461bcd60e51b815260206004820152601860248201527f496e76616c6964206d6f76653a2067616d65207374617465000000000000000060448201526064016108c3565b60ff89811690841603612d8f578715612d7d57612d76876107a985600861402d565b9650612d8f565b612d8c876107a960088661409a565b96505b60ff8917945050505050955095509592505050565b6003546001600160a01b03161580612dc557506004546001600160a01b0316155b15612de35760405163dc97039760e01b815260040160405180910390fd5b6003546001600160a01b03163314801590612e0957506004546001600160a01b03163314155b15612e275760405163721c7c6760e11b815260040160405180910390fd5b612e2f6134fd565b600654600160a01b900460ff16612e585760405162a3097160e01b815260040160405180910390fd5b6000819003612e7a57604051634308eaff60e01b815260040160405180910390fd5b6000612eb88383808060200260200160405190810160405280939291908181526020018383602002808284376000920191909152506122b092505050565b50919250612ecc9150600990508484613822565b50336001600160a01b03167f41a8dc6088d4fc177ed535cbb1e8e196f34f684281295fc1aa1fdbebe221f6ec6009604051612f079190614208565b60405180910390a26006805460ff60b01b1916600160b01b60ff8416021790554260075560088054839190600090612f409084906140f9565b909155505060ff811615612f5a57612f5a8160ff16613728565b50612f656001600055565b5050565b600080600562ffffff600887901c168285612fa85760408051608081018252600781526008602082015260099181019190915260106060820152612fd2565b604080516080810182526006198152600719602082015260081991810191909152600f1960608201525b905060005b60048160ff161015613079576000828260ff1660048110612ffa57612ffa614122565b6020020151613009908c614138565b905060008160000b12158015613022575060408160000b125b15613066576130368c8c83888c8f8f610c1c565b509550600019861480159061305257506130508685610f15565b155b156130665760019650505050505050613083565b508061307181614159565b915050612fd7565b5060009450505050505b95945050505050565b604080516080810182526008815260071960208201526001918101919091526000196060820152600090815b60048160ff1610156128f6576001875b838360ff16600481106130dd576130dd614122565b60200201516130ec9082614138565b905060008160000b1280613104575060408160000b12155b8061316b5750838360ff166004811061311f5761311f614122565b602002015160000b600114806131525750838360ff166004811061314557613145614122565b602002015160000b600019145b801561316b5750600381811c601f908116918b901c1614155b6131e157600061317c60048361400a565b60ff168b901c600f16905080156131d7578860ff168160ff1614806131a657508760ff168160ff16145b806131be57508280156131be57508660ff168160ff16145b156131d157600195505050505050613083565b506131e1565b60009250506130c8565b505080806131ee90614159565b9150506130b8565b604080516080810182526009815260076020820152600619918101919091526008196060820152600090815b60048160ff161015611489576001885b838360ff166004811061324757613247614122565b60200201516132569082614138565b905060008160000b128061326e575060408160000b12155b61330357600061327f60048361400a565b60ff168c901c600f16905080156132f9578960ff168160ff1614806132a957508860ff168160ff16145b806132e057508280156132e057508760ff168160ff1614806132e057508660ff168160ff161480156132e057506008878116908216145b156132f357600195505050505050610c12565b50613303565b6000925050613232565b5050808061331090614159565b915050613222565b604080516101008101825260118152600f6020820152600a9181019190915260066060820152600519608082015260091960a0820152600e1960c082015260101960e0820152600090815b60088160ff1610156116ae576000828260ff166008811061338657613386614122565b60200201516133959087614138565b905060008160000b121580156133ae575060408160000b125b80156133cf575060ff85166133c460048361400a565b60ff1688901c600f16145b156133e05760019350505050610f0e565b50806133eb81614159565b915050613363565b6000808261340257600e613405565b60065b9050601f600385901c166007851660005b60408160ff1610156128f657600061342f60048361400a565b600f60ff9182168b901c169150851681036134c757601f600383901c1660078316600160ff8716831161346b57613466838861409a565b613475565b613475878461409a565b60ff16111580156134af575060018560ff168260ff161161349f5761349a828761409a565b6134a9565b6134a9868361409a565b60ff1611155b156134c4576001975050505050505050610f0e565b50505b50600101613416565b6001546001600160a01b031633146111065760405163118cdaa760e01b81523360048201526024016108c3565b60026000540361352057604051633ee5aeb560e01b815260040160405180910390fd5b6002600055565b6000600260085461353891906141bf565b60000361354f57506003546001600160a01b031690565b506004546001600160a01b031690565b6006805460ff60a01b19169055600a805460ff191660041790556040516001600160a01b0380831691908416907f94e95ba69fbbaaff86f692c21c60d763dde378dd2836a059102002260a5cd96190600090a360025460035460048054604051637d6967e960e01b81526001600160a01b0394851694637d6967e9946136059490821693909116918891681b1ae4d6e2ef50000091685150ae84a8cdf000009101614178565b600060405180830381600087803b15801561361f57600080fd5b505af1158015613633573d6000803e3d6000fd5b505050505050565b600180546001600160a01b038381166001600160a01b0319831681179093556040519116919082907f8be0079c531659141344cd1fd0a4f28419497f9722a3daafe3b4186f6b6457e090600090a35050565b600654600090600119600160b01b90910460ff16016136b657506003546001600160a01b031690565b600654600219600160b01b90910460ff16016136dc57506004546001600160a01b031690565b6003600a5460ff1660048111156136f5576136f561392d565b03613722576003546005546001600160a01b0390811691161461354f57506003546001600160a01b031690565b50600090565b6006805460ff60a01b19169055600a805460ff19166004179055600061ffff82166001190161376357506003546001600160a01b031661377e565b60021961ffff83160161377e57506004546001600160a01b03165b60405161ffff831681526001600160a01b038216907f4b69e4b785d075cffd7175754d562ffa6b9f9ce5ab5ea11234046a533be05a999060200160405180910390a26001600160a01b03811615612f655760025460035460048054604051637d6967e960e01b81526001600160a01b0394851694637d6967e9946136059490821693909116918791681b1ae4d6e2ef50000091685150ae84a8cdf000009101614178565b82805482825590600052602060002090600f016010900481019282156138bf5791602002820160005b8382111561388f57833561ffff1683826101000a81548161ffff021916908361ffff160217905550926020019260020160208160010104928301926001030261384b565b80156138bd5782816101000a81549061ffff021916905560020160208160010104928301926001030261388f565b505b506138cb9291506138cf565b5090565b5b808211156138cb57600081556001016138d0565b803560ff811681146138f557600080fd5b919050565b6000806040838503121561390d57600080fd5b613916836138e4565b9150613924602084016138e4565b90509250929050565b634e487b7160e01b600052602160045260246000fd5b6005811061396157634e487b7160e01b600052602160045260246000fd5b9052565b60208101610a1b8284613943565b60006020828403121561398557600080fd5b610f0e826138e4565b803563ffffffff811681146138f557600080fd5b803561ffff811681146138f557600080fd5b60008060008060008060c087890312156139cd57600080fd5b863595506139dd6020880161398e565b94506139eb6040880161398e565b93506139f9606088016138e4565b9250613a07608088016139a2565b9150613a1560a088016139a2565b90509295509295509295565b803580151581146138f557600080fd5b600080600080600080600060e0888a031215613a4c57600080fd5b87359650613a5c602089016138e4565b9550613a6a604089016138e4565b9450613a78606089016138e4565b9350613a8660808901613a21565b9250613a9460a0890161398e565b9150613aa260c0890161398e565b905092959891949750929550565b600080600060608486031215613ac557600080fd5b83359250613ad5602085016138e4565b9150613ae3604085016138e4565b90509250925092565b60008060408385031215613aff57600080fd5b82359150613924602084016138e4565b600080600060608486031215613b2457600080fd5b83359250613b346020850161398e565b9150613ae36040850161398e565b60008060008060808587031215613b5857600080fd5b84359350613b68602086016138e4565b9250613b766040860161398e565b9150613b8460608601613a21565b905092959194509250565b60008060008060008060c08789031215613ba857600080fd5b86359550613bb8602088016138e4565b945060408701358060000b8114613bce57600080fd5b9350613bdc606088016138e4565b9250613bea608088016138e4565b9150613a1560a08801613a21565b60008060008060808587031215613c0e57600080fd5b84359350613c1e602086016138e4565b9250613b76604086016138e4565b600060208284031215613c3e57600080fd5b81356001600160a01b0381168114610f0e57600080fd5b60a08082528651908201819052600090602088019060c0840190835b81811015613c9357835161ffff16835260209384019390920191600101613c71565b505060ff881660208501529150613caf90506040830186613943565b6001600160a01b03848116606084015283166080830152610c12565b634e487b7160e01b600052604160045260246000fd5b600082601f830112613cf257600080fd5b813567ffffffffffffffff811115613d0c57613d0c613ccb565b8060051b604051601f19603f830116810181811067ffffffffffffffff82111715613d3957613d39613ccb565b604052918252602081850181019290810186841115613d5757600080fd5b6020860192505b83831015613d7d57613d6f836139a2565b815260209283019201613d5e565b5095945050505050565b600060208284031215613d9957600080fd5b813567ffffffffffffffff811115613db057600080fd5b61128e84828501613ce1565b600080600080600060a08688031215613dd457600080fd5b85359450613de4602087016138e4565b9350613df2604087016138e4565b9250613e0060608701613a21565b9150613e0e6080870161398e565b90509295509295909350565b600080600080600060a08688031215613e3257600080fd5b85359450613e426020870161398e565b9350613e506040870161398e565b9250613e5e60608701613a21565b9150608086013567ffffffffffffffff811115613e7a57600080fd5b613e8688828901613ce1565b9150509295509295909350565b60008060408385031215613ea657600080fd5b823591506139246020840161398e565b600080600080600060a08688031215613ece57600080fd5b85359450613ede602087016139a2565b9350613eec6040870161398e565b9250613efa6060870161398e565b9150613e0e60808701613a21565b60008060208385031215613f1b57600080fd5b823567ffffffffffffffff811115613f3257600080fd5b8301601f81018513613f4357600080fd5b803567ffffffffffffffff811115613f5a57600080fd5b8560208260051b8401011115613f6f57600080fd5b6020919091019590945092505050565b600080600080600060a08688031215613f9757600080fd5b85359450613ede602087016138e4565b602081526000610a1b60208301600c81526b496e76616c6964206d6f766560a01b602082015260400190565b634e487b7160e01b600052601160045260246000fd5b600082810b9082900b03607f198112607f82131715610a1b57610a1b613fd3565b60ff818116838216029081169081811461402657614026613fd3565b5092915050565b60ff8181168382160190811115610a1b57610a1b613fd3565b634e487b7160e01b600052601260045260246000fd5b600061ffff83168061407057614070614046565b8061ffff84160491505092915050565b61ffff8181168382160190811115610a1b57610a1b613fd3565b60ff8281168282160390811115610a1b57610a1b613fd3565b60208082526026908201527f496e76616c696420706f736974696f6e3a206578636565647320626f617264206040820152656c696d69747360d01b606082015260800190565b80820180821115610a1b57610a1b613fd3565b634e487b7160e01b600052600160045260246000fd5b634e487b7160e01b600052603260045260246000fd5b600081810b9083900b01607f8113607f1982121715610a1b57610a1b613fd3565b600060ff821660ff810361416f5761416f613fd3565b60010192915050565b6001600160a01b03958616815293851660208501529190931660408301526060820192909252608081019190915260a00190565b81810381811115610a1b57610a1b613fd3565b6000826141ce576141ce614046565b500690565b60ff82168152604060208201526000610f0e60408301600c81526b496e76616c6964206d6f766560a01b602082015260400190565b60006020820160208352808454614223818490815260200190565b60008781526020812094509092505b81600f8201101561433457835461ffff81168452601081901c61ffff166020850152602081901c61ffff166040850152603081901c61ffff166060850152604081901c61ffff166080850152605081901c61ffff1660a0850152606081901c61ffff1660c0850152607081901c61ffff1660e0850152608081901c61ffff16610100850152609081901c61ffff1661012085015260a081901c61ffff1661014085015260b081901c61ffff1661016085015260c081901c61ffff1661018085015260d081901c61ffff166101a085015260e081901c61ffff166101c085015260f081901c6101e085015250600193909301926102009290920191601001614232565b925492818110156143505761ffff841683526020909201916001015b8181101561436d5761ffff601085901c1683526020909201916001015b8181101561438b57602084901c61ffff168352602092909201916001015b818110156143a85761ffff603085901c1683526020909201916001015b818110156143c55761ffff604085901c1683526020909201916001015b818110156143e25761ffff605085901c1683526020909201916001015b818110156143ff5761ffff606085901c1683526020909201916001015b8181101561441c5761ffff607085901c1683526020909201916001015b818110156144395761ffff608085901c1683526020909201916001015b818110156144565761ffff609085901c1683526020909201916001015b818110156144735761ffff60a085901c1683526020909201916001015b818110156144905761ffff60b085901c1683526020909201916001015b818110156144ad5761ffff60c085901c1683526020909201916001015b818110156144ca5761ffff60d085901c1683526020909201916001015b818110156144e75761ffff60e085901c1683526020909201916001015b818110156144fd5760f084901c83526020830192505b50909594505050505056fea2646970667358221220fdcab79b42c7ecab1d53b5297c7bf554afa0a3abf88029d81396ad043391ef9864736f6c634300081b0033",
  "linkReferences": {},
  "deployedLinkReferences": {}
}