{
  "_format": "hh-sol-artifact-1",
  "contractName": "ChessToken",
  "sourceName": "contracts/ChessToken.sol",
  "abi": [
    {
      "inputs": [
        {
          "internalType": "uint256",
          "name": "initialSupply",
          "type": "uint256"
        }
      ],
      "stateMutability": "nonpayable",
      "type": "constructor"
    },
    {
      "inputs": [],
      "name": "AmountMustBeGreaterThanZero",
      "type": "error"
    },
    {
      "inputs": [],
      "name": "CannotWithdrawChessToken",
      "type": "error"
    },
    {
      "inputs": [
        {
          "internalType": "address",
          "name": "spender",
          "type": "address"
        },
        {
          "internalType": "uint256",
          "name": "allowance",
          "type": "uint256"
        },
        {
          "internalType": "uint256",
          "name": "needed",
          "type": "uint256"
        }
      ],
      "name": "ERC20InsufficientAllowance",
      "type": "error"
    },
    {
      "inputs": [
        {
          "internalType": "address",
          "name": "sender",
          "type": "address"
        },
        {
          "internalType": "uint256",
          "name": "balance",
          "type": "uint256"
        },
        {
          "internalType": "uint256",
          "name": "needed",
          "type": "uint256"
        }
      ],
      "name": "ERC20InsufficientBalance",
      "type": "error"
    },
    {
      "inputs": [
        {
          "internalType": "address",
          "name": "approver",
          "type": "address"
        }
      ],
      "name": "ERC20InvalidApprover",
      "type": "error"
    },
    {
      "inputs": [
        {
          "internalType": "address",
          "name": "receiver",
          "type": "address"
        }
      ],
      "name": "ERC20InvalidReceiver",
      "type": "error"
    },
    {
      "inputs": [
        {
          "internalType": "address",
          "name": "sender",
          "type": "address"
        }
      ],
      "name": "ERC20InvalidSender",
      "type": "error"
    },
    {
      "inputs": [
        {
          "internalType": "address",
          "name": "spender",
          "type": "address"
        }
      ],
      "name": "ERC20InvalidSpender",
      "type": "error"
    },
    {
      "inputs": [],
      "name": "EtherNotAccepted",
      "type": "error"
    },
    {
      "inputs": [],
      "name": "InvalidAddress",
      "type": "error"
    },
    {
      "inputs": [],
      "name": "InvalidRecipientAddress",
      "type": "error"
    },
    {
      "inputs": [
        {
          "internalType": "address",
          "name": "owner",
          "type": "address"
        }
      ],
      "name": "OwnableInvalidOwner",
      "type": "error"
    },
    {
      "inputs": [
        {
          "internalType": "address",
          "name": "account",
          "type": "address"
        }
      ],
      "name": "OwnableUnauthorizedAccount",
      "type": "error"
    },
    {
      "inputs": [],
      "name": "ReentrancyGuardReentrantCall",
      "type": "error"
    },
    {
      "inputs": [
        {
          "internalType": "address",
          "name": "token",
          "type": "address"
        }
      ],
      "name": "SafeERC20FailedOperation",
      "type": "error"
    },
    {
      "inputs": [],
      "name": "TokenTransferFailed",
      "type": "error"
    },
    {
      "anonymous": false,
      "inputs": [
        {
          "indexed": true,
          "internalType": "address",
          "name": "owner",
          "type": "address"
        },
        {
          "indexed": true,
          "internalType": "address",
          "name": "spender",
          "type": "address"
        },
        {
          "indexed": false,
          "internalType": "uint256",
          "name": "value",
          "type": "uint256"
        }
      ],
      "name": "Approval",
      "type": "event"
    },
    {
      "anonymous": false,
      "inputs": [
        {
          "indexed": true,
          "internalType": "address",
          "name": "token",
          "type": "address"
        },
        {
          "indexed": true,
          "internalType": "address",
          "name": "to",
          "type": "address"
        },
        {
          "indexed": false,
          "internalType": "uint256",
          "name": "amount",
          "type": "uint256"
        }
      ],
      "name": "ERC20Withdrawn",
      "type": "event"
    },
    {
      "anonymous": false,
      "inputs": [
        {
          "indexed": true,
          "internalType": "address",
          "name": "previousOwner",
          "type": "address"
        },
        {
          "indexed": true,
          "internalType": "address",
          "name": "newOwner",
          "type": "address"
        }
      ],
      "name": "OwnershipTransferred",
      "type": "event"
    },
    {
      "anonymous": false,
      "inputs": [
        {
          "indexed": true,
          "internalType": "address",
          "name": "from",
          "type": "address"
        },
        {
          "indexed": true,
          "internalType": "address",
          "name": "to",
          "type": "address"
        },
        {
          "indexed": false,
          "internalType": "uint256",
          "name": "value",
          "type": "uint256"
        }
      ],
      "name": "Transfer",
      "type": "event"
    },
    {
      "inputs": [
        {
          "internalType": "address",
          "name": "owner",
          "type": "address"
        },
        {
          "internalType": "address",
          "name": "spender",
          "type": "address"
        }
      ],
      "name": "allowance",
      "outputs": [
        {
          "internalType": "uint256",
          "name": "",
          "type": "uint256"
        }
      ],
      "stateMutability": "view",
      "type": "function"
    },
    {
      "inputs": [
        {
          "internalType": "address",
          "name": "spender",
          "type": "address"
        },
        {
          "internalType": "uint256",
          "name": "value",
          "type": "uint256"
        }
      ],
      "name": "approve",
      "outputs": [
        {
          "internalType": "bool",
          "name": "",
          "type": "bool"
        }
      ],
      "stateMutability": "nonpayable",
      "type": "function"
    },
    {
      "inputs": [
        {
          "internalType": "address",
          "name": "account",
          "type": "address"
        }
      ],
      "name": "balanceOf",
      "outputs": [
        {
          "internalType": "uint256",
          "name": "",
          "type": "uint256"
        }
      ],
      "stateMutability": "view",
      "type": "function"
    },
    {
      "inputs": [
        {
          "internalType": "uint256",
          "name": "amount",
          "type": "uint256"
        }
      ],
      "name": "burn",
      "outputs": [],
      "stateMutability": "nonpayable",
      "type": "function"
    },
    {
      "inputs": [],
      "name": "decimals",
      "outputs": [
        {
          "internalType": "uint8",
          "name": "",
          "type": "uint8"
        }
      ],
      "stateMutability": "view",
      "type": "function"
    },
    {
      "inputs": [
        {
          "internalType": "address",
          "name": "to",
          "type": "address"
        },
        {
          "internalType": "uint256",
          "name": "amount",
          "type": "uint256"
        }
      ],
      "name": "mintTokens",
      "outputs": [],
      "stateMutability": "nonpayable",
      "type": "function"
    },
    {
      "inputs": [],
      "name": "name",
      "outputs": [
        {
          "internalType": "string",
          "name": "",
          "type": "string"
        }
      ],
      "stateMutability": "view",
      "type": "function"
    },
    {
      "inputs": [],
      "name": "owner",
      "outputs": [
        {
          "internalType": "address",
          "name": "",
          "type": "address"
        }
      ],
      "stateMutability": "view",
      "type": "function"
    },
    {
      "inputs": [],
      "name": "renounceOwnership",
      "outputs": [],
      "stateMutability": "nonpayable",
      "type": "function"
    },
    {
      "inputs": [],
      "name": "symbol",
      "outputs": [
        {
          "internalType": "string",
          "name": "",
          "type": "string"
        }
      ],
      "stateMutability": "view",
      "type": "function"
    },
    {
      "inputs": [],
      "name": "totalSupply",
      "outputs": [
        {
          "internalType": "uint256",
          "name": "",
          "type": "uint256"
        }
      ],
      "stateMutability": "view",
      "type": "function"
    },
    {
      "inputs": [
        {
          "internalType": "address",
          "name": "to",
          "type": "address"
        },
        {
          "internalType": "uint256",
          "name": "value",
          "type": "uint256"
        }
      ],
      "name": "transfer",
      "outputs": [
        {
          "internalType": "bool",
          "name": "",
          "type": "bool"
        }
      ],
      "stateMutability": "nonpayable",
      "type": "function"
    },
    {
      "inputs": [
        {
          "internalType": "address",
          "name": "from",
          "type": "address"
        },
        {
          "internalType": "address",
          "name": "to",
          "type": "address"
        },
        {
          "internalType": "uint256",
          "name": "value",
          "type": "uint256"
        }
      ],
      "name": "transferFrom",
      "outputs": [
        {
          "internalType": "bool",
          "name": "",
          "type": "bool"
        }
      ],
      "stateMutability": "nonpayable",
      "type": "function"
    },
    {
      "inputs": [
        {
          "internalType": "address",
          "name": "newOwner",
          "type": "address"
        }
      ],
      "name": "transferOwnership",
      "outputs": [],
      "stateMutability": "nonpayable",
      "type": "function"
    },
    {
      "inputs": [
        {
          "internalType": "address",
          "name": "token",
          "type": "address"
        },
        {
          "internalType": "uint256",
          "name": "amount",
          "type": "uint256"
        }
      ],
      "name": "withdrawERC20",
      "outputs": [],
      "stateMutability": "nonpayable",
      "type": "function"
    }
  ],
  "bytecode": "0x608060405234801561001057600080fd5b5060405161103d38038061103d83398101604081905261002f91610294565b336040518060400160405280600a81526020016921b432b9b9aa37b5b2b760b11b81525060405180604001604052806005815260200164434845535360d81b8152508160039081610080919061034c565b50600461008d828261034c565b5050506001600160a01b0381166100bf57604051631e4fbdf760e01b8152600060048201526024015b60405180910390fd5b6100c8816100de565b5060016006556100d83382610130565b50610431565b600580546001600160a01b038381166001600160a01b0319831681179093556040519116919082907f8be0079c531659141344cd1fd0a4f28419497f9722a3daafe3b4186f6b6457e090600090a35050565b6001600160a01b03821661015a5760405163ec442f0560e01b8152600060048201526024016100b6565b6101666000838361016a565b5050565b6001600160a01b03831661019557806002600082825461018a919061040a565b909155506102079050565b6001600160a01b038316600090815260208190526040902054818110156101e85760405163391434e360e21b81526001600160a01b038516600482015260248101829052604481018390526064016100b6565b6001600160a01b03841660009081526020819052604090209082900390555b6001600160a01b03821661022357600280548290039055610242565b6001600160a01b03821660009081526020819052604090208054820190555b816001600160a01b0316836001600160a01b03167fddf252ad1be2c89b69c2b068fc378daa952ba7f163c4a11628f55a4df523b3ef8360405161028791815260200190565b60405180910390a3505050565b6000602082840312156102a657600080fd5b5051919050565b634e487b7160e01b600052604160045260246000fd5b600181811c908216806102d757607f821691505b6020821081036102f757634e487b7160e01b600052602260045260246000fd5b50919050565b601f82111561034757806000526020600020601f840160051c810160208510156103245750805b601f840160051c820191505b818110156103445760008155600101610330565b50505b505050565b81516001600160401b03811115610365576103656102ad565b6103798161037384546102c3565b846102fd565b6020601f8211600181146103ad57600083156103955750848201515b600019600385901b1c1916600184901b178455610344565b600084815260208120601f198516915b828110156103dd57878501518255602094850194600190920191016103bd565b50848210156103fb5786840151600019600387901b60f8161c191681555b50505050600190811b01905550565b8082018082111561042b57634e487b7160e01b600052601160045260246000fd5b92915050565b610bfd806104406000396000f3fe608060405234801561001057600080fd5b50600436106100f55760003560e01c8063715018a611610097578063a9059cbb11610066578063a9059cbb146101eb578063dd62ed3e146101fe578063f0dda65c14610237578063f2fde38b1461024a57600080fd5b8063715018a6146101ad5780638da5cb5b146101b557806395d89b41146101d0578063a1db9782146101d857600080fd5b806323b872dd116100d357806323b872dd1461014d578063313ce5671461016057806342966c681461016f57806370a082311461018457600080fd5b806306fdde03146100fa578063095ea7b31461011857806318160ddd1461013b575b600080fd5b61010261025d565b60405161010f9190610a2d565b60405180910390f35b61012b610126366004610a97565b6102ef565b604051901515815260200161010f565b6002545b60405190815260200161010f565b61012b61015b366004610ac1565b610309565b6040516012815260200161010f565b61018261017d366004610afe565b61032d565b005b61013f610192366004610b17565b6001600160a01b031660009081526020819052604090205490565b6101826103d3565b6005546040516001600160a01b03909116815260200161010f565b6101026103e7565b6101826101e6366004610a97565b6103f6565b61012b6101f9366004610a97565b6104b2565b61013f61020c366004610b39565b6001600160a01b03918216600090815260016020908152604080832093909416825291909152205490565b610182610245366004610a97565b6104c0565b610182610258366004610b17565b61052c565b60606003805461026c90610b6c565b80601f016020809104026020016040519081016040528092919081815260200182805461029890610b6c565b80156102e55780601f106102ba576101008083540402835291602001916102e5565b820191906000526020600020905b8154815290600101906020018083116102c857829003601f168201915b5050505050905090565b6000336102fd818585610567565b60019150505b92915050565b600033610317858285610579565b6103228585856105f7565b506001949350505050565b610335610656565b8060000361035657604051635e85ae7360e01b815260040160405180910390fd5b33600090815260208190526040902054818110156103bb5760405162461bcd60e51b815260206004820152601b60248201527f4275726e20616d6f756e7420657863656564732062616c616e6365000000000060448201526064015b60405180910390fd5b6103c53383610680565b506103d06001600655565b50565b6103db6106b6565b6103e560006106e3565b565b60606004805461026c90610b6c565b6103fe6106b6565b610406610656565b306001600160a01b0383160361042f57604051635c61fe1360e01b815260040160405180910390fd5b8060000361045057604051635e85ae7360e01b815260040160405180910390fd5b6104646001600160a01b0383163383610735565b60405181815233906001600160a01b038416907fbfed55bdcd242e3dd0f60ddd7d1e87c67f61c34cd9527b3e6455d841b10253629060200160405180910390a36104ae6001600655565b5050565b6000336102fd8185856105f7565b6104c8610656565b6104d06106b6565b6001600160a01b0382166104f75760405163226ccff560e11b815260040160405180910390fd5b8060000361051857604051635e85ae7360e01b815260040160405180910390fd5b6105228282610787565b6104ae6001600655565b6105346106b6565b6001600160a01b03811661055e57604051631e4fbdf760e01b8152600060048201526024016103b2565b6103d0816106e3565b61057483838360016107bd565b505050565b6001600160a01b0383811660009081526001602090815260408083209386168352929052205460001981146105f157818110156105e257604051637dc7a0d960e11b81526001600160a01b038416600482015260248101829052604481018390526064016103b2565b6105f1848484840360006107bd565b50505050565b6001600160a01b03831661062157604051634b637e8f60e11b8152600060048201526024016103b2565b6001600160a01b03821661064b5760405163ec442f0560e01b8152600060048201526024016103b2565b610574838383610892565b60026006540361067957604051633ee5aeb560e01b815260040160405180910390fd5b6002600655565b6001600160a01b0382166106aa57604051634b637e8f60e11b8152600060048201526024016103b2565b6104ae82600083610892565b6005546001600160a01b031633146103e55760405163118cdaa760e01b81523360048201526024016103b2565b600580546001600160a01b038381166001600160a01b0319831681179093556040519116919082907f8be0079c531659141344cd1fd0a4f28419497f9722a3daafe3b4186f6b6457e090600090a35050565b604080516001600160a01b038416602482015260448082018490528251808303909101815260649091019091526020810180516001600160e01b031663a9059cbb60e01b1790526105749084906109bc565b6001600160a01b0382166107b15760405163ec442f0560e01b8152600060048201526024016103b2565b6104ae60008383610892565b6001600160a01b0384166107e75760405163e602df0560e01b8152600060048201526024016103b2565b6001600160a01b03831661081157604051634a1406b160e11b8152600060048201526024016103b2565b6001600160a01b03808516600090815260016020908152604080832093871683529290522082905580156105f157826001600160a01b0316846001600160a01b03167f8c5be1e5ebec7d5bd14f71427d1e84f3dd0314c0f7b2291e5b200ac8c7c3b9258460405161088491815260200190565b60405180910390a350505050565b6001600160a01b0383166108bd5780600260008282546108b29190610ba6565b9091555061092f9050565b6001600160a01b038316600090815260208190526040902054818110156109105760405163391434e360e21b81526001600160a01b038516600482015260248101829052604481018390526064016103b2565b6001600160a01b03841660009081526020819052604090209082900390555b6001600160a01b03821661094b5760028054829003905561096a565b6001600160a01b03821660009081526020819052604090208054820190555b816001600160a01b0316836001600160a01b03167fddf252ad1be2c89b69c2b068fc378daa952ba7f163c4a11628f55a4df523b3ef836040516109af91815260200190565b60405180910390a3505050565b600080602060008451602086016000885af1806109df576040513d6000823e3d81fd5b50506000513d915081156109f7578060011415610a04565b6001600160a01b0384163b155b156105f157604051635274afe760e01b81526001600160a01b03851660048201526024016103b2565b602081526000825180602084015260005b81811015610a5b5760208186018101516040868401015201610a3e565b506000604082850101526040601f19601f83011684010191505092915050565b80356001600160a01b0381168114610a9257600080fd5b919050565b60008060408385031215610aaa57600080fd5b610ab383610a7b565b946020939093013593505050565b600080600060608486031215610ad657600080fd5b610adf84610a7b565b9250610aed60208501610a7b565b929592945050506040919091013590565b600060208284031215610b1057600080fd5b5035919050565b600060208284031215610b2957600080fd5b610b3282610a7b565b9392505050565b60008060408385031215610b4c57600080fd5b610b5583610a7b565b9150610b6360208401610a7b565b90509250929050565b600181811c90821680610b8057607f821691505b602082108103610ba057634e487b7160e01b600052602260045260246000fd5b50919050565b8082018082111561030357634e487b7160e01b600052601160045260246000fdfea264697066735822122070a9e1255f288b354916d6ea5618346a84b815b53e38d07852c8edc739bbc1a564736f6c634300081b0033",
  "linkReferences": {},
  "deployedLinkReferences": {}
}