{
  "_format": "hh-sol-artifact-1",
  "contractName": "ChessControl",
  "sourceName": "contracts/ChessControl.sol",
  "abi": [
    {
      "inputs": [],
      "stateMutability": "nonpayable",
      "type": "constructor"
    },
    {
      "inputs": [
        {
          "internalType": "uint8",
          "name": "fromType",
          "type": "uint8"
        },
        {
          "internalType": "string",
          "name": "message",
          "type": "string"
        }
      ],
      "name": "UnsupportedPieceType",
      "type": "error"
    },
    {
      "inputs": [
        {
          "internalType": "uint256",
          "name": "gameState",
          "type": "uint256"
        },
        {
          "internalType": "uint8",
          "name": "fromPos",
          "type": "uint8"
        },
        {
          "internalType": "uint32",
          "name": "playerState",
          "type": "uint32"
        },
        {
          "internalType": "bool",
          "name": "currentTurnBlack",
          "type": "bool"
        }
      ],
      "name": "checkBishopValidMoves",
      "outputs": [
        {
          "internalType": "bool",
          "name": "",
          "type": "bool"
        }
      ],
      "stateMutability": "pure",
      "type": "function"
    },
    {
      "inputs": [
        {
          "internalType": "uint256",
          "name": "gameState",
          "type": "uint256"
        },
        {
          "internalType": "uint8",
          "name": "fromPos",
          "type": "uint8"
        },
        {
          "internalType": "int8",
          "name": "step",
          "type": "int8"
        },
        {
          "internalType": "uint8",
          "name": "limitCheck",
          "type": "uint8"
        },
        {
          "internalType": "uint8",
          "name": "kingPos",
          "type": "uint8"
        },
        {
          "internalType": "bool",
          "name": "currentTurnBlack",
          "type": "bool"
        }
      ],
      "name": "checkDirectionBishop",
      "outputs": [
        {
          "internalType": "bool",
          "name": "",
          "type": "bool"
        }
      ],
      "stateMutability": "pure",
      "type": "function"
    },
    {
      "inputs": [
        {
          "internalType": "uint256",
          "name": "gameState",
          "type": "uint256"
        },
        {
          "internalType": "uint8",
          "name": "fromPos",
          "type": "uint8"
        },
        {
          "internalType": "int8",
          "name": "step",
          "type": "int8"
        },
        {
          "internalType": "uint8",
          "name": "limitCheck",
          "type": "uint8"
        },
        {
          "internalType": "uint8",
          "name": "kingPos",
          "type": "uint8"
        },
        {
          "internalType": "bool",
          "name": "currentTurnBlack",
          "type": "bool"
        }
      ],
      "name": "checkDirectionQueen",
      "outputs": [
        {
          "internalType": "bool",
          "name": "",
          "type": "bool"
        }
      ],
      "stateMutability": "pure",
      "type": "function"
    },
    {
      "inputs": [
        {
          "internalType": "uint256",
          "name": "gameState",
          "type": "uint256"
        },
        {
          "internalType": "uint8",
          "name": "fromPos",
          "type": "uint8"
        },
        {
          "internalType": "int8",
          "name": "step",
          "type": "int8"
        },
        {
          "internalType": "uint8",
          "name": "limitCheck",
          "type": "uint8"
        },
        {
          "internalType": "uint8",
          "name": "kingPos",
          "type": "uint8"
        },
        {
          "internalType": "bool",
          "name": "currentTurnBlack",
          "type": "bool"
        }
      ],
      "name": "checkDirectionRook",
      "outputs": [
        {
          "internalType": "bool",
          "name": "",
          "type": "bool"
        }
      ],
      "stateMutability": "pure",
      "type": "function"
    },
    {
      "inputs": [
        {
          "internalType": "uint256",
          "name": "gameState",
          "type": "uint256"
        },
        {
          "internalType": "uint32",
          "name": "playerState",
          "type": "uint32"
        },
        {
          "internalType": "uint32",
          "name": "opponentState",
          "type": "uint32"
        }
      ],
      "name": "checkEndgame",
      "outputs": [
        {
          "internalType": "uint8",
          "name": "",
          "type": "uint8"
        }
      ],
      "stateMutability": "pure",
      "type": "function"
    },
    {
      "inputs": [
        {
          "internalType": "uint256",
          "name": "gameState",
          "type": "uint256"
        },
        {
          "internalType": "uint32",
          "name": "playerState",
          "type": "uint32"
        }
      ],
      "name": "checkForCheck",
      "outputs": [
        {
          "internalType": "bool",
          "name": "",
          "type": "bool"
        }
      ],
      "stateMutability": "pure",
      "type": "function"
    },
    {
      "inputs": [
        {
          "internalType": "uint256",
          "name": "startingGameState",
          "type": "uint256"
        },
        {
          "internalType": "uint32",
          "name": "startingPlayerState",
          "type": "uint32"
        },
        {
          "internalType": "uint32",
          "name": "startingOpponentState",
          "type": "uint32"
        },
        {
          "internalType": "bool",
          "name": "startingTurnBlack",
          "type": "bool"
        },
        {
          "internalType": "uint16[]",
          "name": "moves",
          "type": "uint16[]"
        }
      ],
      "name": "checkGame",
      "outputs": [
        {
          "internalType": "uint8",
          "name": "outcome",
          "type": "uint8"
        },
        {
          "internalType": "uint256",
          "name": "gameState",
          "type": "uint256"
        },
        {
          "internalType": "uint32",
          "name": "playerState",
          "type": "uint32"
        },
        {
          "internalType": "uint32",
          "name": "opponentState",
          "type": "uint32"
        }
      ],
      "stateMutability": "pure",
      "type": "function"
    },
    {
      "inputs": [
        {
          "internalType": "uint16[]",
          "name": "moves",
          "type": "uint16[]"
        }
      ],
      "name": "checkGameFromStart",
      "outputs": [
        {
          "internalType": "uint8",
          "name": "",
          "type": "uint8"
        },
        {
          "internalType": "uint256",
          "name": "",
          "type": "uint256"
        },
        {
          "internalType": "uint32",
          "name": "",
          "type": "uint32"
        },
        {
          "internalType": "uint32",
          "name": "",
          "type": "uint32"
        }
      ],
      "stateMutability": "pure",
      "type": "function"
    },
    {
      "inputs": [
        {
          "internalType": "uint256",
          "name": "gameState",
          "type": "uint256"
        },
        {
          "internalType": "uint8",
          "name": "fromPos",
          "type": "uint8"
        },
        {
          "internalType": "uint32",
          "name": "playerState",
          "type": "uint32"
        },
        {
          "internalType": "bool",
          "name": "currentTurnBlack",
          "type": "bool"
        }
      ],
      "name": "checkKingValidMoves",
      "outputs": [
        {
          "internalType": "bool",
          "name": "",
          "type": "bool"
        }
      ],
      "stateMutability": "pure",
      "type": "function"
    },
    {
      "inputs": [
        {
          "internalType": "uint256",
          "name": "gameState",
          "type": "uint256"
        },
        {
          "internalType": "uint8",
          "name": "fromPos",
          "type": "uint8"
        },
        {
          "internalType": "uint32",
          "name": "playerState",
          "type": "uint32"
        },
        {
          "internalType": "bool",
          "name": "currentTurnBlack",
          "type": "bool"
        }
      ],
      "name": "checkKnightValidMoves",
      "outputs": [
        {
          "internalType": "bool",
          "name": "",
          "type": "bool"
        }
      ],
      "stateMutability": "pure",
      "type": "function"
    },
    {
      "inputs": [
        {
          "internalType": "uint256",
          "name": "gameState",
          "type": "uint256"
        },
        {
          "internalType": "uint8",
          "name": "fromPos",
          "type": "uint8"
        },
        {
          "internalType": "uint32",
          "name": "playerState",
          "type": "uint32"
        },
        {
          "internalType": "uint32",
          "name": "opponentState",
          "type": "uint32"
        },
        {
          "internalType": "bool",
          "name": "currentTurnBlack",
          "type": "bool"
        }
      ],
      "name": "checkPawnValidMoves",
      "outputs": [
        {
          "internalType": "bool",
          "name": "",
          "type": "bool"
        }
      ],
      "stateMutability": "pure",
      "type": "function"
    },
    {
      "inputs": [
        {
          "internalType": "uint256",
          "name": "gameState",
          "type": "uint256"
        },
        {
          "internalType": "uint8",
          "name": "fromPos",
          "type": "uint8"
        },
        {
          "internalType": "uint32",
          "name": "playerState",
          "type": "uint32"
        },
        {
          "internalType": "bool",
          "name": "currentTurnBlack",
          "type": "bool"
        }
      ],
      "name": "checkQueenValidMoves",
      "outputs": [
        {
          "internalType": "bool",
          "name": "",
          "type": "bool"
        }
      ],
      "stateMutability": "pure",
      "type": "function"
    },
    {
      "inputs": [
        {
          "internalType": "uint256",
          "name": "gameState",
          "type": "uint256"
        },
        {
          "internalType": "uint8",
          "name": "fromPos",
          "type": "uint8"
        },
        {
          "internalType": "uint32",
          "name": "playerState",
          "type": "uint32"
        },
        {
          "internalType": "bool",
          "name": "currentTurnBlack",
          "type": "bool"
        }
      ],
      "name": "checkRookValidMoves",
      "outputs": [
        {
          "internalType": "bool",
          "name": "",
          "type": "bool"
        }
      ],
      "stateMutability": "pure",
      "type": "function"
    },
    {
      "inputs": [
        {
          "internalType": "uint256",
          "name": "gameState",
          "type": "uint256"
        },
        {
          "internalType": "uint8",
          "name": "fromPos",
          "type": "uint8"
        },
        {
          "internalType": "uint8",
          "name": "toPos",
          "type": "uint8"
        }
      ],
      "name": "commitMove",
      "outputs": [
        {
          "internalType": "uint256",
          "name": "newGameState",
          "type": "uint256"
        }
      ],
      "stateMutability": "pure",
      "type": "function"
    },
    {
      "inputs": [
        {
          "internalType": "uint8",
          "name": "fromPos",
          "type": "uint8"
        },
        {
          "internalType": "uint8",
          "name": "toPos",
          "type": "uint8"
        }
      ],
      "name": "getHorizontalMovement",
      "outputs": [
        {
          "internalType": "uint8",
          "name": "",
          "type": "uint8"
        }
      ],
      "stateMutability": "pure",
      "type": "function"
    },
    {
      "inputs": [
        {
          "internalType": "uint8",
          "name": "fromPos",
          "type": "uint8"
        },
        {
          "internalType": "uint8",
          "name": "toPos",
          "type": "uint8"
        }
      ],
      "name": "getInBetweenMask",
      "outputs": [
        {
          "internalType": "uint256",
          "name": "",
          "type": "uint256"
        }
      ],
      "stateMutability": "pure",
      "type": "function"
    },
    {
      "inputs": [
        {
          "internalType": "uint8",
          "name": "pos",
          "type": "uint8"
        }
      ],
      "name": "getPositionMask",
      "outputs": [
        {
          "internalType": "uint256",
          "name": "",
          "type": "uint256"
        }
      ],
      "stateMutability": "pure",
      "type": "function"
    },
    {
      "inputs": [
        {
          "internalType": "uint8",
          "name": "fromPos",
          "type": "uint8"
        },
        {
          "internalType": "uint8",
          "name": "toPos",
          "type": "uint8"
        }
      ],
      "name": "getVerticalMovement",
      "outputs": [
        {
          "internalType": "uint8",
          "name": "",
          "type": "uint8"
        }
      ],
      "stateMutability": "pure",
      "type": "function"
    },
    {
      "inputs": [
        {
          "internalType": "uint256",
          "name": "gameState",
          "type": "uint256"
        },
        {
          "internalType": "uint8",
          "name": "pos",
          "type": "uint8"
        }
      ],
      "name": "pieceAtPosition",
      "outputs": [
        {
          "internalType": "uint8",
          "name": "",
          "type": "uint8"
        }
      ],
      "stateMutability": "pure",
      "type": "function"
    },
    {
      "inputs": [
        {
          "internalType": "uint256",
          "name": "gameState",
          "type": "uint256"
        },
        {
          "internalType": "uint8",
          "name": "pos",
          "type": "uint8"
        }
      ],
      "name": "pieceUnderAttack",
      "outputs": [
        {
          "internalType": "bool",
          "name": "",
          "type": "bool"
        }
      ],
      "stateMutability": "pure",
      "type": "function"
    },
    {
      "inputs": [
        {
          "internalType": "uint256",
          "name": "gameState",
          "type": "uint256"
        },
        {
          "internalType": "uint32",
          "name": "playerState",
          "type": "uint32"
        },
        {
          "internalType": "uint32",
          "name": "opponentState",
          "type": "uint32"
        },
        {
          "internalType": "uint8",
          "name": "color",
          "type": "uint8"
        },
        {
          "internalType": "uint16",
          "name": "pBitOffset",
          "type": "uint16"
        },
        {
          "internalType": "uint16",
          "name": "bitSize",
          "type": "uint16"
        }
      ],
      "name": "searchPiece",
      "outputs": [
        {
          "internalType": "bool",
          "name": "",
          "type": "bool"
        }
      ],
      "stateMutability": "pure",
      "type": "function"
    },
    {
      "inputs": [
        {
          "internalType": "uint256",
          "name": "gameState",
          "type": "uint256"
        },
        {
          "internalType": "uint8",
          "name": "pos",
          "type": "uint8"
        },
        {
          "internalType": "uint8",
          "name": "piece",
          "type": "uint8"
        }
      ],
      "name": "setPosition",
      "outputs": [
        {
          "internalType": "uint256",
          "name": "",
          "type": "uint256"
        }
      ],
      "stateMutability": "pure",
      "type": "function"
    },
    {
      "inputs": [
        {
          "internalType": "uint256",
          "name": "gameState",
          "type": "uint256"
        },
        {
          "internalType": "uint8",
          "name": "fromPos",
          "type": "uint8"
        },
        {
          "internalType": "uint8",
          "name": "toPos",
          "type": "uint8"
        },
        {
          "internalType": "bool",
          "name": "currentTurnBlack",
          "type": "bool"
        }
      ],
      "name": "verifyExecuteBishopMove",
      "outputs": [
        {
          "internalType": "uint256",
          "name": "",
          "type": "uint256"
        }
      ],
      "stateMutability": "pure",
      "type": "function"
    },
    {
      "inputs": [
        {
          "internalType": "uint256",
          "name": "gameState",
          "type": "uint256"
        },
        {
          "internalType": "uint8",
          "name": "fromPos",
          "type": "uint8"
        },
        {
          "internalType": "uint8",
          "name": "toPos",
          "type": "uint8"
        },
        {
          "internalType": "bool",
          "name": "currentTurnBlack",
          "type": "bool"
        },
        {
          "internalType": "uint32",
          "name": "playerState",
          "type": "uint32"
        }
      ],
      "name": "verifyExecuteKingMove",
      "outputs": [
        {
          "internalType": "uint256",
          "name": "newGameState",
          "type": "uint256"
        },
        {
          "internalType": "uint32",
          "name": "newPlayerState",
          "type": "uint32"
        }
      ],
      "stateMutability": "pure",
      "type": "function"
    },
    {
      "inputs": [
        {
          "internalType": "uint256",
          "name": "gameState",
          "type": "uint256"
        },
        {
          "internalType": "uint8",
          "name": "fromPos",
          "type": "uint8"
        },
        {
          "internalType": "uint8",
          "name": "toPos",
          "type": "uint8"
        },
        {
          "internalType": "bool",
          "name": "currentTurnBlack",
          "type": "bool"
        }
      ],
      "name": "verifyExecuteKnightMove",
      "outputs": [
        {
          "internalType": "uint256",
          "name": "",
          "type": "uint256"
        }
      ],
      "stateMutability": "pure",
      "type": "function"
    },
    {
      "inputs": [
        {
          "internalType": "uint256",
          "name": "gameState",
          "type": "uint256"
        },
        {
          "internalType": "uint16",
          "name": "move",
          "type": "uint16"
        },
        {
          "internalType": "uint32",
          "name": "playerState",
          "type": "uint32"
        },
        {
          "internalType": "uint32",
          "name": "opponentState",
          "type": "uint32"
        },
        {
          "internalType": "bool",
          "name": "currentTurnBlack",
          "type": "bool"
        }
      ],
      "name": "verifyExecuteMove",
      "outputs": [
        {
          "internalType": "uint256",
          "name": "newGameState",
          "type": "uint256"
        },
        {
          "internalType": "uint32",
          "name": "newPlayerState",
          "type": "uint32"
        },
        {
          "internalType": "uint32",
          "name": "newOpponentState",
          "type": "uint32"
        }
      ],
      "stateMutability": "pure",
      "type": "function"
    },
    {
      "inputs": [
        {
          "internalType": "uint256",
          "name": "gameState",
          "type": "uint256"
        },
        {
          "internalType": "uint8",
          "name": "fromPos",
          "type": "uint8"
        },
        {
          "internalType": "uint8",
          "name": "toPos",
          "type": "uint8"
        },
        {
          "internalType": "uint8",
          "name": "moveExtra",
          "type": "uint8"
        },
        {
          "internalType": "bool",
          "name": "currentTurnBlack",
          "type": "bool"
        },
        {
          "internalType": "uint32",
          "name": "playerState",
          "type": "uint32"
        },
        {
          "internalType": "uint32",
          "name": "opponentState",
          "type": "uint32"
        }
      ],
      "name": "verifyExecutePawnMove",
      "outputs": [
        {
          "internalType": "uint256",
          "name": "newGameState",
          "type": "uint256"
        },
        {
          "internalType": "uint32",
          "name": "newPlayerState",
          "type": "uint32"
        }
      ],
      "stateMutability": "pure",
      "type": "function"
    },
    {
      "inputs": [
        {
          "internalType": "uint256",
          "name": "gameState",
          "type": "uint256"
        },
        {
          "internalType": "uint8",
          "name": "fromPos",
          "type": "uint8"
        },
        {
          "internalType": "uint8",
          "name": "toPos",
          "type": "uint8"
        },
        {
          "internalType": "bool",
          "name": "currentTurnBlack",
          "type": "bool"
        }
      ],
      "name": "verifyExecuteQueenMove",
      "outputs": [
        {
          "internalType": "uint256",
          "name": "",
          "type": "uint256"
        }
      ],
      "stateMutability": "pure",
      "type": "function"
    },
    {
      "inputs": [
        {
          "internalType": "uint256",
          "name": "gameState",
          "type": "uint256"
        },
        {
          "internalType": "uint8",
          "name": "fromPos",
          "type": "uint8"
        },
        {
          "internalType": "uint8",
          "name": "toPos",
          "type": "uint8"
        },
        {
          "internalType": "bool",
          "name": "currentTurnBlack",
          "type": "bool"
        }
      ],
      "name": "verifyExecuteRookMove",
      "outputs": [
        {
          "internalType": "uint256",
          "name": "",
          "type": "uint256"
        }
      ],
      "stateMutability": "pure",
      "type": "function"
    },
    {
      "inputs": [
        {
          "internalType": "uint256",
          "name": "gameState",
          "type": "uint256"
        },
        {
          "internalType": "uint8",
          "name": "pos",
          "type": "uint8"
        }
      ],
      "name": "zeroPosition",
      "outputs": [
        {
          "internalType": "uint256",
          "name": "",
          "type": "uint256"
        }
      ],
      "stateMutability": "pure",
      "type": "function"
    }
  ],
  "bytecode": "0x6080604052348015600f57600080fd5b50612b128061001f6000396000f3fe608060405234801561001057600080fd5b50600436106101da5760003560e01c8063a4a10e0b11610104578063d35f8953116100a2578063ebbb04aa11610071578063ebbb04aa1461044c578063ed977f7b1461045f578063fd997c7214610472578063ff7e513f146104a757600080fd5b8063d35f895314610400578063dc416a2a14610413578063e7f9b59314610426578063eb4850421461043957600080fd5b8063b5511f9c116100de578063b5511f9c14610384578063c5f22a5a14610397578063c668ddb4146103aa578063cf1e5b80146103ed57600080fd5b8063a4a10e0b1461034b578063a72d6d1d1461035e578063ae9be37a1461037157600080fd5b80633d92e6471161017c5780637dfd04e41161014b5780637dfd04e4146102ff5780638a0cb8eb146103125780638ad3b18814610325578063a14e3e861461033857600080fd5b80633d92e647146102b35780634750a939146102c65780635966567f146102d95780636ace1036146102ec57600080fd5b80632ba5c65d116101b85780632ba5c65d1461023b5780632e6daa401461026857806330d6d5491461027b578063385a621c1461028e57600080fd5b806303134e26146101df5780632098b5c0146102055780632b0d8b1f14610218575b600080fd5b6101f26101ed366004612371565b6104ba565b6040519081526020015b60405180910390f35b6101f26102133660046123a4565b610672565b61022b6102263660046123e5565b6106ac565b60405190151581526020016101fc565b61024e610249366004612462565b61086d565b6040805192835263ffffffff9091166020830152016101fc565b6101f26102763660046124e1565b610b16565b61022b61028936600461251d565b610b66565b6102a161029c366004612540565b610c93565b60405160ff90911681526020016101fc565b61022b6102c1366004612573565b610d1b565b6102a16102d4366004612371565b610e21565b61022b6102e73660046125c0565b610e6a565b6101f26102fa366004612629565b610f05565b61022b61030d366004612573565b610f9d565b61022b6103203660046125c0565b611032565b61022b610333366004612573565b6110be565b6101f2610346366004612629565b6111b6565b6102a161035936600461251d565b61121d565b6101f261036c366004612629565b61125e565b61022b61037f366004612573565b6112ee565b6101f2610392366004612629565b611369565b6101f26103a53660046124e1565b6113ec565b6103bd6103b8366004612719565b61141b565b6040805160ff9095168552602085019390935263ffffffff918216928401929092521660608201526080016101fc565b61024e6103fb36600461274e565b6114b6565b6102a161040e366004612371565b6116b5565b6103bd6104213660046127ac565b6116e4565b61022b610434366004612573565b611976565b6101f261044736600461251d565b611a6f565b61022b61045a366004612825565b611ab1565b61022b61046d3660046125c0565b611ae9565b610485610480366004612848565b611b75565b6040805193845263ffffffff92831660208501529116908201526060016101fc565b61022b6104b536600461289a565b611df4565b6000806104c784846116b5565b905060006104d58585610e21565b90508060ff168260ff1614806104ec575060ff8216155b806104f8575060ff8116155b61051d5760405162461bcd60e51b8152600401610514906128c2565b60405180910390fd5b600061052886610672565b9050600061053586610672565b905060006105496007808a16908916612904565b90506000610564601f60038b811c821691908b901c16612904565b90506000808360000b13801561057d575060008260000b135b80610599575060008360000b128015610599575060008260000b125b156105a657506024610629565b8260000b60001480156105bd57508160000b600014155b156105ca57506020610629565b60008360000b1380156105e0575060008260000b125b806105fc575060008360000b1280156105fc575060008260000b135b156106095750601c610629565b8260000b60001415801561062057508160000b6000145b15610629575060045b60005b8585146106625784861015610649578160ff1686901b9550610653565b8160ff1686901c95505b85851461065d5785175b61062c565b9750505050505050505b92915050565b6000610682600783166004612925565b610694601f600385901c166020612925565b61069e9190612948565b60ff16600f901b9050919050565b6000600461ffff831611156107525760006106c8600284612977565b905060001961ffff82161b196000816106e1848861299b565b61ffff168b901c1690508015610719576107088a8a8a8a610702888c61299b565b886106ac565b156107195760019350505050610863565b61ffff86168a901c82168015610749576107378b8b8b8b8b896106ac565b15610749576001945050505050610863565b5050505061085f565b600f61ffff841688901c16801580159061077157506008811660ff8616145b1561085d576000610783600486612977565b905060ff86161515600783166006811480156107a657506107a68b848c85611976565b806107c7575060ff811660011480156107c757506107c78b848c8c86611df4565b806107e7575060ff811660031480156107e757506107e78b848c85610d1b565b80610807575060ff8116600414801561080757506108078b848c85610f9d565b80610827575060ff8116600214801561082757506108278b848c856112ee565b80610847575060ff8116600514801561084757506108478b848c856110be565b15610859576001945050505050610863565b5050505b505b5060005b9695505050505050565b60008284151560ff808a16908916101461088e575060001990506000610b0a565b60008760ff168960ff16116108ac576108a789896129b5565b6108b6565b6108b6888a6129b5565b905060006108c48b8a61121d565b90508160ff16600814806108db57508160ff166010145b156109ac5760ff8116156108f9576000196000935093505050610b0a565b8160ff166010036109a75786801561091957506006601f60038c901c1614155b8061093557508615801561093557506001601f60038c901c1614155b1561094a576000196000935093505050610b0a565b60008a60ff168a60ff1611610969576109648a6008612948565b610974565b6109748b6008612948565b90506109808c8261121d565b60ff161561099957600019600094509450505050610b0a565b8060ff1660ff198516179350505b610a32565b8160ff16600714806109c157508160ff166009145b15610a22576109d08a8a610e21565b60ff166001146109ea576000196000935093505050610b0a565b60ff858116908a16146109a75760ff81161580610a0d5750861515600882811614145b156109a7576000196000935093505050610b0a565b6000196000935093505050610b0a565b610a3d8b8b8b6113ec565b9350868015610a515750601f60038a901c16155b80610a6c575086158015610a6c57506007601f60038b901c16145b15610b075760ff881660021480610a86575060ff88166003145b80610a94575060ff88166004145b80610aa2575060ff88166005145b610ae25760405162461bcd60e51b815260206004820152601160248201527024b73b30b634b210383937b6b7ba34b7b760791b6044820152606401610514565b610b04610aef858b611a6f565b8a89610afb578a610b16565b60088b17610b16565b93505b50505b97509795505050505050565b600060408360ff1610610b3b5760405162461bcd60e51b8152600401610514906129ce565b6000610b48600485612925565b600f60ff91821690811b198716918516901b179150505b9392505050565b600080610b74600484612925565b60ff1684901c600f1690506000806008831660ff1611610b95576008610b98565b60005b6001179050600060088316610bae576008610bb1565b60005b6002179050600060088416610bc7576008610bca565b60005b6003179050600060088516610be0576008610be3565b60005b6004179050600060088616610bf9576008610bfc565b60005b6005179050600060088716610c12576008610c15565b60005b60061790506000610c298b8b868686611f17565b80610c3d5750610c3d8b8b8886868c612081565b80610c4e5750610c4e8b8b876121a3565b905080610662576000610c678c8c60088c16151561227e565b90508015610c81576001995050505050505050505061066c565b6000995050505050505050505061066c565b6000600883901c62ffffff16600684811c60fc1686901c600f811691600790911614610cc157610cc1612a14565b6000610cd78787876008861660006101006106ac565b9050610ce38787611ab1565b15610d015780610cf4576002610cf7565b60005b9350505050610b5f565b80610d0d576001610d10565b60005b979650505050505050565b6040805161010081018252600681526005196020820152600a9181019190915260091960608201526011608082015260101960a0820152600f60c0820152600e1960e0820152600090819062ffffff600886901c1690825b60088160ff161015610e10576000828260ff1660088110610d9657610d96612a2a565b6020020151610da5908a612a40565b905060008160000b12158015610dbe575060408160000b125b15610dfd57610dcf8a8a838a61125e565b94506000198514158015610dea5750610de88585610b66565b155b15610dfd57600195505050505050610e19565b5080610e0881612a61565b915050610d73565b50600093505050505b949350505050565b6000600382811c601f9081169185901c1611610e5357610e4e601f600385811c8216919085901c166129b5565b610b5f565b610b5f601f600384811c8216919086901c166129b5565b60008080610e788789612a40565b90505b6007811660ff871614801590610e94575060408160ff16105b15610ef657610ea589898387610f05565b91506000198214158015610ec05750610ebe8286610b66565b155b15610ed057600192505050610863565b600f60fc600283901b168a901c16600003610ef657610eef8782612a40565b9050610e7b565b50600098975050505050505050565b600080610f12868561121d565b905060ff811615610f365782151560088281161403610f3657600019915050610e19565b6000610f4286866116b5565b90506000610f508787610e21565b905060ff828116151590821615151480610f745750610f6f87876104ba565b881615155b15610f86576000199350505050610e19565b610f918888886113ec565b98975050505050505050565b600062ffffff600884901c16610fb98686600019858588610e6a565b15610fc8576001915050610e19565b610fd88686600160078588610e6a565b15610fe7576001915050610e19565b610ff78686600860408588610e6a565b15611006576001915050610e19565b611017868660071960408588610e6a565b15611026576001915050610e19565b50600095945050505050565b600080806110408789612a40565b90505b6007811660ff87161480159061105c575060408160ff16105b15610ef65761106d89898387611369565b9150600019821415801561108857506110868286610b66565b155b1561109857600192505050610863565b600f60fc600283901b168a901c16600003610ef6576110b78782612a40565b9050611043565b600062ffffff600884901c166110da8686600019858588611032565b156110e9576001915050610e19565b6110f98686600160078588611032565b15611108576001915050610e19565b6111188686600860408588611032565b15611127576001915050610e19565b611138868660071960408588611032565b15611147576001915050610e19565b6111578686600960078588611032565b15611166576001915050610e19565b6111768686600760008588611032565b15611185576001915050610e19565b611196868660061960078588611032565b156111a5576001915050610e19565b611017868660081960008588611032565b6000806111c3868561121d565b905060ff8116156111e757821515600882811614036111e757600019915050610e19565b60006111f386866116b5565b905060006112018787610e21565b90508060ff168260ff16141580610f745750610f6f87876104ba565b600060408260ff16106112425760405162461bcd60e51b8152600401610514906129ce565b61124d600483612925565b60ff1683901c600f16905092915050565b60008061126b868561121d565b905060ff81161561128f578215156008828116140361128f57600019915050610e19565b600061129b86866116b5565b905060006112a98787610e21565b90508160ff1660021480156112c157508060ff166001145b806112dd57508160ff1660011480156112dd57508060ff166002145b610f86576000199350505050610e19565b600062ffffff600884901c1661130a8686600960078588611ae9565b15611319576001915050610e19565b6113298686600760008588611ae9565b15611338576001915050610e19565b611349868660061960078588611ae9565b15611358576001915050610e19565b611017868660081960008588611ae9565b600080611376868561121d565b905060ff81161561139a578215156008828116140361139a57600019915050610e19565b60006113a686866116b5565b905060006113b48787610e21565b90508060ff168260ff16141580156113ce575060ff821615155b80156113dc575060ff811615155b80610f745750610f6f87876104ba565b6000806113fa600485612925565b600f60ff821681811b19881694509192509086901c16610863838583610b16565b60008060008060008551116114725760405162461bcd60e51b815260206004820152601b60248201527f4d6f7665732061727261792063616e6e6f7420626520656d70747900000000006044820152606401610514565b6114a77fcbaedabc99999999000000000000000000000000000000001111111143265234620704ff63383f3cff6000896116e4565b93509350935093509193509193565b60006380800000821763ffff00ff1661ff00600886901b1617816114da888761121d565b905060ff8116156114fe57841515600882811614036114fe576000199250506116ab565b60408660ff16101580611515575060408760ff1610155b15611525576000199250506116ab565b600061153188886116b5565b9050600061153f8989610e21565b905060018260ff1611158015611559575060018160ff1611155b15611573576115698a8a8a6113ec565b94505050506116ab565b8160ff166002148015611587575060ff8116155b1561169e576115968a8a610b66565b61169e5760ff601887901c81169089166115b1826002612948565b60ff1603611625578a6115c4828c6104ba565b16600003611620576115dc8b8b6103a56001826129b5565b95506115ed8661028960018d6129b5565b611620576116156116098761160360018e6129b5565b8c6113ec565b826103a560018e6129b5565b9550505050506116ab565b61169c565b50601086901c61ffff1660ff891661163e6001836129b5565b60ff160361169c578a611651828c6104ba565b1660000361169c576116698b8b6103a5816001612948565b955061167a866102898c6001612948565b61169c57611615611690876116038d6001612948565b826103a58d6001612948565b505b6000196000945094505050505b9550959350505050565b60006007808316908416116116d457610e4e60078085169084166129b5565b610b5f60078084169085166129b5565b805160009086908690869086906117335760405162461bcd60e51b8152602060048201526013602482015272496e76616c6964206d6f76657320617272617960681b6044820152606401610514565b61200061ffff1686600188516117499190612a80565b8151811061175957611759612a2a565b602002602001015161ffff1603611833576002865110156117b45760405162461bcd60e51b8152602060048201526015602482015274496e76616c696420647261772073657175656e636560581b6044820152606401610514565b61100061ffff1686600288516117ca9190612a80565b815181106117da576117da612a2a565b602002602001015161ffff161461182a5760405162461bcd60e51b8152602060048201526014602482015273125b9d985b1a5908191c985dc81c995c5d595cdd60621b6044820152606401610514565b60019450611969565b61300061ffff1686600188516118499190612a80565b8151811061185957611859612a2a565b602002602001015161ffff1603611894578015156002875161187b9190612a93565b6001140361188a57600261188d565b60035b9450611969565b60005b8651811015611926576118c6858883815181106118b6576118b6612a2a565b6020026020010151868686611b75565b91965090945092506118d88584611ab1565b1561191b5760405162461bcd60e51b8152602060048201526013602482015272496e76616c696420636865636b20737461746560681b6044820152606401610514565b901590600101611897565b506000611934858585610c93565b90508060ff16600203611957578161194d576003611950565b60025b9550611967565b8060ff1660010361196757600195505b505b5095509550955095915050565b60408051610100810182526008198152600719602082015260061991810191909152600019606082015260016080820152600760a0820152600860c0820152600960e08201526000908190815b60088160ff161015611a61576000828260ff16600881106119e6576119e6612a2a565b60200201516119f59089612a40565b905060008160000b12158015611a0e575060408160000b125b15611a4e57611a20898983898b6114b6565b5093506000198414801590611a3c5750611a3a8482610b66565b155b15611a4e576001945050505050610e19565b5080611a5981612a61565b9150506119c3565b506000979650505050505050565b600060408260ff1610611a945760405162461bcd60e51b8152600401610514906129ce565b611a9f600483612925565b60ff16600f901b198316905092915050565b600062ffffff600883901c166007611ac9858361121d565b1660ff16600660ff1614611adf57611adf612a14565b610e198482610b66565b60008080611af78789612a40565b90505b6007811660ff871614801590611b13575060408160ff16105b15610ef657611b24898983876111b6565b91506000198214158015611b3f5750611b3d8286610b66565b155b15611b4f57600192505050610863565b600f60fc600283901b168a901c16600003610ef657611b6e8782612a40565b9050611afa565b60008080603f600688901c8116908816808203611bd45760405162461bcd60e51b815260206004820152601c60248201527f496e76616c6964206d6f76653a207374616c6520706f736974696f6e000000006044820152606401610514565b6000611be08b8461121d565b905060088116151587151514611c445760405162461bcd60e51b815260206004820152602360248201527f496e76616c6964206d6f76653a20696e636f727265637420706965636520636f6044820152623637b960e91b6064820152608401610514565b889450879350600781166000198101611c7857611c6e8c8585600c8f61ffff16901c8c8f8f61086d565b9097509550611d53565b60021960ff821601611c9757611c908c85858b61125e565b9650611d53565b60011960ff821601611caf57611c908c85858b6111b6565b60031960ff821601611d0757611cc78c85858b610f05565b965060ff60108b901c811690851603611ce757628000008a179550611d53565b60ff60188b901c811690851603611d025763800000008a1795505b611d53565b60041960ff821601611d1f57611c908c85858b611369565b60051960ff821601611d3857611c6e8c85858b8e6114b6565b80604051630d94b47960e21b81526004016105149190612aa7565b6000198703611da45760405162461bcd60e51b815260206004820152601860248201527f496e76616c6964206d6f76653a2067616d6520737461746500000000000000006044820152606401610514565b60ff89811690841603611ddf578715611dcd57611dc687610447856008612948565b9650611ddf565b611ddc876104476008866129b5565b96505b60ff8917945050505050955095509592505050565b600080600562ffffff600887901c168285611e335760408051608081018252600781526008602082015260099181019190915260106060820152611e5d565b604080516080810182526006198152600719602082015260081991810191909152600f1960608201525b905060005b60048160ff161015611f04576000828260ff1660048110611e8557611e85612a2a565b6020020151611e94908c612a40565b905060008160000b12158015611ead575060408160000b125b15611ef157611ec18c8c83888c8f8f61086d565b5095506000198614801590611edd5750611edb8685610b66565b155b15611ef15760019650505050505050611f0e565b5080611efc81612a61565b915050611e62565b5060009450505050505b95945050505050565b604080516080810182526008815260071960208201526001918101919091526000196060820152600090815b60048160ff161015611a61576001875b838360ff1660048110611f6857611f68612a2a565b6020020151611f779082612a40565b905060008160000b1280611f8f575060408160000b12155b80611ff65750838360ff1660048110611faa57611faa612a2a565b602002015160000b60011480611fdd5750838360ff1660048110611fd057611fd0612a2a565b602002015160000b600019145b8015611ff65750600381811c601f908116918b901c1614155b61206c576000612007600483612925565b60ff168b901c600f1690508015612062578860ff168160ff16148061203157508760ff168160ff16145b80612049575082801561204957508660ff168160ff16145b1561205c57600195505050505050611f0e565b5061206c565b6000925050611f53565b5050808061207990612a61565b915050611f43565b604080516080810182526009815260076020820152600619918101919091526008196060820152600090815b60048160ff161015610ef6576001885b838360ff16600481106120d2576120d2612a2a565b60200201516120e19082612a40565b905060008160000b12806120f9575060408160000b12155b61218e57600061210a600483612925565b60ff168c901c600f1690508015612184578960ff168160ff16148061213457508860ff168160ff16145b8061216b575082801561216b57508760ff168160ff16148061216b57508660ff168160ff1614801561216b57506008878116908216145b1561217e57600195505050505050610863565b5061218e565b60009250506120bd565b5050808061219b90612a61565b9150506120ad565b604080516101008101825260118152600f6020820152600a9181019190915260066060820152600519608082015260091960a0820152600e1960c082015260101960e0820152600090815b60088160ff161015611026576000828260ff166008811061221157612211612a2a565b60200201516122209087612a40565b905060008160000b12158015612239575060408160000b125b801561225a575060ff851661224f600483612925565b60ff1688901c600f16145b1561226b5760019350505050610b5f565b508061227681612a61565b9150506121ee565b6000808261228d57600e612290565b60065b9050601f600385901c166007851660005b60408160ff161015611a615760006122ba600483612925565b600f60ff9182168b901c1691508516810361235257601f600383901c1660078316600160ff871683116122f6576122f183886129b5565b612300565b61230087846129b5565b60ff161115801561233a575060018560ff168260ff161161232a5761232582876129b5565b612334565b61233486836129b5565b60ff1611155b1561234f576001975050505050505050610b5f565b50505b506001016122a1565b803560ff8116811461236c57600080fd5b919050565b6000806040838503121561238457600080fd5b61238d8361235b565b915061239b6020840161235b565b90509250929050565b6000602082840312156123b657600080fd5b610b5f8261235b565b803563ffffffff8116811461236c57600080fd5b803561ffff8116811461236c57600080fd5b60008060008060008060c087890312156123fe57600080fd5b8635955061240e602088016123bf565b945061241c604088016123bf565b935061242a6060880161235b565b9250612438608088016123d3565b915061244660a088016123d3565b90509295509295509295565b8035801515811461236c57600080fd5b600080600080600080600060e0888a03121561247d57600080fd5b8735965061248d6020890161235b565b955061249b6040890161235b565b94506124a96060890161235b565b93506124b760808901612452565b92506124c560a089016123bf565b91506124d360c089016123bf565b905092959891949750929550565b6000806000606084860312156124f657600080fd5b833592506125066020850161235b565b91506125146040850161235b565b90509250925092565b6000806040838503121561253057600080fd5b8235915061239b6020840161235b565b60008060006060848603121561255557600080fd5b83359250612565602085016123bf565b9150612514604085016123bf565b6000806000806080858703121561258957600080fd5b843593506125996020860161235b565b92506125a7604086016123bf565b91506125b560608601612452565b905092959194509250565b60008060008060008060c087890312156125d957600080fd5b863595506125e96020880161235b565b945060408701358060000b81146125ff57600080fd5b935061260d6060880161235b565b925061261b6080880161235b565b915061244660a08801612452565b6000806000806080858703121561263f57600080fd5b8435935061264f6020860161235b565b92506125a76040860161235b565b634e487b7160e01b600052604160045260246000fd5b600082601f83011261268457600080fd5b813567ffffffffffffffff81111561269e5761269e61265d565b8060051b604051601f19603f830116810181811067ffffffffffffffff821117156126cb576126cb61265d565b6040529182526020818501810192908101868411156126e957600080fd5b6020860192505b8383101561270f57612701836123d3565b8152602092830192016126f0565b5095945050505050565b60006020828403121561272b57600080fd5b813567ffffffffffffffff81111561274257600080fd5b610e1984828501612673565b600080600080600060a0868803121561276657600080fd5b853594506127766020870161235b565b93506127846040870161235b565b925061279260608701612452565b91506127a0608087016123bf565b90509295509295909350565b600080600080600060a086880312156127c457600080fd5b853594506127d4602087016123bf565b93506127e2604087016123bf565b92506127f060608701612452565b9150608086013567ffffffffffffffff81111561280c57600080fd5b61281888828901612673565b9150509295509295909350565b6000806040838503121561283857600080fd5b8235915061239b602084016123bf565b600080600080600060a0868803121561286057600080fd5b85359450612870602087016123d3565b935061287e604087016123bf565b925061288c606087016123bf565b91506127a060808701612452565b600080600080600060a086880312156128b257600080fd5b853594506128706020870161235b565b60208152600061066c60208301600c81526b496e76616c6964206d6f766560a01b602082015260400190565b634e487b7160e01b600052601160045260246000fd5b600082810b9082900b03607f198112607f8213171561066c5761066c6128ee565b60ff8181168382160290811690818114612941576129416128ee565b5092915050565b60ff818116838216019081111561066c5761066c6128ee565b634e487b7160e01b600052601260045260246000fd5b600061ffff83168061298b5761298b612961565b8061ffff84160491505092915050565b61ffff818116838216019081111561066c5761066c6128ee565b60ff828116828216039081111561066c5761066c6128ee565b60208082526026908201527f496e76616c696420706f736974696f6e3a206578636565647320626f617264206040820152656c696d69747360d01b606082015260800190565b634e487b7160e01b600052600160045260246000fd5b634e487b7160e01b600052603260045260246000fd5b600081810b9083900b01607f8113607f198212171561066c5761066c6128ee565b600060ff821660ff8103612a7757612a776128ee565b60010192915050565b8181038181111561066c5761066c6128ee565b600082612aa257612aa2612961565b500690565b60ff82168152604060208201526000610b5f60408301600c81526b496e76616c6964206d6f766560a01b60208201526040019056fea26469706673582212207d5a7daf4aac50ed3faad2b1fe89427fdbcad7ff8add2bc330e7ec609686047464736f6c634300081b0033",
  "linkReferences": {},
  "deployedLinkReferences": {}
}