{
  "_format": "hh-sol-artifact-1",
  "contractName": "ChessFactory",
  "sourceName": "contracts/ChessFactory.sol",
  "abi": [
    {
      "inputs": [
        {
          "internalType": "address",
          "name": "_templateAddress",
          "type": "address"
        }
      ],
      "stateMutability": "nonpayable",
      "type": "constructor"
    },
    {
      "inputs": [],
      "name": "EmptyPseudo",
      "type": "error"
    },
    {
      "inputs": [],
      "name": "EtherTransferFailed",
      "type": "error"
    },
    {
      "inputs": [],
      "name": "FailedDeployment",
      "type": "error"
    },
    {
      "inputs": [],
      "name": "GameAlreadyFull",
      "type": "error"
    },
    {
      "inputs": [],
      "name": "GameDoesNotExist",
      "type": "error"
    },
    {
      "inputs": [],
      "name": "InsufficientAllowance",
      "type": "error"
    },
    {
      "inputs": [
        {
          "internalType": "uint256",
          "name": "balance",
          "type": "uint256"
        },
        {
          "internalType": "uint256",
          "name": "needed",
          "type": "uint256"
        }
      ],
      "name": "InsufficientBalance",
      "type": "error"
    },
    {
      "inputs": [],
      "name": "InsufficientBalance",
      "type": "error"
    },
    {
      "inputs": [],
      "name": "InsufficientContractBalance",
      "type": "error"
    },
    {
      "inputs": [],
      "name": "InsufficientPlatformBalance",
      "type": "error"
    },
    {
      "inputs": [],
      "name": "InvalidBetAmount",
      "type": "error"
    },
    {
      "inputs": [],
      "name": "InvalidChessTokenAddress",
      "type": "error"
    },
    {
      "inputs": [],
      "name": "InvalidTemplateAddress",
      "type": "error"
    },
    {
      "inputs": [],
      "name": "NotParticipant",
      "type": "error"
    },
    {
      "inputs": [
        {
          "internalType": "address",
          "name": "owner",
          "type": "address"
        }
      ],
      "name": "OwnableInvalidOwner",
      "type": "error"
    },
    {
      "inputs": [
        {
          "internalType": "address",
          "name": "account",
          "type": "address"
        }
      ],
      "name": "OwnableUnauthorizedAccount",
      "type": "error"
    },
    {
      "inputs": [],
      "name": "ReentrancyGuardReentrantCall",
      "type": "error"
    },
    {
      "inputs": [],
      "name": "StartIndexOutOfBounds",
      "type": "error"
    },
    {
      "inputs": [],
      "name": "StartTimeInPast",
      "type": "error"
    },
    {
      "inputs": [],
      "name": "TokenTransferFailed",
      "type": "error"
    },
    {
      "inputs": [],
      "name": "UserAlreadyRegistered",
      "type": "error"
    },
    {
      "inputs": [],
      "name": "UserNotRegistered",
      "type": "error"
    },
    {
      "inputs": [],
      "name": "WinnerNotRegistered",
      "type": "error"
    },
    {
      "anonymous": false,
      "inputs": [
        {
          "indexed": true,
          "internalType": "address",
          "name": "buyer",
          "type": "address"
        },
        {
          "indexed": false,
          "internalType": "uint256",
          "name": "ethSpent",
          "type": "uint256"
        },
        {
          "indexed": false,
          "internalType": "uint256",
          "name": "chessBought",
          "type": "uint256"
        }
      ],
      "name": "ChessTokensPurchased",
      "type": "event"
    },
    {
      "anonymous": false,
      "inputs": [
        {
          "indexed": true,
          "internalType": "address",
          "name": "owner",
          "type": "address"
        },
        {
          "indexed": false,
          "internalType": "uint256",
          "name": "amount",
          "type": "uint256"
        }
      ],
      "name": "EtherWithdrawn",
      "type": "event"
    },
    {
      "anonymous": false,
      "inputs": [
        {
          "indexed": true,
          "internalType": "address",
          "name": "gameAddress",
          "type": "address"
        },
        {
          "indexed": false,
          "internalType": "uint256",
          "name": "betAmount",
          "type": "uint256"
        },
        {
          "indexed": false,
          "internalType": "uint256",
          "name": "startTime",
          "type": "uint256"
        }
      ],
      "name": "GameCreated",
      "type": "event"
    },
    {
      "anonymous": false,
      "inputs": [
        {
          "indexed": true,
          "internalType": "address",
          "name": "gameAddress",
          "type": "address"
        },
        {
          "indexed": false,
          "internalType": "address",
          "name": "winner",
          "type": "address"
        },
        {
          "indexed": false,
          "internalType": "uint256",
          "name": "winnerReward",
          "type": "uint256"
        },
        {
          "indexed": false,
          "internalType": "uint256",
          "name": "platformFee",
          "type": "uint256"
        }
      ],
      "name": "GameEnded",
      "type": "event"
    },
    {
      "anonymous": false,
      "inputs": [
        {
          "indexed": true,
          "internalType": "address",
          "name": "gameAddress",
          "type": "address"
        },
        {
          "indexed": false,
          "internalType": "address",
          "name": "player1",
          "type": "address"
        },
        {
          "indexed": false,
          "internalType": "address",
          "name": "player2",
          "type": "address"
        },
        {
          "indexed": false,
          "internalType": "uint256",
          "name": "betAmount",
          "type": "uint256"
        },
        {
          "indexed": false,
          "internalType": "uint256",
          "name": "startTime",
          "type": "uint256"
        }
      ],
      "name": "GameStarted",
      "type": "event"
    },
    {
      "anonymous": false,
      "inputs": [
        {
          "indexed": true,
          "internalType": "address",
          "name": "previousOwner",
          "type": "address"
        },
        {
          "indexed": true,
          "internalType": "address",
          "name": "newOwner",
          "type": "address"
        }
      ],
      "name": "OwnershipTransferred",
      "type": "event"
    },
    {
      "anonymous": false,
      "inputs": [
        {
          "indexed": true,
          "internalType": "address",
          "name": "gameAddress",
          "type": "address"
        },
        {
          "indexed": true,
          "internalType": "address",
          "name": "player",
          "type": "address"
        }
      ],
      "name": "PlayerRegistered",
      "type": "event"
    },
    {
      "anonymous": false,
      "inputs": [
        {
          "indexed": true,
          "internalType": "address",
          "name": "player1",
          "type": "address"
        },
        {
          "indexed": true,
          "internalType": "address",
          "name": "player2",
          "type": "address"
        },
        {
          "indexed": true,
          "internalType": "address",
          "name": "winner",
          "type": "address"
        },
        {
          "indexed": false,
          "internalType": "uint256",
          "name": "platformFee",
          "type": "uint256"
        },
        {
          "indexed": false,
          "internalType": "uint256",
          "name": "reward",
          "type": "uint256"
        }
      ],
      "name": "RewardsDistributed",
      "type": "event"
    },
    {
      "anonymous": false,
      "inputs": [
        {
          "indexed": true,
          "internalType": "address",
          "name": "owner",
          "type": "address"
        },
        {
          "indexed": false,
          "internalType": "uint256",
          "name": "amount",
          "type": "uint256"
        }
      ],
      "name": "TokensWithdrawn",
      "type": "event"
    },
    {
      "anonymous": false,
      "inputs": [
        {
          "indexed": true,
          "internalType": "address",
          "name": "user",
          "type": "address"
        },
        {
          "indexed": false,
          "internalType": "string",
          "name": "pseudo",
          "type": "string"
        },
        {
          "indexed": false,
          "internalType": "uint256",
          "name": "initialBalance",
          "type": "uint256"
        }
      ],
      "name": "UserRegistered",
      "type": "event"
    },
    {
      "inputs": [
        {
          "internalType": "uint256",
          "name": "amountInEth",
          "type": "uint256"
        }
      ],
      "name": "buyChessTokens",
      "outputs": [],
      "stateMutability": "payable",
      "type": "function"
    },
    {
      "inputs": [],
      "name": "chessTokenAddress",
      "outputs": [
        {
          "internalType": "address",
          "name": "",
          "type": "address"
        }
      ],
      "stateMutability": "view",
      "type": "function"
    },
    {
      "inputs": [
        {
          "internalType": "uint256",
          "name": "betAmount",
          "type": "uint256"
        },
        {
          "internalType": "uint256",
          "name": "startTime",
          "type": "uint256"
        }
      ],
      "name": "createGame",
      "outputs": [],
      "stateMutability": "nonpayable",
      "type": "function"
    },
    {
      "inputs": [
        {
          "internalType": "uint256",
          "name": "amount",
          "type": "uint256"
        }
      ],
      "name": "depositTokens",
      "outputs": [],
      "stateMutability": "nonpayable",
      "type": "function"
    },
    {
      "inputs": [
        {
          "internalType": "address",
          "name": "player1",
          "type": "address"
        },
        {
          "internalType": "address",
          "name": "player2",
          "type": "address"
        },
        {
          "internalType": "address",
          "name": "winner",
          "type": "address"
        },
        {
          "internalType": "uint256",
          "name": "platformFee",
          "type": "uint256"
        },
        {
          "internalType": "uint256",
          "name": "reward",
          "type": "uint256"
        }
      ],
      "name": "distributeRewards",
      "outputs": [],
      "stateMutability": "nonpayable",
      "type": "function"
    },
    {
      "inputs": [
        {
          "internalType": "address",
          "name": "",
          "type": "address"
        }
      ],
      "name": "gameDetails",
      "outputs": [
        {
          "internalType": "address",
          "name": "gameAddress",
          "type": "address"
        },
        {
          "components": [
            {
              "internalType": "address",
              "name": "userAddress",
              "type": "address"
            },
            {
              "internalType": "string",
              "name": "pseudo",
              "type": "string"
            },
            {
              "internalType": "uint256",
              "name": "balance",
              "type": "uint256"
            }
          ],
          "internalType": "struct ChessFactory.User",
          "name": "player1",
          "type": "tuple"
        },
        {
          "components": [
            {
              "internalType": "address",
              "name": "userAddress",
              "type": "address"
            },
            {
              "internalType": "string",
              "name": "pseudo",
              "type": "string"
            },
            {
              "internalType": "uint256",
              "name": "balance",
              "type": "uint256"
            }
          ],
          "internalType": "struct ChessFactory.User",
          "name": "player2",
          "type": "tuple"
        },
        {
          "internalType": "uint256",
          "name": "betAmount",
          "type": "uint256"
        },
        {
          "internalType": "uint256",
          "name": "startTime",
          "type": "uint256"
        }
      ],
      "stateMutability": "view",
      "type": "function"
    },
    {
      "inputs": [
        {
          "internalType": "uint256",
          "name": "",
          "type": "uint256"
        }
      ],
      "name": "games",
      "outputs": [
        {
          "internalType": "address",
          "name": "",
          "type": "address"
        }
      ],
      "stateMutability": "view",
      "type": "function"
    },
    {
      "inputs": [
        {
          "internalType": "address",
          "name": "gameAddress",
          "type": "address"
        }
      ],
      "name": "getGameDetails",
      "outputs": [
        {
          "components": [
            {
              "internalType": "address",
              "name": "gameAddress",
              "type": "address"
            },
            {
              "components": [
                {
                  "internalType": "address",
                  "name": "userAddress",
                  "type": "address"
                },
                {
                  "internalType": "string",
                  "name": "pseudo",
                  "type": "string"
                },
                {
                  "internalType": "uint256",
                  "name": "balance",
                  "type": "uint256"
                }
              ],
              "internalType": "struct ChessFactory.User",
              "name": "player1",
              "type": "tuple"
            },
            {
              "components": [
                {
                  "internalType": "address",
                  "name": "userAddress",
                  "type": "address"
                },
                {
                  "internalType": "string",
                  "name": "pseudo",
                  "type": "string"
                },
                {
                  "internalType": "uint256",
                  "name": "balance",
                  "type": "uint256"
                }
              ],
              "internalType": "struct ChessFactory.User",
              "name": "player2",
              "type": "tuple"
            },
            {
              "internalType": "uint256",
              "name": "betAmount",
              "type": "uint256"
            },
            {
              "internalType": "uint256",
              "name": "startTime",
              "type": "uint256"
            }
          ],
          "internalType": "struct ChessFactory.Game",
          "name": "game",
          "type": "tuple"
        }
      ],
      "stateMutability": "view",
      "type": "function"
    },
    {
      "inputs": [
        {
          "internalType": "uint256",
          "name": "start",
          "type": "uint256"
        },
        {
          "internalType": "uint256",
          "name": "count",
          "type": "uint256"
        }
      ],
      "name": "getGames",
      "outputs": [
        {
          "components": [
            {
              "internalType": "address",
              "name": "gameAddress",
              "type": "address"
            },
            {
              "components": [
                {
                  "internalType": "address",
                  "name": "userAddress",
                  "type": "address"
                },
                {
                  "internalType": "string",
                  "name": "pseudo",
                  "type": "string"
                },
                {
                  "internalType": "uint256",
                  "name": "balance",
                  "type": "uint256"
                }
              ],
              "internalType": "struct ChessFactory.User",
              "name": "player1",
              "type": "tuple"
            },
            {
              "components": [
                {
                  "internalType": "address",
                  "name": "userAddress",
                  "type": "address"
                },
                {
                  "internalType": "string",
                  "name": "pseudo",
                  "type": "string"
                },
                {
                  "internalType": "uint256",
                  "name": "balance",
                  "type": "uint256"
                }
              ],
              "internalType": "struct ChessFactory.User",
              "name": "player2",
              "type": "tuple"
            },
            {
              "internalType": "uint256",
              "name": "betAmount",
              "type": "uint256"
            },
            {
              "internalType": "uint256",
              "name": "startTime",
              "type": "uint256"
            }
          ],
          "internalType": "struct ChessFactory.Game[]",
          "name": "allGames",
          "type": "tuple[]"
        }
      ],
      "stateMutability": "view",
      "type": "function"
    },
    {
      "inputs": [],
      "name": "getUser",
      "outputs": [
        {
          "components": [
            {
              "internalType": "address",
              "name": "userAddress",
              "type": "address"
            },
            {
              "internalType": "string",
              "name": "pseudo",
              "type": "string"
            },
            {
              "internalType": "uint256",
              "name": "balance",
              "type": "uint256"
            }
          ],
          "internalType": "struct ChessFactory.User",
          "name": "user",
          "type": "tuple"
        }
      ],
      "stateMutability": "view",
      "type": "function"
    },
    {
      "inputs": [
        {
          "internalType": "uint256",
          "name": "start",
          "type": "uint256"
        },
        {
          "internalType": "uint256",
          "name": "count",
          "type": "uint256"
        }
      ],
      "name": "getUsers",
      "outputs": [
        {
          "components": [
            {
              "internalType": "address",
              "name": "userAddress",
              "type": "address"
            },
            {
              "internalType": "string",
              "name": "pseudo",
              "type": "string"
            },
            {
              "internalType": "uint256",
              "name": "balance",
              "type": "uint256"
            }
          ],
          "internalType": "struct ChessFactory.User[]",
          "name": "allUsers",
          "type": "tuple[]"
        }
      ],
      "stateMutability": "view",
      "type": "function"
    },
    {
      "inputs": [
        {
          "internalType": "address",
          "name": "gameAddress",
          "type": "address"
        }
      ],
      "name": "joinGame",
      "outputs": [],
      "stateMutability": "nonpayable",
      "type": "function"
    },
    {
      "inputs": [],
      "name": "owner",
      "outputs": [
        {
          "internalType": "address",
          "name": "",
          "type": "address"
        }
      ],
      "stateMutability": "view",
      "type": "function"
    },
    {
      "inputs": [],
      "name": "platformBalance",
      "outputs": [
        {
          "internalType": "uint256",
          "name": "",
          "type": "uint256"
        }
      ],
      "stateMutability": "view",
      "type": "function"
    },
    {
      "inputs": [
        {
          "internalType": "address",
          "name": "",
          "type": "address"
        }
      ],
      "name": "playerToGame",
      "outputs": [
        {
          "internalType": "address",
          "name": "",
          "type": "address"
        }
      ],
      "stateMutability": "view",
      "type": "function"
    },
    {
      "inputs": [
        {
          "internalType": "address",
          "name": "gameAddress",
          "type": "address"
        }
      ],
      "name": "registerToGame",
      "outputs": [],
      "stateMutability": "nonpayable",
      "type": "function"
    },
    {
      "inputs": [
        {
          "internalType": "string",
          "name": "pseudo",
          "type": "string"
        }
      ],
      "name": "registerUser",
      "outputs": [],
      "stateMutability": "nonpayable",
      "type": "function"
    },
    {
      "inputs": [],
      "name": "renounceOwnership",
      "outputs": [],
      "stateMutability": "nonpayable",
      "type": "function"
    },
    {
      "inputs": [
        {
          "internalType": "address",
          "name": "_chessToken",
          "type": "address"
        }
      ],
      "name": "setChessToken",
      "outputs": [],
      "stateMutability": "nonpayable",
      "type": "function"
    },
    {
      "inputs": [],
      "name": "templateAddress",
      "outputs": [
        {
          "internalType": "address",
          "name": "",
          "type": "address"
        }
      ],
      "stateMutability": "view",
      "type": "function"
    },
    {
      "inputs": [
        {
          "internalType": "address",
          "name": "newOwner",
          "type": "address"
        }
      ],
      "name": "transferOwnership",
      "outputs": [],
      "stateMutability": "nonpayable",
      "type": "function"
    },
    {
      "inputs": [
        {
          "internalType": "uint256",
          "name": "",
          "type": "uint256"
        }
      ],
      "name": "userAddresses",
      "outputs": [
        {
          "internalType": "address",
          "name": "",
          "type": "address"
        }
      ],
      "stateMutability": "view",
      "type": "function"
    },
    {
      "inputs": [
        {
          "internalType": "address",
          "name": "",
          "type": "address"
        }
      ],
      "name": "users",
      "outputs": [
        {
          "internalType": "address",
          "name": "userAddress",
          "type": "address"
        },
        {
          "internalType": "string",
          "name": "pseudo",
          "type": "string"
        },
        {
          "internalType": "uint256",
          "name": "balance",
          "type": "uint256"
        }
      ],
      "stateMutability": "view",
      "type": "function"
    },
    {
      "inputs": [
        {
          "internalType": "uint256",
          "name": "amount",
          "type": "uint256"
        }
      ],
      "name": "withdrawEther",
      "outputs": [],
      "stateMutability": "nonpayable",
      "type": "function"
    },
    {
      "inputs": [
        {
          "internalType": "uint256",
          "name": "amount",
          "type": "uint256"
        }
      ],
      "name": "withdrawTokens",
      "outputs": [],
      "stateMutability": "nonpayable",
      "type": "function"
    },
    {
      "stateMutability": "payable",
      "type": "receive"
    }
  ],
  "bytecode": "0x60a060405234801561001057600080fd5b50604051612b4a380380612b4a83398101604081905261002f916100eb565b338061005557604051631e4fbdf760e01b81526000600482015260240160405180910390fd5b61005e8161009b565b50600180556001600160a01b03811661008a57604051633a8e6d6760e21b815260040160405180910390fd5b6001600160a01b031660805261011b565b600080546001600160a01b038381166001600160a01b0319831681178455604051919092169283917f8be0079c531659141344cd1fd0a4f28419497f9722a3daafe3b4186f6b6457e09190a35050565b6000602082840312156100fd57600080fd5b81516001600160a01b038116811461011457600080fd5b9392505050565b608051612a06610144600039600081816101880152818161138501526113d10152612a066000f3fe60806040526004361061016a5760003560e01c80636063f610116100d15780638da5cb5b1161008a578063dd49756e11610064578063dd49756e14610489578063f2fde38b146104a9578063f689841b146104c9578063fb4d50de146104dc57600080fd5b80638da5cb5b1461040f578063a87430ba1461042d578063ac4511851461045c57600080fd5b80636063f6101461035457806362a5dbbc14610374578063704f1b9414610398578063715018a6146103b85780637d6967e9146103cd578063832880e7146103ed57600080fd5b8063350a9c0011610123578063350a9c00146102765780633bed33ce1461029657806345982a66146102b6578063502c9bd5146102e357806354947d281461030357806360104cef1461033457600080fd5b80630c5a6f2f14610176578063117a5b90146101c75780631940e2ab146101e7578063201d567e146102145780632389a29014610236578063315a095d1461025657600080fd5b3661017157005b600080fd5b34801561018257600080fd5b506101aa7f000000000000000000000000000000000000000000000000000000000000000081565b6040516001600160a01b0390911681526020015b60405180910390f35b3480156101d357600080fd5b506101aa6101e23660046122c3565b610512565b3480156101f357600080fd5b506102076102023660046122f8565b61053c565b6040516101be9190612406565b34801561022057600080fd5b5061023461022f3660046122f8565b610750565b005b34801561024257600080fd5b506102346102513660046122f8565b610aaf565b34801561026257600080fd5b506102346102713660046122c3565b610c78565b34801561028257600080fd5b506102346102913660046122f8565b610e75565b3480156102a257600080fd5b506102346102b13660046122c3565b610ec6565b3480156102c257600080fd5b506102d66102d1366004612419565b610fa1565b6040516101be919061243b565b3480156102ef57600080fd5b506101aa6102fe3660046122c3565b61117c565b34801561030f57600080fd5b5061032361031e3660046122f8565b61118c565b6040516101be9594939291906124a0565b34801561034057600080fd5b5061023461034f366004612419565b61133a565b34801561036057600080fd5b506002546101aa906001600160a01b031681565b34801561038057600080fd5b5061038a60055481565b6040519081526020016101be565b3480156103a457600080fd5b506102346103b3366004612501565b61160b565b3480156103c457600080fd5b506102346117aa565b3480156103d957600080fd5b506102346103e83660046125ba565b6117be565b3480156103f957600080fd5b50610402611975565b6040516101be919061260f565b34801561041b57600080fd5b506000546001600160a01b03166101aa565b34801561043957600080fd5b5061044d6104483660046122f8565b611a82565b6040516101be93929190612622565b34801561046857600080fd5b5061047c610477366004612419565b611b37565b6040516101be9190612656565b34801561049557600080fd5b506102346104a43660046122c3565b611e04565b3480156104b557600080fd5b506102346104c43660046122f8565b611f85565b6102346104d73660046122c3565b611fc5565b3480156104e857600080fd5b506101aa6104f73660046122f8565b6007602052600090815260409020546001600160a01b031681565b6004818154811061052257600080fd5b6000918252602090912001546001600160a01b0316905081565b610544612255565b6001600160a01b0380831660009081526008602052604090205483911661057e57604051631fedf07560e01b815260040160405180910390fd5b6001600160a01b03808416600090815260086020908152604091829020825160a0810184528154851681528351606081019094526001820180549095168452600282018054919592948685019490939290840191906105dc906126af565b80601f0160208091040260200160405190810160405280929190818152602001828054610608906126af565b80156106555780601f1061062a57610100808354040283529160200191610655565b820191906000526020600020905b81548152906001019060200180831161063857829003601f168201915b50505091835250506002919091015460209182015290825260408051606081019091526004840180546001600160a01b031682526005850180549484019492939192918401916106a4906126af565b80601f01602080910402602001604051908101604052809291908181526020018280546106d0906126af565b801561071d5780601f106106f25761010080835404028352916020019161071d565b820191906000526020600020905b81548152906001019060200180831161070057829003601f168201915b50505050508152602001600282015481525050815260200160078201548152602001600882015481525050915050919050565b6001600160a01b0380821660009081526008602052604090205482911661078a57604051631fedf07560e01b815260040160405180910390fd5b336000818152600660205260409020546001600160a01b03166107c057604051632163950f60e01b815260040160405180910390fd5b6001600160a01b0383166000908152600860209081526040808320338452600690925290912060078201546002820154101561080f57604051631e9acf1760e31b815260040160405180910390fd5b60018201546001600160a01b031615801590610837575060048201546001600160a01b031615155b15610855576040516367d4c68360e11b815260040160405180910390fd5b60018201546001600160a01b031661090d578054600180840180546001600160a01b0319166001600160a01b03909316929092178255829190600285019061089f90840182612735565b5060029182015491015581548154604051633e22b1c960e21b81526001600160a01b03918216600482015291169063f88ac72490602401600060405180830381600087803b1580156108f057600080fd5b505af1158015610904573d6000803e3d6000fd5b50505050610a1c565b60048201546001600160a01b0316610a1c5780546004830180546001600160a01b0319166001600160a01b039092169190911781558190600584016109556001840182612735565b506002918201549101558154815460405163039ed32560e51b81526001600160a01b0391821660048201529116906373da64a090602401600060405180830381600087803b1580156109a657600080fd5b505af11580156109ba573d6000803e3d6000fd5b505083546040805163543bc1dd60e11b815290516001600160a01b03909216935063a87783ba925060048082019260009290919082900301818387803b158015610a0357600080fd5b505af1158015610a17573d6000803e3d6000fd5b505050505b8160070154816002016000828254610a34919061282b565b9091555050600782015460058054600090610a5090849061283e565b90915550503360008181526007602052604080822080546001600160a01b0319166001600160a01b038a16908117909155905190917fe1dbdd03f59d710fa405d8eea4696673f063d54be953ea51206366b5d91a5e9991a35050505050565b610ab7612105565b6001600160a01b03808216600090815260086020526040902054829116610af157604051631fedf07560e01b815260040160405180910390fd5b6001600160a01b03828116600090815260086020526040902060018101548492163314801590610b2e575060048101546001600160a01b03163314155b15610b4c5760405163721c7c6760e11b815260040160405180910390fd5b6001600160a01b038416600081815260086020908152604091829020825162c0ef2b60e41b81529251909392630c0ef2b09260048083019391928290030181865afa158015610b9f573d6000803e3d6000fd5b505050506040513d601f19601f82011682018060405250810190610bc39190612851565b610be057604051635d31ea1f60e01b815260040160405180910390fd5b8060080154421015610c05576040516326e687eb60e01b815260040160405180910390fd5b600181015460048201546007830154604080516001600160a01b0394851681529284166020840152820152426060820152908616907f772943500dc726306a30d367ff2325b7b99a7c4db917d05c1a44a28c69505c8a906080015b60405180910390a250505050610c7560018055565b50565b610c8061212f565b610c88612105565b6002546001600160a01b0316610cb157604051635d31ea1f60e01b815260040160405180910390fd5b6002546040516370a0823160e01b81523060048201526001600160a01b039091169060009082906370a0823190602401602060405180830381865afa158015610cfe573d6000803e3d6000fd5b505050506040513d601f19601f82011682018060405250810190610d229190612873565b905080831115610d455760405163786e0a9960e01b815260040160405180910390fd5b8260056000828254610d57919061282b565b909155505060408051336024820152604480820186905282518083039091018152606490910182526020810180516001600160e01b031663a9059cbb60e01b179052905160009182916001600160a01b03861691610db49161288c565b6000604051808303816000865af19150503d8060008114610df1576040519150601f19603f3d011682016040523d82523d6000602084013e610df6565b606091505b5091509150811580610e25575060008151118015610e25575080806020019051810190610e239190612851565b155b15610e435760405163022e258160e11b815260040160405180910390fd5b60405185815233907f6352c5382c4a4578e712449ca65e83cdb392d045dfcf1cad9615189db2da244b90602001610c60565b610e7d61212f565b6001600160a01b038116610ea457604051635d31ea1f60e01b815260040160405180910390fd5b600280546001600160a01b0319166001600160a01b0392909216919091179055565b610ece61212f565b610ed6612105565b4780821115610ef85760405163786e0a9960e01b815260040160405180910390fd5b604051600090339084908381818185875af1925050503d8060008114610f3a576040519150601f19603f3d011682016040523d82523d6000602084013e610f3f565b606091505b5050905080610f6157604051630ce8f45160e31b815260040160405180910390fd5b60405183815233907f06097061aeda806b5e9cb4133d9899f332ff0913956567fc0f7ea15e3d19947c9060200160405180910390a25050610c7560018055565b6003546060908310610fc657604051630f7e27e960e01b815260040160405180910390fd5b6000610fd2838561283e565b600354909150811115610fe457506003545b6000610ff0858361282b565b90508067ffffffffffffffff81111561100b5761100b6124eb565b60405190808252806020026020018201604052801561104457816020015b611031612299565b8152602001906001900390816110295790505b50925060005b8181101561117357600660006003611062848a61283e565b81548110611072576110726128a8565b60009182526020808320909101546001600160a01b03908116845283820194909452604092830190912082516060810190935280549093168252600183018054929392918401916110c2906126af565b80601f01602080910402602001604051908101604052809291908181526020018280546110ee906126af565b801561113b5780601f106111105761010080835404028352916020019161113b565b820191906000526020600020905b81548152906001019060200180831161111e57829003601f168201915b50505050508152602001600282015481525050848281518110611160576111606128a8565b602090810291909101015260010161104a565b50505092915050565b6003818154811061052257600080fd5b60086020908152600091825260409182902080548351606081019094526001820180546001600160a01b03908116865260028401805491909316959394919291840191906111d9906126af565b80601f0160208091040260200160405190810160405280929190818152602001828054611205906126af565b80156112525780601f1061122757610100808354040283529160200191611252565b820191906000526020600020905b81548152906001019060200180831161123557829003601f168201915b50505091835250506002919091015460209182015260408051606081019091526004840180546001600160a01b03168252600585018054949594929391929184019161129d906126af565b80601f01602080910402602001604051908101604052809291908181526020018280546112c9906126af565b80156113165780601f106112eb57610100808354040283529160200191611316565b820191906000526020600020905b8154815290600101906020018083116112f957829003601f168201915b50505050508152602001600282015481525050908060070154908060080154905085565b61134261212f565b8160000361136357604051639de3d44160e01b815260040160405180910390fd5b428111611383576040516326e687eb60e01b815260040160405180910390fd5b7f00000000000000000000000000000000000000000000000000000000000000006001600160a01b03166113ca57604051633a8e6d6760e21b815260040160405180910390fd5b60006113f57f000000000000000000000000000000000000000000000000000000000000000061215c565b60405163c0c53b8b60e01b815260006004820181905260248201523060448201529091506001600160a01b0382169063c0c53b8b90606401600060405180830381600087803b15801561144757600080fd5b505af115801561145b573d6000803e3d6000fd5b50506004805460018082019092557f8a35acfbc15ff81a39ae7d344fd709f28e8600b4aa8c65c6b64bfe7fe36bd19b0180546001600160a01b03199081166001600160a01b038781169182179093556040805160a081018252828152815160608082018452600080835284516020808201875282825280850191909152838601829052808501938452855180840187528281528651808301885283815281830152808701839052858701529184018e9052608084018d905294855260088152929093208151815486169087161781559251805196840180549095169690951695909517835583015193955093509091600284019061155990826128be565b506040918201516002919091015582015180516004830180546001600160a01b0319166001600160a01b03909216919091178155602082015160058401906115a190826128be565b50604091820151600290910155606083015160078301556080909201516008909101558051848152602081018490526001600160a01b038316917f27bd49aa3baf4aa9d565998bd41f40d6ff8cb737a8b4935d9ead830220fb73bc910160405180910390a2505050565b336000908152600660205260409020546001600160a01b03161561164257604051634f2532fb60e11b815260040160405180910390fd5b805160000361166457604051630c44239960e31b815260040160405180910390fd5b683635c9adc5dea00000600554101561169057604051639a89c4ff60e01b815260040160405180910390fd5b60408051606081018252338082526020808301858152683635c9adc5dea000008486015260009283526006909152929020815181546001600160a01b0319166001600160a01b03909116178155915190919060018201906116f190826128be565b5060408201518160020155905050683635c9adc5dea000006005600082825461171a919061282b565b9091555050600380546001810182556000919091527fc2575a0e9e593c00f959f8c92f12db2869c3395a3b0502d05e2516446f71f85b0180546001600160a01b031916339081179091556040517f89105a1c6a3c2fbd471255c66a31ccab604af5697f67d7e2e9a0028c5e4dbd919061179f908490683635c9adc5dea0000090612975565b60405180910390a250565b6117b261212f565b6117bc600061216f565b565b6117c6612105565b6001600160a01b03851615806117e357506001600160a01b038416155b1561180157604051632163950f60e01b815260040160405180910390fd5b81600554101561182457604051639a89c4ff60e01b815260040160405180910390fd5b6001600160a01b038316611898576001600160a01b0385166000908152600660205260408120600201805483929061185d90849061283e565b90915550506001600160a01b0384166000908152600660205260408120600201805483929061188d90849061283e565b909155506119019050565b6001600160a01b03838116600090815260066020526040902054166118d057604051630a866adb60e01b815260040160405180910390fd5b6001600160a01b038316600090815260066020526040812060020180548392906118fb90849061283e565b90915550505b8160056000828254611913919061283e565b909155505060408051838152602081018390526001600160a01b038086169287821692918916917f731458e38a0dae8a07a09da6147de47bda6f8c2303dc5f34b28f9e3b6b50cb89910160405180910390a461196e60018055565b5050505050565b61197d612299565b336000818152600660205260409020546001600160a01b03166119b357604051632163950f60e01b815260040160405180910390fd5b3360009081526006602090815260409182902082516060810190935280546001600160a01b0316835260018101805491928401916119f0906126af565b80601f0160208091040260200160405190810160405280929190818152602001828054611a1c906126af565b8015611a695780601f10611a3e57610100808354040283529160200191611a69565b820191906000526020600020905b815481529060010190602001808311611a4c57829003601f168201915b5050505050815260200160028201548152505091505090565b600660205260009081526040902080546001820180546001600160a01b039092169291611aae906126af565b80601f0160208091040260200160405190810160405280929190818152602001828054611ada906126af565b8015611b275780601f10611afc57610100808354040283529160200191611b27565b820191906000526020600020905b815481529060010190602001808311611b0a57829003601f168201915b5050505050908060020154905083565b6004546060908310611b5c57604051630f7e27e960e01b815260040160405180910390fd5b6000611b68838561283e565b600454909150811115611b7a57506004545b6000611b86858361282b565b90508067ffffffffffffffff811115611ba157611ba16124eb565b604051908082528060200260200182016040528015611bda57816020015b611bc7612255565b815260200190600190039081611bbf5790505b50925060005b8181101561117357600860006004611bf8848a61283e565b81548110611c0857611c086128a8565b60009182526020808320909101546001600160a01b039081168452838201949094526040928301909120825160a081018452815485168152835160608101909452600182018054909516845260028201805491959294868501949093929084019190611c73906126af565b80601f0160208091040260200160405190810160405280929190818152602001828054611c9f906126af565b8015611cec5780601f10611cc157610100808354040283529160200191611cec565b820191906000526020600020905b815481529060010190602001808311611ccf57829003601f168201915b50505091835250506002919091015460209182015290825260408051606081019091526004840180546001600160a01b03168252600585018054948401949293919291840191611d3b906126af565b80601f0160208091040260200160405190810160405280929190818152602001828054611d67906126af565b8015611db45780601f10611d8957610100808354040283529160200191611db4565b820191906000526020600020905b815481529060010190602001808311611d9757829003601f168201915b50505050508152602001600282015481525050815260200160078201548152602001600882015481525050848281518110611df157611df16128a8565b6020908102919091010152600101611be0565b611e0c61212f565b611e14612105565b6002546001600160a01b0316611e3d57604051635d31ea1f60e01b815260040160405180910390fd5b600254604051636eb1769f60e11b81523360048201523060248201526001600160a01b03909116908290829063dd62ed3e90604401602060405180830381865afa158015611e8f573d6000803e3d6000fd5b505050506040513d601f19601f82011682018060405250810190611eb39190612873565b1015611ed2576040516313be252b60e01b815260040160405180910390fd5b6040516323b872dd60e01b8152336004820152306024820152604481018390526001600160a01b038216906323b872dd906064016020604051808303816000875af1158015611f25573d6000803e3d6000fd5b505050506040513d601f19601f82011682018060405250810190611f499190612851565b611f665760405163022e258160e11b815260040160405180910390fd5b8160056000828254611f78919061283e565b9091555050600180555050565b611f8d61212f565b6001600160a01b038116611fbc57604051631e4fbdf760e01b8152600060048201526024015b60405180910390fd5b610c758161216f565b611fcd612105565b80600003611fee57604051639de3d44160e01b815260040160405180910390fd5b80341461200e57604051639de3d44160e01b815260040160405180910390fd5b6002546001600160a01b031661203757604051635d31ea1f60e01b815260040160405180910390fd5b600064e8d4a5100061205183670de0b6b3a7640000612997565b61205b91906129ae565b905080600554101561208057604051639a89c4ff60e01b815260040160405180910390fd5b33600090815260066020526040812060020180548392906120a290849061283e565b9250508190555080600560008282546120bb919061282b565b9091555050604080513481526020810183905233917f2bcae548b47b6964e636f40c65de80562571bca4638db53f07b063ce81897ce7910160405180910390a250610c7560018055565b60026001540361212857604051633ee5aeb560e01b815260040160405180910390fd5b6002600155565b6000546001600160a01b031633146117bc5760405163118cdaa760e01b8152336004820152602401611fb3565b60006121698260006121bf565b92915050565b600080546001600160a01b038381166001600160a01b0319831681178455604051919092169283917f8be0079c531659141344cd1fd0a4f28419497f9722a3daafe3b4186f6b6457e09190a35050565b6000814710156121eb5760405163cf47918160e01b815247600482015260248101839052604401611fb3565b763d602d80600a3d3981f3363d3d373d3d3d363d730000008360601b60e81c176000526e5af43d82803e903d91602b57fd5bf38360781b176020526037600983f090506001600160a01b0381166121695760405163b06ebf3d60e01b815260040160405180910390fd5b6040518060a0016040528060006001600160a01b03168152602001612278612299565b8152602001612285612299565b815260200160008152602001600081525090565b604051806060016040528060006001600160a01b0316815260200160608152602001600081525090565b6000602082840312156122d557600080fd5b5035919050565b80356001600160a01b03811681146122f357600080fd5b919050565b60006020828403121561230a57600080fd5b612313826122dc565b9392505050565b60005b8381101561233557818101518382015260200161231d565b50506000910152565b6000815180845261235681602086016020860161231a565b601f01601f19169290920160200192915050565b60018060a01b0381511682526000602082015160606020850152612391606085018261233e565b604093840151949093019390935250919050565b60018060a01b0381511682526000602082015160a060208501526123cc60a085018261236a565b9050604083015184820360408601526123e5828261236a565b91505060608301516060850152608083015160808501528091505092915050565b60208152600061231360208301846123a5565b6000806040838503121561242c57600080fd5b50508035926020909101359150565b6000602082016020835280845180835260408501915060408160051b86010192506020860160005b8281101561249457603f1987860301845261247f85835161236a565b94506020938401939190910190600101612463565b50929695505050505050565b6001600160a01b038616815260a0602082018190526000906124c49083018761236a565b82810360408401526124d6818761236a565b60608401959095525050608001529392505050565b634e487b7160e01b600052604160045260246000fd5b60006020828403121561251357600080fd5b813567ffffffffffffffff81111561252a57600080fd5b8201601f8101841361253b57600080fd5b803567ffffffffffffffff811115612555576125556124eb565b604051601f8201601f19908116603f0116810167ffffffffffffffff81118282101715612584576125846124eb565b60405281815282820160200186101561259c57600080fd5b81602084016020830137600091810160200191909152949350505050565b600080600080600060a086880312156125d257600080fd5b6125db866122dc565b94506125e9602087016122dc565b93506125f7604087016122dc565b94979396509394606081013594506080013592915050565b602081526000612313602083018461236a565b6001600160a01b03841681526060602082018190526000906126469083018561233e565b9050826040830152949350505050565b6000602082016020835280845180835260408501915060408160051b86010192506020860160005b8281101561249457603f1987860301845261269a8583516123a5565b9450602093840193919091019060010161267e565b600181811c908216806126c357607f821691505b6020821081036126e357634e487b7160e01b600052602260045260246000fd5b50919050565b601f82111561273057806000526020600020601f840160051c810160208510156127105750805b601f840160051c820191505b8181101561196e576000815560010161271c565b505050565b818103612740575050565b61274a82546126af565b67ffffffffffffffff811115612762576127626124eb565b6127768161277084546126af565b846126e9565b6000601f8211600181146127ad57600083156127925750848201545b600184901b600019600386901b1c198216175b85555061196e565b600085815260209020601f19841690600086815260209020845b838110156127e757828601548255600195860195909101906020016127c7565b50858310156128055781850154600019600388901b60f8161c191681555b5050505050600190811b01905550565b634e487b7160e01b600052601160045260246000fd5b8181038181111561216957612169612815565b8082018082111561216957612169612815565b60006020828403121561286357600080fd5b8151801515811461231357600080fd5b60006020828403121561288557600080fd5b5051919050565b6000825161289e81846020870161231a565b9190910192915050565b634e487b7160e01b600052603260045260246000fd5b815167ffffffffffffffff8111156128d8576128d86124eb565b6128e68161277084546126af565b6020601f8211600181146129185760008315612792575081850151600184901b600019600386901b1c198216176127a5565b600084815260208120601f198516915b828110156129485787850151825560209485019460019092019101612928565b50848210156129665786840151600019600387901b60f8161c191681555b50505050600190811b01905550565b604081526000612988604083018561233e565b90508260208301529392505050565b808202811582820484141761216957612169612815565b6000826129cb57634e487b7160e01b600052601260045260246000fd5b50049056fea26469706673582212208cce0b1397b3924af85e422fcb4b81c0387479c0ced3ee96ee6b20ecb7d6aecd64736f6c634300081b0033",
  "linkReferences": {},
  "deployedLinkReferences": {}
}