{
  "_format": "hh-sol-artifact-1",
  "contractName": "ChessToken",
  "sourceName": "contracts/ChessToken.sol",
  "abi": [
    {
      "inputs": [
        {
          "internalType": "uint256",
          "name": "initialSupply",
          "type": "uint256"
        }
      ],
      "stateMutability": "nonpayable",
      "type": "constructor"
    },
    {
      "inputs": [],
      "name": "AmountMustBeGreaterThanZero",
      "type": "error"
    },
    {
      "inputs": [],
      "name": "CannotWithdrawChessToken",
      "type": "error"
    },
    {
      "inputs": [
        {
          "internalType": "address",
          "name": "spender",
          "type": "address"
        },
        {
          "internalType": "uint256",
          "name": "allowance",
          "type": "uint256"
        },
        {
          "internalType": "uint256",
          "name": "needed",
          "type": "uint256"
        }
      ],
      "name": "ERC20InsufficientAllowance",
      "type": "error"
    },
    {
      "inputs": [
        {
          "internalType": "address",
          "name": "sender",
          "type": "address"
        },
        {
          "internalType": "uint256",
          "name": "balance",
          "type": "uint256"
        },
        {
          "internalType": "uint256",
          "name": "needed",
          "type": "uint256"
        }
      ],
      "name": "ERC20InsufficientBalance",
      "type": "error"
    },
    {
      "inputs": [
        {
          "internalType": "address",
          "name": "approver",
          "type": "address"
        }
      ],
      "name": "ERC20InvalidApprover",
      "type": "error"
    },
    {
      "inputs": [
        {
          "internalType": "address",
          "name": "receiver",
          "type": "address"
        }
      ],
      "name": "ERC20InvalidReceiver",
      "type": "error"
    },
    {
      "inputs": [
        {
          "internalType": "address",
          "name": "sender",
          "type": "address"
        }
      ],
      "name": "ERC20InvalidSender",
      "type": "error"
    },
    {
      "inputs": [
        {
          "internalType": "address",
          "name": "spender",
          "type": "address"
        }
      ],
      "name": "ERC20InvalidSpender",
      "type": "error"
    },
    {
      "inputs": [],
      "name": "EtherNotAccepted",
      "type": "error"
    },
    {
      "inputs": [],
      "name": "InvalidAddress",
      "type": "error"
    },
    {
      "inputs": [],
      "name": "InvalidRecipientAddress",
      "type": "error"
    },
    {
      "inputs": [],
      "name": "OnlyChessFactoryCanMint",
      "type": "error"
    },
    {
      "inputs": [
        {
          "internalType": "address",
          "name": "owner",
          "type": "address"
        }
      ],
      "name": "OwnableInvalidOwner",
      "type": "error"
    },
    {
      "inputs": [
        {
          "internalType": "address",
          "name": "account",
          "type": "address"
        }
      ],
      "name": "OwnableUnauthorizedAccount",
      "type": "error"
    },
    {
      "inputs": [],
      "name": "ReentrancyGuardReentrantCall",
      "type": "error"
    },
    {
      "inputs": [
        {
          "internalType": "address",
          "name": "token",
          "type": "address"
        }
      ],
      "name": "SafeERC20FailedOperation",
      "type": "error"
    },
    {
      "inputs": [],
      "name": "TokenTransferFailed",
      "type": "error"
    },
    {
      "anonymous": false,
      "inputs": [
        {
          "indexed": true,
          "internalType": "address",
          "name": "owner",
          "type": "address"
        },
        {
          "indexed": true,
          "internalType": "address",
          "name": "spender",
          "type": "address"
        },
        {
          "indexed": false,
          "internalType": "uint256",
          "name": "value",
          "type": "uint256"
        }
      ],
      "name": "Approval",
      "type": "event"
    },
    {
      "anonymous": false,
      "inputs": [
        {
          "indexed": true,
          "internalType": "address",
          "name": "previousFactory",
          "type": "address"
        },
        {
          "indexed": true,
          "internalType": "address",
          "name": "newFactory",
          "type": "address"
        }
      ],
      "name": "ChessFactorySet",
      "type": "event"
    },
    {
      "anonymous": false,
      "inputs": [
        {
          "indexed": true,
          "internalType": "address",
          "name": "token",
          "type": "address"
        },
        {
          "indexed": true,
          "internalType": "address",
          "name": "to",
          "type": "address"
        },
        {
          "indexed": false,
          "internalType": "uint256",
          "name": "amount",
          "type": "uint256"
        }
      ],
      "name": "ERC20Withdrawn",
      "type": "event"
    },
    {
      "anonymous": false,
      "inputs": [
        {
          "indexed": true,
          "internalType": "address",
          "name": "previousOwner",
          "type": "address"
        },
        {
          "indexed": true,
          "internalType": "address",
          "name": "newOwner",
          "type": "address"
        }
      ],
      "name": "OwnershipTransferred",
      "type": "event"
    },
    {
      "anonymous": false,
      "inputs": [
        {
          "indexed": true,
          "internalType": "address",
          "name": "from",
          "type": "address"
        },
        {
          "indexed": true,
          "internalType": "address",
          "name": "to",
          "type": "address"
        },
        {
          "indexed": false,
          "internalType": "uint256",
          "name": "value",
          "type": "uint256"
        }
      ],
      "name": "Transfer",
      "type": "event"
    },
    {
      "inputs": [
        {
          "internalType": "address",
          "name": "owner",
          "type": "address"
        },
        {
          "internalType": "address",
          "name": "spender",
          "type": "address"
        }
      ],
      "name": "allowance",
      "outputs": [
        {
          "internalType": "uint256",
          "name": "",
          "type": "uint256"
        }
      ],
      "stateMutability": "view",
      "type": "function"
    },
    {
      "inputs": [
        {
          "internalType": "address",
          "name": "spender",
          "type": "address"
        },
        {
          "internalType": "uint256",
          "name": "value",
          "type": "uint256"
        }
      ],
      "name": "approve",
      "outputs": [
        {
          "internalType": "bool",
          "name": "",
          "type": "bool"
        }
      ],
      "stateMutability": "nonpayable",
      "type": "function"
    },
    {
      "inputs": [
        {
          "internalType": "address",
          "name": "account",
          "type": "address"
        }
      ],
      "name": "balanceOf",
      "outputs": [
        {
          "internalType": "uint256",
          "name": "",
          "type": "uint256"
        }
      ],
      "stateMutability": "view",
      "type": "function"
    },
    {
      "inputs": [
        {
          "internalType": "uint256",
          "name": "amount",
          "type": "uint256"
        }
      ],
      "name": "burn",
      "outputs": [],
      "stateMutability": "nonpayable",
      "type": "function"
    },
    {
      "inputs": [],
      "name": "chessFactory",
      "outputs": [
        {
          "internalType": "address",
          "name": "",
          "type": "address"
        }
      ],
      "stateMutability": "view",
      "type": "function"
    },
    {
      "inputs": [],
      "name": "decimals",
      "outputs": [
        {
          "internalType": "uint8",
          "name": "",
          "type": "uint8"
        }
      ],
      "stateMutability": "view",
      "type": "function"
    },
    {
      "inputs": [
        {
          "internalType": "address",
          "name": "to",
          "type": "address"
        },
        {
          "internalType": "uint256",
          "name": "amount",
          "type": "uint256"
        }
      ],
      "name": "mintTokens",
      "outputs": [],
      "stateMutability": "nonpayable",
      "type": "function"
    },
    {
      "inputs": [],
      "name": "name",
      "outputs": [
        {
          "internalType": "string",
          "name": "",
          "type": "string"
        }
      ],
      "stateMutability": "view",
      "type": "function"
    },
    {
      "inputs": [],
      "name": "owner",
      "outputs": [
        {
          "internalType": "address",
          "name": "",
          "type": "address"
        }
      ],
      "stateMutability": "view",
      "type": "function"
    },
    {
      "inputs": [],
      "name": "renounceOwnership",
      "outputs": [],
      "stateMutability": "nonpayable",
      "type": "function"
    },
    {
      "inputs": [
        {
          "internalType": "address",
          "name": "_chessFactory",
          "type": "address"
        }
      ],
      "name": "setChessFactory",
      "outputs": [],
      "stateMutability": "nonpayable",
      "type": "function"
    },
    {
      "inputs": [],
      "name": "symbol",
      "outputs": [
        {
          "internalType": "string",
          "name": "",
          "type": "string"
        }
      ],
      "stateMutability": "view",
      "type": "function"
    },
    {
      "inputs": [],
      "name": "totalSupply",
      "outputs": [
        {
          "internalType": "uint256",
          "name": "",
          "type": "uint256"
        }
      ],
      "stateMutability": "view",
      "type": "function"
    },
    {
      "inputs": [
        {
          "internalType": "address",
          "name": "to",
          "type": "address"
        },
        {
          "internalType": "uint256",
          "name": "value",
          "type": "uint256"
        }
      ],
      "name": "transfer",
      "outputs": [
        {
          "internalType": "bool",
          "name": "",
          "type": "bool"
        }
      ],
      "stateMutability": "nonpayable",
      "type": "function"
    },
    {
      "inputs": [
        {
          "internalType": "address",
          "name": "from",
          "type": "address"
        },
        {
          "internalType": "address",
          "name": "to",
          "type": "address"
        },
        {
          "internalType": "uint256",
          "name": "value",
          "type": "uint256"
        }
      ],
      "name": "transferFrom",
      "outputs": [
        {
          "internalType": "bool",
          "name": "",
          "type": "bool"
        }
      ],
      "stateMutability": "nonpayable",
      "type": "function"
    },
    {
      "inputs": [
        {
          "internalType": "address",
          "name": "newOwner",
          "type": "address"
        }
      ],
      "name": "transferOwnership",
      "outputs": [],
      "stateMutability": "nonpayable",
      "type": "function"
    },
    {
      "inputs": [
        {
          "internalType": "address",
          "name": "token",
          "type": "address"
        },
        {
          "internalType": "uint256",
          "name": "amount",
          "type": "uint256"
        }
      ],
      "name": "withdrawERC20",
      "outputs": [],
      "stateMutability": "nonpayable",
      "type": "function"
    },
    {
      "stateMutability": "payable",
      "type": "receive"
    }
  ],
  "bytecode": "0x608060405234801561001057600080fd5b5060405161121938038061121983398101604081905261002f91610294565b336040518060400160405280600a81526020016921b432b9b9aa37b5b2b760b11b81525060405180604001604052806005815260200164434845535360d81b8152508160039081610080919061034c565b50600461008d828261034c565b5050506001600160a01b0381166100bf57604051631e4fbdf760e01b8152600060048201526024015b60405180910390fd5b6100c8816100de565b5060016006556100d83382610130565b50610431565b600580546001600160a01b038381166001600160a01b0319831681179093556040519116919082907f8be0079c531659141344cd1fd0a4f28419497f9722a3daafe3b4186f6b6457e090600090a35050565b6001600160a01b03821661015a5760405163ec442f0560e01b8152600060048201526024016100b6565b6101666000838361016a565b5050565b6001600160a01b03831661019557806002600082825461018a919061040a565b909155506102079050565b6001600160a01b038316600090815260208190526040902054818110156101e85760405163391434e360e21b81526001600160a01b038516600482015260248101829052604481018390526064016100b6565b6001600160a01b03841660009081526020819052604090209082900390555b6001600160a01b03821661022357600280548290039055610242565b6001600160a01b03821660009081526020819052604090208054820190555b816001600160a01b0316836001600160a01b03167fddf252ad1be2c89b69c2b068fc378daa952ba7f163c4a11628f55a4df523b3ef8360405161028791815260200190565b60405180910390a3505050565b6000602082840312156102a657600080fd5b5051919050565b634e487b7160e01b600052604160045260246000fd5b600181811c908216806102d757607f821691505b6020821081036102f757634e487b7160e01b600052602260045260246000fd5b50919050565b601f82111561034757806000526020600020601f840160051c810160208510156103245750805b601f840160051c820191505b818110156103445760008155600101610330565b50505b505050565b81516001600160401b03811115610365576103656102ad565b6103798161037384546102c3565b846102fd565b6020601f8211600181146103ad57600083156103955750848201515b600019600385901b1c1916600184901b178455610344565b600084815260208120601f198516915b828110156103dd57878501518255602094850194600190920191016103bd565b50848210156103fb5786840151600019600387901b60f8161c191681555b50505050600190811b01905550565b8082018082111561042b57634e487b7160e01b600052601160045260246000fd5b92915050565b610dd9806104406000396000f3fe6080604052600436106101025760003560e01c80638da5cb5b11610095578063a9059cbb11610064578063a9059cbb146102cf578063a91fa281146102ef578063dd62ed3e1461030f578063f0dda65c14610355578063f2fde38b1461037557600080fd5b80638da5cb5b14610248578063924920431461027a57806395d89b411461029a578063a1db9782146102af57600080fd5b8063313ce567116100d1578063313ce567146101bf57806342966c68146101db57806370a08231146101fd578063715018a61461023357600080fd5b806306fdde0314610125578063095ea7b31461015057806318160ddd1461018057806323b872dd1461019f57600080fd5b3661012057604051630dccd20d60e21b815260040160405180910390fd5b600080fd5b34801561013157600080fd5b5061013a610395565b6040516101479190610c09565b60405180910390f35b34801561015c57600080fd5b5061017061016b366004610c73565b610427565b6040519015158152602001610147565b34801561018c57600080fd5b506002545b604051908152602001610147565b3480156101ab57600080fd5b506101706101ba366004610c9d565b610441565b3480156101cb57600080fd5b5060405160128152602001610147565b3480156101e757600080fd5b506101fb6101f6366004610cda565b610465565b005b34801561020957600080fd5b50610191610218366004610cf3565b6001600160a01b031660009081526020819052604090205490565b34801561023f57600080fd5b506101fb61050b565b34801561025457600080fd5b506005546001600160a01b03165b6040516001600160a01b039091168152602001610147565b34801561028657600080fd5b506101fb610295366004610cf3565b61051f565b3480156102a657600080fd5b5061013a6105a0565b3480156102bb57600080fd5b506101fb6102ca366004610c73565b6105af565b3480156102db57600080fd5b506101706102ea366004610c73565b61066b565b3480156102fb57600080fd5b50600754610262906001600160a01b031681565b34801561031b57600080fd5b5061019161032a366004610d15565b6001600160a01b03918216600090815260016020908152604080832093909416825291909152205490565b34801561036157600080fd5b506101fb610370366004610c73565b610679565b34801561038157600080fd5b506101fb610390366004610cf3565b610708565b6060600380546103a490610d48565b80601f01602080910402602001604051908101604052809291908181526020018280546103d090610d48565b801561041d5780601f106103f25761010080835404028352916020019161041d565b820191906000526020600020905b81548152906001019060200180831161040057829003601f168201915b5050505050905090565b600033610435818585610743565b60019150505b92915050565b60003361044f858285610755565b61045a8585856107d3565b506001949350505050565b61046d610832565b8060000361048e57604051635e85ae7360e01b815260040160405180910390fd5b33600090815260208190526040902054818110156104f35760405162461bcd60e51b815260206004820152601b60248201527f4275726e20616d6f756e7420657863656564732062616c616e6365000000000060448201526064015b60405180910390fd5b6104fd338361085c565b506105086001600655565b50565b610513610892565b61051d60006108bf565b565b610527610892565b6001600160a01b03811661054e5760405163e6c4247b60e01b815260040160405180910390fd5b600780546001600160a01b038381166001600160a01b0319831681179093556040519116919082907fcda84806a05e8055ddea09112b003863ebfbbcf6a79f38ff43689215e60b273990600090a35050565b6060600480546103a490610d48565b6105b7610892565b6105bf610832565b306001600160a01b038316036105e857604051635c61fe1360e01b815260040160405180910390fd5b8060000361060957604051635e85ae7360e01b815260040160405180910390fd5b61061d6001600160a01b0383163383610911565b60405181815233906001600160a01b038416907fbfed55bdcd242e3dd0f60ddd7d1e87c67f61c34cd9527b3e6455d841b10253629060200160405180910390a36106676001600655565b5050565b6000336104358185856107d3565b610681610832565b6007546001600160a01b031633146106ac5760405163a19355a360e01b815260040160405180910390fd5b6001600160a01b0382166106d35760405163226ccff560e11b815260040160405180910390fd5b806000036106f457604051635e85ae7360e01b815260040160405180910390fd5b6106fe8282610963565b6106676001600655565b610710610892565b6001600160a01b03811661073a57604051631e4fbdf760e01b8152600060048201526024016104ea565b610508816108bf565b6107508383836001610999565b505050565b6001600160a01b0383811660009081526001602090815260408083209386168352929052205460001981146107cd57818110156107be57604051637dc7a0d960e11b81526001600160a01b038416600482015260248101829052604481018390526064016104ea565b6107cd84848484036000610999565b50505050565b6001600160a01b0383166107fd57604051634b637e8f60e11b8152600060048201526024016104ea565b6001600160a01b0382166108275760405163ec442f0560e01b8152600060048201526024016104ea565b610750838383610a6e565b60026006540361085557604051633ee5aeb560e01b815260040160405180910390fd5b6002600655565b6001600160a01b03821661088657604051634b637e8f60e11b8152600060048201526024016104ea565b61066782600083610a6e565b6005546001600160a01b0316331461051d5760405163118cdaa760e01b81523360048201526024016104ea565b600580546001600160a01b038381166001600160a01b0319831681179093556040519116919082907f8be0079c531659141344cd1fd0a4f28419497f9722a3daafe3b4186f6b6457e090600090a35050565b604080516001600160a01b038416602482015260448082018490528251808303909101815260649091019091526020810180516001600160e01b031663a9059cbb60e01b179052610750908490610b98565b6001600160a01b03821661098d5760405163ec442f0560e01b8152600060048201526024016104ea565b61066760008383610a6e565b6001600160a01b0384166109c35760405163e602df0560e01b8152600060048201526024016104ea565b6001600160a01b0383166109ed57604051634a1406b160e11b8152600060048201526024016104ea565b6001600160a01b03808516600090815260016020908152604080832093871683529290522082905580156107cd57826001600160a01b0316846001600160a01b03167f8c5be1e5ebec7d5bd14f71427d1e84f3dd0314c0f7b2291e5b200ac8c7c3b92584604051610a6091815260200190565b60405180910390a350505050565b6001600160a01b038316610a99578060026000828254610a8e9190610d82565b90915550610b0b9050565b6001600160a01b03831660009081526020819052604090205481811015610aec5760405163391434e360e21b81526001600160a01b038516600482015260248101829052604481018390526064016104ea565b6001600160a01b03841660009081526020819052604090209082900390555b6001600160a01b038216610b2757600280548290039055610b46565b6001600160a01b03821660009081526020819052604090208054820190555b816001600160a01b0316836001600160a01b03167fddf252ad1be2c89b69c2b068fc378daa952ba7f163c4a11628f55a4df523b3ef83604051610b8b91815260200190565b60405180910390a3505050565b600080602060008451602086016000885af180610bbb576040513d6000823e3d81fd5b50506000513d91508115610bd3578060011415610be0565b6001600160a01b0384163b155b156107cd57604051635274afe760e01b81526001600160a01b03851660048201526024016104ea565b602081526000825180602084015260005b81811015610c375760208186018101516040868401015201610c1a565b506000604082850101526040601f19601f83011684010191505092915050565b80356001600160a01b0381168114610c6e57600080fd5b919050565b60008060408385031215610c8657600080fd5b610c8f83610c57565b946020939093013593505050565b600080600060608486031215610cb257600080fd5b610cbb84610c57565b9250610cc960208501610c57565b929592945050506040919091013590565b600060208284031215610cec57600080fd5b5035919050565b600060208284031215610d0557600080fd5b610d0e82610c57565b9392505050565b60008060408385031215610d2857600080fd5b610d3183610c57565b9150610d3f60208401610c57565b90509250929050565b600181811c90821680610d5c57607f821691505b602082108103610d7c57634e487b7160e01b600052602260045260246000fd5b50919050565b8082018082111561043b57634e487b7160e01b600052601160045260246000fdfea2646970667358221220057efddae5cb6ce6019363ff9caec380a5f1861521430ba74d530854a19df46b64736f6c634300081b0033",
  "linkReferences": {},
  "deployedLinkReferences": {}
}