{
  "_format": "hh-sol-artifact-1",
  "contractName": "ChessToken",
  "sourceName": "contracts/ChessToken.sol",
  "abi": [
    {
      "inputs": [
        {
          "internalType": "uint256",
          "name": "initialSupply",
          "type": "uint256"
        }
      ],
      "stateMutability": "nonpayable",
      "type": "constructor"
    },
    {
      "inputs": [],
      "name": "AmountMustBeGreaterThanZero",
      "type": "error"
    },
    {
      "inputs": [],
      "name": "CannotWithdrawChessToken",
      "type": "error"
    },
    {
      "inputs": [
        {
          "internalType": "address",
          "name": "spender",
          "type": "address"
        },
        {
          "internalType": "uint256",
          "name": "allowance",
          "type": "uint256"
        },
        {
          "internalType": "uint256",
          "name": "needed",
          "type": "uint256"
        }
      ],
      "name": "ERC20InsufficientAllowance",
      "type": "error"
    },
    {
      "inputs": [
        {
          "internalType": "address",
          "name": "sender",
          "type": "address"
        },
        {
          "internalType": "uint256",
          "name": "balance",
          "type": "uint256"
        },
        {
          "internalType": "uint256",
          "name": "needed",
          "type": "uint256"
        }
      ],
      "name": "ERC20InsufficientBalance",
      "type": "error"
    },
    {
      "inputs": [
        {
          "internalType": "address",
          "name": "approver",
          "type": "address"
        }
      ],
      "name": "ERC20InvalidApprover",
      "type": "error"
    },
    {
      "inputs": [
        {
          "internalType": "address",
          "name": "receiver",
          "type": "address"
        }
      ],
      "name": "ERC20InvalidReceiver",
      "type": "error"
    },
    {
      "inputs": [
        {
          "internalType": "address",
          "name": "sender",
          "type": "address"
        }
      ],
      "name": "ERC20InvalidSender",
      "type": "error"
    },
    {
      "inputs": [
        {
          "internalType": "address",
          "name": "spender",
          "type": "address"
        }
      ],
      "name": "ERC20InvalidSpender",
      "type": "error"
    },
    {
      "inputs": [],
      "name": "EtherNotAccepted",
      "type": "error"
    },
    {
      "inputs": [],
      "name": "InvalidAddress",
      "type": "error"
    },
    {
      "inputs": [],
      "name": "InvalidRecipientAddress",
      "type": "error"
    },
    {
      "inputs": [
        {
          "internalType": "address",
          "name": "owner",
          "type": "address"
        }
      ],
      "name": "OwnableInvalidOwner",
      "type": "error"
    },
    {
      "inputs": [
        {
          "internalType": "address",
          "name": "account",
          "type": "address"
        }
      ],
      "name": "OwnableUnauthorizedAccount",
      "type": "error"
    },
    {
      "inputs": [],
      "name": "ReentrancyGuardReentrantCall",
      "type": "error"
    },
    {
      "inputs": [
        {
          "internalType": "address",
          "name": "token",
          "type": "address"
        }
      ],
      "name": "SafeERC20FailedOperation",
      "type": "error"
    },
    {
      "inputs": [],
      "name": "TokenTransferFailed",
      "type": "error"
    },
    {
      "anonymous": false,
      "inputs": [
        {
          "indexed": true,
          "internalType": "address",
          "name": "owner",
          "type": "address"
        },
        {
          "indexed": true,
          "internalType": "address",
          "name": "spender",
          "type": "address"
        },
        {
          "indexed": false,
          "internalType": "uint256",
          "name": "value",
          "type": "uint256"
        }
      ],
      "name": "Approval",
      "type": "event"
    },
    {
      "anonymous": false,
      "inputs": [
        {
          "indexed": true,
          "internalType": "address",
          "name": "token",
          "type": "address"
        },
        {
          "indexed": true,
          "internalType": "address",
          "name": "to",
          "type": "address"
        },
        {
          "indexed": false,
          "internalType": "uint256",
          "name": "amount",
          "type": "uint256"
        }
      ],
      "name": "ERC20Withdrawn",
      "type": "event"
    },
    {
      "anonymous": false,
      "inputs": [
        {
          "indexed": true,
          "internalType": "address",
          "name": "previousOwner",
          "type": "address"
        },
        {
          "indexed": true,
          "internalType": "address",
          "name": "newOwner",
          "type": "address"
        }
      ],
      "name": "OwnershipTransferred",
      "type": "event"
    },
    {
      "anonymous": false,
      "inputs": [
        {
          "indexed": true,
          "internalType": "address",
          "name": "from",
          "type": "address"
        },
        {
          "indexed": true,
          "internalType": "address",
          "name": "to",
          "type": "address"
        },
        {
          "indexed": false,
          "internalType": "uint256",
          "name": "value",
          "type": "uint256"
        }
      ],
      "name": "Transfer",
      "type": "event"
    },
    {
      "inputs": [
        {
          "internalType": "address",
          "name": "owner",
          "type": "address"
        },
        {
          "internalType": "address",
          "name": "spender",
          "type": "address"
        }
      ],
      "name": "allowance",
      "outputs": [
        {
          "internalType": "uint256",
          "name": "",
          "type": "uint256"
        }
      ],
      "stateMutability": "view",
      "type": "function"
    },
    {
      "inputs": [
        {
          "internalType": "address",
          "name": "spender",
          "type": "address"
        },
        {
          "internalType": "uint256",
          "name": "value",
          "type": "uint256"
        }
      ],
      "name": "approve",
      "outputs": [
        {
          "internalType": "bool",
          "name": "",
          "type": "bool"
        }
      ],
      "stateMutability": "nonpayable",
      "type": "function"
    },
    {
      "inputs": [
        {
          "internalType": "address",
          "name": "account",
          "type": "address"
        }
      ],
      "name": "balanceOf",
      "outputs": [
        {
          "internalType": "uint256",
          "name": "",
          "type": "uint256"
        }
      ],
      "stateMutability": "view",
      "type": "function"
    },
    {
      "inputs": [
        {
          "internalType": "uint256",
          "name": "amount",
          "type": "uint256"
        }
      ],
      "name": "burn",
      "outputs": [],
      "stateMutability": "nonpayable",
      "type": "function"
    },
    {
      "inputs": [],
      "name": "chessFactory",
      "outputs": [
        {
          "internalType": "address",
          "name": "",
          "type": "address"
        }
      ],
      "stateMutability": "view",
      "type": "function"
    },
    {
      "inputs": [],
      "name": "decimals",
      "outputs": [
        {
          "internalType": "uint8",
          "name": "",
          "type": "uint8"
        }
      ],
      "stateMutability": "view",
      "type": "function"
    },
    {
      "inputs": [
        {
          "internalType": "address",
          "name": "to",
          "type": "address"
        },
        {
          "internalType": "uint256",
          "name": "amount",
          "type": "uint256"
        }
      ],
      "name": "mintTokens",
      "outputs": [],
      "stateMutability": "nonpayable",
      "type": "function"
    },
    {
      "inputs": [],
      "name": "name",
      "outputs": [
        {
          "internalType": "string",
          "name": "",
          "type": "string"
        }
      ],
      "stateMutability": "view",
      "type": "function"
    },
    {
      "inputs": [],
      "name": "owner",
      "outputs": [
        {
          "internalType": "address",
          "name": "",
          "type": "address"
        }
      ],
      "stateMutability": "view",
      "type": "function"
    },
    {
      "inputs": [],
      "name": "renounceOwnership",
      "outputs": [],
      "stateMutability": "nonpayable",
      "type": "function"
    },
    {
      "inputs": [],
      "name": "symbol",
      "outputs": [
        {
          "internalType": "string",
          "name": "",
          "type": "string"
        }
      ],
      "stateMutability": "view",
      "type": "function"
    },
    {
      "inputs": [],
      "name": "totalSupply",
      "outputs": [
        {
          "internalType": "uint256",
          "name": "",
          "type": "uint256"
        }
      ],
      "stateMutability": "view",
      "type": "function"
    },
    {
      "inputs": [
        {
          "internalType": "address",
          "name": "to",
          "type": "address"
        },
        {
          "internalType": "uint256",
          "name": "value",
          "type": "uint256"
        }
      ],
      "name": "transfer",
      "outputs": [
        {
          "internalType": "bool",
          "name": "",
          "type": "bool"
        }
      ],
      "stateMutability": "nonpayable",
      "type": "function"
    },
    {
      "inputs": [
        {
          "internalType": "address",
          "name": "from",
          "type": "address"
        },
        {
          "internalType": "address",
          "name": "to",
          "type": "address"
        },
        {
          "internalType": "uint256",
          "name": "value",
          "type": "uint256"
        }
      ],
      "name": "transferFrom",
      "outputs": [
        {
          "internalType": "bool",
          "name": "",
          "type": "bool"
        }
      ],
      "stateMutability": "nonpayable",
      "type": "function"
    },
    {
      "inputs": [
        {
          "internalType": "address",
          "name": "newOwner",
          "type": "address"
        }
      ],
      "name": "transferOwnership",
      "outputs": [],
      "stateMutability": "nonpayable",
      "type": "function"
    },
    {
      "inputs": [
        {
          "internalType": "address",
          "name": "token",
          "type": "address"
        },
        {
          "internalType": "uint256",
          "name": "amount",
          "type": "uint256"
        }
      ],
      "name": "withdrawERC20",
      "outputs": [],
      "stateMutability": "nonpayable",
      "type": "function"
    },
    {
      "stateMutability": "payable",
      "type": "receive"
    }
  ],
  "bytecode": "0x608060405234801561001057600080fd5b5060405161114a38038061114a83398101604081905261002f91610294565b336040518060400160405280600a81526020016921b432b9b9aa37b5b2b760b11b81525060405180604001604052806005815260200164434845535360d81b8152508160039081610080919061034c565b50600461008d828261034c565b5050506001600160a01b0381166100bf57604051631e4fbdf760e01b8152600060048201526024015b60405180910390fd5b6100c8816100de565b5060016006556100d83382610130565b50610431565b600580546001600160a01b038381166001600160a01b0319831681179093556040519116919082907f8be0079c531659141344cd1fd0a4f28419497f9722a3daafe3b4186f6b6457e090600090a35050565b6001600160a01b03821661015a5760405163ec442f0560e01b8152600060048201526024016100b6565b6101666000838361016a565b5050565b6001600160a01b03831661019557806002600082825461018a919061040a565b909155506102079050565b6001600160a01b038316600090815260208190526040902054818110156101e85760405163391434e360e21b81526001600160a01b038516600482015260248101829052604481018390526064016100b6565b6001600160a01b03841660009081526020819052604090209082900390555b6001600160a01b03821661022357600280548290039055610242565b6001600160a01b03821660009081526020819052604090208054820190555b816001600160a01b0316836001600160a01b03167fddf252ad1be2c89b69c2b068fc378daa952ba7f163c4a11628f55a4df523b3ef8360405161028791815260200190565b60405180910390a3505050565b6000602082840312156102a657600080fd5b5051919050565b634e487b7160e01b600052604160045260246000fd5b600181811c908216806102d757607f821691505b6020821081036102f757634e487b7160e01b600052602260045260246000fd5b50919050565b601f82111561034757806000526020600020601f840160051c810160208510156103245750805b601f840160051c820191505b818110156103445760008155600101610330565b50505b505050565b81516001600160401b03811115610365576103656102ad565b6103798161037384546102c3565b846102fd565b6020601f8211600181146103ad57600083156103955750848201515b600019600385901b1c1916600184901b178455610344565b600084815260208120601f198516915b828110156103dd57878501518255602094850194600190920191016103bd565b50848210156103fb5786840151600019600387901b60f8161c191681555b50505050600190811b01905550565b8082018082111561042b57634e487b7160e01b600052601160045260246000fd5b92915050565b610d0a806104406000396000f3fe6080604052600436106100f75760003560e01c80638da5cb5b1161008a578063a91fa28111610059578063a91fa281146102c4578063dd62ed3e146102e4578063f0dda65c1461032a578063f2fde38b1461034a57600080fd5b80638da5cb5b1461023d57806395d89b411461026f578063a1db978214610284578063a9059cbb146102a457600080fd5b8063313ce567116100c6578063313ce567146101b457806342966c68146101d057806370a08231146101f2578063715018a61461022857600080fd5b806306fdde031461011a578063095ea7b31461014557806318160ddd1461017557806323b872dd1461019457600080fd5b3661011557604051630dccd20d60e21b815260040160405180910390fd5b600080fd5b34801561012657600080fd5b5061012f61036a565b60405161013c9190610b3a565b60405180910390f35b34801561015157600080fd5b50610165610160366004610ba4565b6103fc565b604051901515815260200161013c565b34801561018157600080fd5b506002545b60405190815260200161013c565b3480156101a057600080fd5b506101656101af366004610bce565b610416565b3480156101c057600080fd5b506040516012815260200161013c565b3480156101dc57600080fd5b506101f06101eb366004610c0b565b61043a565b005b3480156101fe57600080fd5b5061018661020d366004610c24565b6001600160a01b031660009081526020819052604090205490565b34801561023457600080fd5b506101f06104e0565b34801561024957600080fd5b506005546001600160a01b03165b6040516001600160a01b03909116815260200161013c565b34801561027b57600080fd5b5061012f6104f4565b34801561029057600080fd5b506101f061029f366004610ba4565b610503565b3480156102b057600080fd5b506101656102bf366004610ba4565b6105bf565b3480156102d057600080fd5b50600754610257906001600160a01b031681565b3480156102f057600080fd5b506101866102ff366004610c46565b6001600160a01b03918216600090815260016020908152604080832093909416825291909152205490565b34801561033657600080fd5b506101f0610345366004610ba4565b6105cd565b34801561035657600080fd5b506101f0610365366004610c24565b610639565b60606003805461037990610c79565b80601f01602080910402602001604051908101604052809291908181526020018280546103a590610c79565b80156103f25780601f106103c7576101008083540402835291602001916103f2565b820191906000526020600020905b8154815290600101906020018083116103d557829003601f168201915b5050505050905090565b60003361040a818585610674565b60019150505b92915050565b600033610424858285610686565b61042f858585610704565b506001949350505050565b610442610763565b8060000361046357604051635e85ae7360e01b815260040160405180910390fd5b33600090815260208190526040902054818110156104c85760405162461bcd60e51b815260206004820152601b60248201527f4275726e20616d6f756e7420657863656564732062616c616e6365000000000060448201526064015b60405180910390fd5b6104d2338361078d565b506104dd6001600655565b50565b6104e86107c3565b6104f260006107f0565b565b60606004805461037990610c79565b61050b6107c3565b610513610763565b306001600160a01b0383160361053c57604051635c61fe1360e01b815260040160405180910390fd5b8060000361055d57604051635e85ae7360e01b815260040160405180910390fd5b6105716001600160a01b0383163383610842565b60405181815233906001600160a01b038416907fbfed55bdcd242e3dd0f60ddd7d1e87c67f61c34cd9527b3e6455d841b10253629060200160405180910390a36105bb6001600655565b5050565b60003361040a818585610704565b6105d5610763565b6105dd6107c3565b6001600160a01b0382166106045760405163226ccff560e11b815260040160405180910390fd5b8060000361062557604051635e85ae7360e01b815260040160405180910390fd5b61062f8282610894565b6105bb6001600655565b6106416107c3565b6001600160a01b03811661066b57604051631e4fbdf760e01b8152600060048201526024016104bf565b6104dd816107f0565b61068183838360016108ca565b505050565b6001600160a01b0383811660009081526001602090815260408083209386168352929052205460001981146106fe57818110156106ef57604051637dc7a0d960e11b81526001600160a01b038416600482015260248101829052604481018390526064016104bf565b6106fe848484840360006108ca565b50505050565b6001600160a01b03831661072e57604051634b637e8f60e11b8152600060048201526024016104bf565b6001600160a01b0382166107585760405163ec442f0560e01b8152600060048201526024016104bf565b61068183838361099f565b60026006540361078657604051633ee5aeb560e01b815260040160405180910390fd5b6002600655565b6001600160a01b0382166107b757604051634b637e8f60e11b8152600060048201526024016104bf565b6105bb8260008361099f565b6005546001600160a01b031633146104f25760405163118cdaa760e01b81523360048201526024016104bf565b600580546001600160a01b038381166001600160a01b0319831681179093556040519116919082907f8be0079c531659141344cd1fd0a4f28419497f9722a3daafe3b4186f6b6457e090600090a35050565b604080516001600160a01b038416602482015260448082018490528251808303909101815260649091019091526020810180516001600160e01b031663a9059cbb60e01b179052610681908490610ac9565b6001600160a01b0382166108be5760405163ec442f0560e01b8152600060048201526024016104bf565b6105bb6000838361099f565b6001600160a01b0384166108f45760405163e602df0560e01b8152600060048201526024016104bf565b6001600160a01b03831661091e57604051634a1406b160e11b8152600060048201526024016104bf565b6001600160a01b03808516600090815260016020908152604080832093871683529290522082905580156106fe57826001600160a01b0316846001600160a01b03167f8c5be1e5ebec7d5bd14f71427d1e84f3dd0314c0f7b2291e5b200ac8c7c3b9258460405161099191815260200190565b60405180910390a350505050565b6001600160a01b0383166109ca5780600260008282546109bf9190610cb3565b90915550610a3c9050565b6001600160a01b03831660009081526020819052604090205481811015610a1d5760405163391434e360e21b81526001600160a01b038516600482015260248101829052604481018390526064016104bf565b6001600160a01b03841660009081526020819052604090209082900390555b6001600160a01b038216610a5857600280548290039055610a77565b6001600160a01b03821660009081526020819052604090208054820190555b816001600160a01b0316836001600160a01b03167fddf252ad1be2c89b69c2b068fc378daa952ba7f163c4a11628f55a4df523b3ef83604051610abc91815260200190565b60405180910390a3505050565b600080602060008451602086016000885af180610aec576040513d6000823e3d81fd5b50506000513d91508115610b04578060011415610b11565b6001600160a01b0384163b155b156106fe57604051635274afe760e01b81526001600160a01b03851660048201526024016104bf565b602081526000825180602084015260005b81811015610b685760208186018101516040868401015201610b4b565b506000604082850101526040601f19601f83011684010191505092915050565b80356001600160a01b0381168114610b9f57600080fd5b919050565b60008060408385031215610bb757600080fd5b610bc083610b88565b946020939093013593505050565b600080600060608486031215610be357600080fd5b610bec84610b88565b9250610bfa60208501610b88565b929592945050506040919091013590565b600060208284031215610c1d57600080fd5b5035919050565b600060208284031215610c3657600080fd5b610c3f82610b88565b9392505050565b60008060408385031215610c5957600080fd5b610c6283610b88565b9150610c7060208401610b88565b90509250929050565b600181811c90821680610c8d57607f821691505b602082108103610cad57634e487b7160e01b600052602260045260246000fd5b50919050565b8082018082111561041057634e487b7160e01b600052601160045260246000fdfea2646970667358221220a097a55ba6a2f8361e8d2e8b1ac386492e7fa5f6150448823ec2b9a64e41d09364736f6c634300081b0033",
  "linkReferences": {},
  "deployedLinkReferences": {}
}